:1000000000800020BD010000352300000123000016
:100010000123000001230000012300000123000050
:10002000012300000123000001230000352300000C
:10003000352300000123000035230000F1220000D9
:100040003523000035230000352300003523000050
:100050003523000035230000352300003523000040
:100060003523000035230000352300003523000030
:100070003523000035230000352300003523000020
:100080003523000035230000352300003523000010
:100090003523000035230000352300003523000000
:1000A000195A0000352300003523000035230000D5
:1000B00035230000352300003523000035230000E0
:1000C00035230000352300003523000035230000D0
:1000D00035230000352300003523000035230000C0
:1000E00035230000352300003523000035230000B0
:1000F00035230000813D0000352300003D44000011
:10010000352300003D490000352300003523000061
:10011000352300003523000035230000352300007F
:10012000352300003523000035230000352300006F
:10013000352300003523000035230000352300005F
:10014000352300003523000035230000352300004F
:10015000352300003523000035230000352300003F
:1001600035230000092A0000352300003523000054
:10017000352300003523000035230000352300001F
:10018000352300003523000035230000352300000F
:1001900035230000352300003523000035230000FF
:1001A00035230000352300003523000035230000EF
:1001B000352300003523000035230000564B4CF258
:1001C000205210B51A804DF628121A8000BF00BFC9
:1001D00002F0B4F8514B4FF010621A60504A9A6026
:1001E000504ADA60A3F53043203B1A6812F480725B
:1001F00004D14D490A604FF4A8521A604B4B1A784B
:10020000110703D51A7842F008021A70484B2A22C7
:100210001A700023474A48499818884204D247492F
:10022000595899500433F5E7454A464B9A424FF0E6
:10023000000302D242F8043BF7E74349434A5958C6
:1002400099500433B3F5DE7FF7D1414B802103F899
:10025000011B40498B42F9D13F4B1A603F4B8A2228
:100260001A70A3F5805324225A70A0221A709A792A
:100270009207FCD59A79D406FCD4394B9A7902F0CE
:100280000C02082AF9D105221A7143225A719A796F
:100290009006FCD5324B9A795106FBD5314A4FF086
:1002A000817111600521516020221A702C4B9B79BD
:1002B00003F00C030C2BF9D12B4B2C4A1A602C4B5E
:1002C0002C4A1A6000225A60072243F8042C2A4A5A
:1002D000C3F80C2D62B602F07DFA134B1B68DA07E7
:1002E00005D5264802F0EEF8254B264A1A60264B23
:1002F0001B785B0609D5224C224A2368934204D11D
:100300001E4802F0DFF80023236007F0A9F802F08E
:100310001BF801F04BFFFEE70E2005403080044043
:10032000823F04000100002B14D0034002D007409C
:1003300000E007406087FF1F448AFF1F5C7E0000CB
:10034000488AFF1FB099FF1F000000000082FF1FB6
:1003500000E400E05FE400E008ED00E0005006404B
:10036000004006404480044004800440C010050062
:1003700014E000E03F190100000020209D5B56586A
:100380001CE00340A5C3945A00F00740FFFFFFFFA5
:10039000FFFFFFFFFFFFFFFFFFFFFFFFFFFFFFFF6D
:1003A000FFFFFFFFFFFFFFFFFFFFFFFFFFFFFFFF5D
:1003B000FFFFFFFFFFFFFFFFFFFFFFFFFFFFFFFF4D
:1003C000FFFFFFFFFFFFFFFFFFFFFFFFFFFFFFFF3D
:1003D000FFFFFFFFFFFFFFFFFFFFFFFFFFFFFFFF2D
:1003E000FFFFFFFFFFFFFFFFFFFFFFFFFFFFFFFF1D
:1003F000FFFFFFFFFFFFFFFFFFFFFFFFFFFFFFFF0D
:10040000FFFFFFFFFFFFFFFFFFFFFFFFDEF9FFFF23
:1004100010B5054C237833B9044B13B10448AFF33E
:1004200000800123237010BD488AFF1F00000000D8
:100430005C7E000008B5064B1BB106480649AFF3C9
:1004400000800648036813B1054B03B1984708BD07
:10045000000000005C7E00004C8AFF1F448AFF1FE2
:100460000000000043680B7043681B0A4B70C38890
:100470008B70C379CB7083680B7183681B0A4B71D7
:1004800043898B71C37ACB71082070470B78436026
:100490004A7843EA022343608A7843EA024343608E
:1004A000CA7843EA026343600B7983604A7943EA7E
:1004B000022383608A7943EA02438360CA7943EA6C
:1004C000026383600820704700487047B8770000D7
:1004D00000487047C677000000487047E777000083
:1004E00000487047007800000048704721780000FD
:1004F0000048704734780000004870478D7A00004B
:10050000004870475578000043680B701A0A4A701B
:100510001A0C1B0E8A70CB7083680B711A0A4A7111
:100520001A0C1B0E8A71CB71C3680B721A0A4A72BD
:100530001A0C1B0E8A72CB720C2070478B784A788B
:100540001B0443EA02230A781343CA7843EA02638E
:1005500043608B794A791B0443EA02230A791343E7
:10056000CA7943EA026383608B7A4A7A1B0443EABE
:1005700002230A7A1343CA7A43EA0263C3600C2057
:100580007047FFFF004870477678000000487047CA
:100590008B7800002DE9F74F8C460190D0E90201DD
:1005A000040E44EA01244FEA1028060C8CF803409C
:1005B00048EA01684FEA112946EA01460F0C0D0E80
:1005C000019C8CF801808CF802608CF805908CF806
:1005D00006708CF807508CF800008CF80410D4E9F1
:1005E0000401040E44EA01244FEA1028060C48EAEC
:1005F00001684FEA112946EA01460F0C0D0E8CF8EE
:100600000B40019C8CF809808CF80A608CF80D90E6
:100610008CF80E708CF80F508CF808008CF80C10C9
:10062000D4E906014FEA1028060C040E8CF81000DD
:1006300048EA01684FEA112946EA01460F0C44EAEC
:1006400001240D0E18208CF811808CF812608CF8A3
:1006500013408CF814108CF815908CF816708CF8E8
:10066000175003B0BDE8F08F2DE9F0434A788E783B
:1006700091F805800025002314022B433204002743
:100680000E7822431F43CC7800231F430B794FEA97
:100690000825164391F80680220616431F430022C0
:1006A00016432F434FEA084591F807801643164337
:1006B0002F434FEA086542EA06043D43C0E902457C
:1006C0004C7A91F80A8026024FEA084491F8088093
:1006D000264346EA080691F80B804FEA0864344343
:1006E000144342EA02074FF000094E7B47EA09072C
:1006F00042EA040891F80C908C7B42EA070545EA2F
:10070000090527044FEA0629CC7B49EA050948EA8E
:10071000020849EA0709270642EA080647EA0907E4
:10072000C0E904674C7C91F8128026024FEA084425
:1007300091F81080264346EA080691F813804FEAA4
:1007400008643443144342EA02074FF000094E7D27
:1007500047EA090742EA040891F814908C7D42EABE
:10076000070545EA090527044FEA0629CC7D49EA31
:10077000050949EA070948EA0208270642EA080685
:1007800047EA0907C0E906671820BDE8F083FFFFC4
:1007900000487047AC78000000487047C2780000FD
:1007A00070B5054608300E46FFF7F4FE04463119D1
:1007B00005F12800FFF7EEFE204470BD70B5054638
:1007C00008300E46FFF750FF0446311905F12800A6
:1007D000FFF74AFF204470BD00487047E3780000EF
:1007E00000487047F778000043680B701A0A4A7097
:1007F0001A0C1B0E8A70CB7083680B711A0A4A712F
:100800001A0C1B0E8A71CB71C3680B721A0A4A72DA
:100810001A0C1B0E8A72CB720C2070478B784A78A8
:100820001B0443EA02230A781343CA7843EA0263AB
:1008300043608B794A791B0443EA02230A79134304
:10084000CA7943EA026383608B7A4A7A1B0443EADB
:1008500002230A7A1343CA7A43EA0263C3600C2074
:100860007047FFFF00487047187900000048704744
:10087000267900000048704747790000004870471B
:1008800057790000004870477879000000487047A9
:1008900090790000D0E904230849C1E90023D0E998
:1008A00010230749C1E90023064B82B01B6801935E
:1008B000019A054B1A6002B0704700BF8895FF1F70
:1008C0000894FF1FD895FF1F0C8BFF1F90F854084A
:1008D000704738B5054600F10C042046FFF79EFF2F
:1008E000EB692046984738BD006A7047004870475A
:1008F00018790000004870472679000038B5054691
:1009000000F110042046FFF759FFAB6D20469847D1
:1009100038BDC06D7047FFFF00487047E3780000A6
:1009200000487047F77800002DE9FF4183880B707D
:1009300083881B0A4B70054680680C4606F068FEEB
:1009400004AB064643F80C0D1868C4F80200A96809
:100950003246A01D01F032FCE86806F059FE04ABF7
:1009600006F1060843F8080D0746186844F8080021
:100970000A36E9683A46A01901F020FC286906F019
:1009800047FE04AB3E4443F8040D07461868A051E7
:100990000436A0193A46296901F010FCF0196B6978
:1009A000235404441A0A627004301A0C1B0EA270FD
:1009B000E37004B0BDE8F0817FB50A788280034619
:1009C000487842EA00229A80D1F80200019001980A
:1009D0008A1D841D551AA54204D212F8015B02F843
:1009E000025CF7E70844002242714A1D9A600859E8
:1009F0000290201D029C02460444A24205D28D189A
:100A00008E5C05F8016C0132F7E70A1901380844D9
:100A1000002502F8015CD860106803900398043444
:100A200020442246824205D28D188E5C05F8016C66
:100A30000132F7E70A18013C0C44002502F8015C7A
:100A40001C6195785478D2782D0445EA04250C5C15
:100A500045EA040141EA026204305A6104B070BD03
:100A600073B503790B70054680680E4606F0D0FD1D
:100A700002AB044643F8040D1868C6F80100A968E3
:100A8000701D224601F09AFB601D02B070BD37B5A3
:100A90000B46024613F8010B107118680190019C77
:100AA0004B1D601D5D1A854204D213F8015B03F8EB
:100AB000025CF7E70C44002304312371916003B01A
:100AC00030BD2DE9F74303790B70002305460C4632
:100AD0004B708B70CB700A1D28795E1CDBB298427C
:100AE000C4EB020102F104020FD9E96851F8233086
:100AF00002F8043C190A02F8031C190C1B0E02F838
:100B0000013C02F8021C3346E6E72B7C6354631871
:100B100000225A709A70DA700B1D2344297C501CF5
:100B2000D2B29142C4EB030603F104030FD9A969C1
:100B300051F8222003F8042C110A03F8031C110CAD
:100B4000120E03F8012C03F8021C0246E6E72B7F85
:100B5000A355A2190023537093700436D3702A7FD3
:100B60005FFA83F8424503F1010915D96B6A53F81E
:100B7000280006F04DFD02AB074643F8040D186847
:100B8000A0516B6A0436A01953F828103A4601F0B8
:100B900015FB3E444B46E2E7304603B0BDE8F08328
:100BA000436873B50B7043681B0A4B70C3888B7026
:100BB000C379CB7083680B7183681B0A4B714389BF
:100BC0008B71C37ACB71C3680B72C3681B0A4B72FB
:100BD000C3898B72C37BCB72044600690D4606F055
:100BE00017FD02AB064643F8040D1868E86021695A
:100BF00005F11000324601F0E1FA06F1100002B0F2
:100C000070BD70B5044604300D46FFF7C9FF237E62
:100C10002B542B18627E5A70A27E9A70C61CA9199A
:100C200004F12000FFF7B6FC0644A91904F14000C6
:100C3000FFF7B0FC0644A91904F16000FFF7AAFC15
:100C4000304470BD37B50A7842600346487842EABE
:100C500000225A60887842EA00425A60C87842EA24
:100C600000625A600A799A60487942EA00229A60E2
:100C7000887942EA00429A60C87942EA00629A6042
:100C80000A7ADA60487A42EA0022DA60887A42EA2E
:100C90000042DA60C87A42EA0062DA60C86801900D
:100CA000019C01F1100204F11000551A854204D292
:100CB00012F8015B02F8025CF7E70C4400220F31E6
:100CC000E273196103B030BD70B5044604300D46BF
:100CD000FFF7B8FF2B5C23762B18C61C5A78627678
:100CE0009B78A376A91904F12000FFF7BDFC064408
:100CF000A91904F14000FFF7B7FC0644A91904F153
:100D00006000FFF7B1FC304470BDF7B50E78037991
:100D1000B34204460D4604D2C068B10006F05EFC42
:100D2000E06026712A1D00212379481CC9B28B423C
:100D3000C5EB020702F1040214D912F8023C12F8C2
:100D4000036C1B0443EA062312F8046C334312F8C5
:100D5000016C43EA0663A360E368A66843F8216078
:100D60000146E1E7EE5D237CB34204D2A069B10005
:100D700006F034FCA0613B1D26742B440022217C2C
:100D8000501CD2B29142C5EB030703F1040314D9FE
:100D900013F8021C13F8036C090441EA062113F846
:100DA000046C314313F8016C41EA06616161A16989
:100DB000666941F822600246E1E7EE5D237FB342B7
:100DC00004D2606AB10006F009FC60623B1D267720
:100DD0000022217FD6B2B1421CD9E8580190019976
:100DE000181D014403468B4206D2EF1815F803C0C4
:100DF00007F801CC0133F6E76B180027013803F838
:100E0000017C284420620B46616A206A41F8260072
:100E10000132DEE7184603B0F0BDFFFF10B504460F
:100E200006486168E268A36804F056FB6168E268FE
:100E3000A3680348BDE8104004F04EBBD094FF1FE8
:100E40002095FF1F034B82B01B680193019802B0ED
:100E5000704700BFD895FF1F034610B5C0680468EF
:100E60000A4624689968A04710BDFFFF054B036040
:100E700000220023C0E90223C0E90423C0E90623BD
:100E8000704700BF0077000010B50368017A1C7836
:100E900043681A78437A1A40837A0C4203F00303BA
:100EA00018BF43F004030AB143F008039A10013B52
:100EB00082720D2B14D8DFE803F0070A0D0A131015
:100EC000070710130A0D0A07C368013307E0C36858
:100ED000013B04E0C368023301E0C368023BC36026
:100EE00010BD10B5037C012B044603D872B6FFF782
:100EF000CBFF00E072B6E06862B610BD08B5034BE8
:100F0000D3F88400FFF7C0FF08BD00BF9C98FF1F07
:100F100008B5034BD3F88000FFF7B6FF08BD00BF4C
:100F20009C98FF1F08B5024BD86FFFF7ADFF08BDB7
:100F30009C98FF1F08B5024B986FFFF7A5FF08BDEF
:100F40009C98FF1F08B5024B586FFFF79DFF08BD27
:100F50009C98FF1F08B5024B186FFFF795FF08BD5F
:100F60009C98FF1F08B5024BD86EFFF78DFF08BD98
:100F70009C98FF1F08B5024B986EFFF785FF08BDD0
:100F80009C98FF1F08B5024B586EFFF77DFF08BD08
:100F90009C98FF1F08B5024B186EFFF775FF08BD40
:100FA0009C98FF1F08B5024BD86DFFF76DFF08BD79
:100FB0009C98FF1F08B5024B986DFFF765FF08BDB1
:100FC0009C98FF1F08B5024B586DFFF75DFF08BDE9
:100FD0009C98FF1F08B5024B186DFFF755FF08BD21
:100FE0009C98FF1F08B5024BD86CFFF74DFF08BD5A
:100FF0009C98FF1F08B5024B986CFFF745FF08BD92
:101000009C98FF1F08B5024B586CFFF73DFF08BDC9
:101010009C98FF1F08B5024B186CFFF735FF08BD01
:101020009C98FF1F08B5024BD86BFFF72DFF08BD3A
:101030009C98FF1F08B5024B986BFFF725FF08BD72
:101040009C98FF1F08B5024B586BFFF71DFF08BDAA
:101050009C98FF1F08B5024B186BFFF715FF08BDE2
:101060009C98FF1F08B5024BD86AFFF70DFF08BD1B
:101070009C98FF1F08B5024B986AFFF705FF08BD53
:101080009C98FF1F08B5024B586AFFF7FDFE08BD8C
:101090009C98FF1F08B5024B186AFFF7F5FE08BDC4
:1010A0009C98FF1F08B5024BD869FFF7EDFE08BDFD
:1010B0009C98FF1F08B5024B9869FFF7E5FE08BD35
:1010C0009C98FF1F08B5024B5869FFF7DDFE08BD6D
:1010D0009C98FF1F08B5024B1869FFF7D5FE08BDA5
:1010E0009C98FF1F08B5024BD868FFF7CDFE08BDDE
:1010F0009C98FF1F08B5024B9868FFF7C5FE08BD16
:101100009C98FF1F08B5024B5868FFF7BDFE08BD4D
:101110009C98FF1F08B5024B1868FFF7B5FE08BD85
:101120009C98FF1F08B5212800F2D580DFE810F059
:10113000220027002C00310036003C004100460010
:101140004B00500055005A005F00640069006E00BB
:10115000730078007D00820087008C00910096006B
:101160009B00A000A500AA00AF00B400B900BE001B
:10117000C300CD00594B002019605949A0E0574BDE
:101180000120596057499BE0544B02209960564911
:1011900096E0524B0320D960544991E04F4B042014
:1011A0001961024652498CE04C4B05205961514966
:1011B00086E04A4B062099614F4981E0474B072062
:1011C000D9614E497CE0454B082019624C4977E0D3
:1011D000424B092059624B4972E0404B0A20996208
:1011E00049496DE03D4B0B20D962484968E03B4BD3
:1011F0000C201963464963E0384B0D20596345497B
:101200005EE0364B0E209963434959E0334B0F2083
:10121000D963424954E0314B1020196440494FE0F2
:101220002E4B112059643F494AE02C4B12209964FF
:101230003D4945E0294B1320D9643C4940E0274B08
:10124000142019653A493BE0244B1520596539496A
:1012500036E0224B16209965374931E01F4B1720A5
:10126000D96536492CE01D4B18201966344927E012
:101270001A4B19205966334922E0184B1A209966F7
:1012800031491DE0154B1B20D966304918E0134B3E
:101290001C2019672E4913E0104B1D2059672D495A
:1012A0000EE00E4B1E2099672B4909E00B4B1F20C7
:1012B000D9672A4904E0094BC3F880102849202047
:1012C000042201F097F8012008BD044B2120C3F847
:1012D00084102449F4E7002008BD00BF9C98FF1F3C
:1012E0001511000005110000F5100000E5100000C8
:1012F000D5100000C5100000B5100000A5100000BA
:1013000095100000851000007510000065100000A9
:101310005510000045100000351000002510000099
:101320001510000005100000F50F0000E50F00008B
:10133000D50F0000C50F0000B50F0000A50F00007D
:10134000950F0000850F0000750F0000650F00006D
:10135000550F0000450F0000350F0000250F00005D
:10136000110F0000FD0E000070B5044615460E4634
:101370000846022101F0D6F82846022101F0D2F8F1
:10138000174A52F8363003F50071216001212172AD
:1013900052F83520617202F500700021E160606052
:1013A0004BF6803101397FF4FDAF93F8003292F8AB
:1013B000002203F00103D20744BF43F00203DBB273
:1013C000A37221463046FFF7ADFE21462074284621
:1013D000FFF7A8FE237C18442074204670BD00BF90
:1013E000AC7A000070B5254B254D86B0D3E90001DD
:1013F00003F042FD234B0446D3E9000103F03CFD1A
:10140000002322462049009002A804F099F802988F
:101410006FF02C042D28A8BF2D20A042B8BF204675
:1014200003F034FE0646286803F030FE31460246DB
:10143000164803F0D8FF03F0F7FC0146284604F0F5
:1014400087F903982D28A8BF2D20A042B8BF2046B9
:1014500003F01CFE0E4C0546206803F017FE2946DB
:1014600002460C4803F0BFFF03F0DEFC01462046B5
:1014700006B0BDE8704004F06BB900BF8895FF1F4F
:10148000D48AFF1F0894FF1F188BFF1FD094FF1FE3
:10149000F08AFF1F2095FF1F044900220023C1E9A5
:1014A00000230349C1E90023704700BF8895FF1F4F
:1014B0000894FF1F30B51048104D114C85B0FFF750
:1014C00010FD0146284604F007F90E48FFF709FD14
:1014D0000146204604F000F901A82A6823680A4959
:1014E00004F086F809490A4800234B60039BCB604F
:1014F000FFF7B2FC05B030BD588BFF1FD48AFF1F29
:10150000F08AFF1F0495FF1F188BFF1FC895FF1F50
:101510007095FF1F1FB5084B01930023029303939F
:1015200003680A211B6801AA04469847FFF78AFC52
:10153000E06004B010BD00BF88760000F0B587B051
:101540002C4B009300222C4BADF804200446029350
:1015500003930493059200F114060546D5F8183854
:10156000DBB158689A68ADF804201A6803680292E3
:101570009B689847D5F81838039058680368DB686B
:1015800098474FF4806322680593D5F81838049083
:101590001768196920466A46B8470435B542DDD157
:1015A0002546D5F82C08E0B14368ADF804308368CF
:1015B000029303689B6898470390D5F82C0803684A
:1015C000DB6898474FF4806304900593D5F82C08A6
:1015D00023681F6803685B6898476A46014620468F
:1015E000B8470435B542DCD1012384F8543807B03C
:1015F000F0BD00BFA07600006B7A0000F0B585B0AA
:101600001C4B019304460023029303930D46FFF7FE
:1016100019FCE668184F2946861B01A8FEF736FF1D
:101620004FF47A75029AB6FBF5F31A440292039AC4
:1016300005FB136607FB06220392FFF703FC029BE0
:101640000399B0FBF5F2013B9B1A23610B4B05FBA1
:1016500012050B4407FB1533636104F1100004F11C
:10166000140104F011F8FFF7EDFBC4F85C0805B0B5
:10167000F0BD00BF8876000040420F0000CA9A3BD0
:1016800070B50446FFF7DEFBD4F85C3842F6F8226A
:10169000C31A934284BF002384F85438D4F84038E6
:1016A000064633B1D4F86038984202D90023C4F812
:1016B000403860680368DB6898470028C0F2C08043
:1016C000D4F85028D4F840580244072DC4F85028C4
:1016D0000CD1D4F84C28D4F84438511C2244013B96
:1016E000C4F84C181076C4F844385DE09DB9FF2862
:1016F00007D10123C4F8403806F11403C4F8603858
:10170000D7E7FFF79FFB801B0528D2D984F85458F0
:101710006FF0010070BD012D0ED1FE2801D1022312
:10172000C5E70023C4F8403894F85438002BC0D1E2
:101730002046FFF7EFFEBCE7022D06D10022C4F8D9
:101740004C28C4F8440803221CE0032D07D1D4F828
:10175000442802EB0023C4F844380423A7E7042DEF
:101760000BD1404B1340002B03DA013B63F0FF0326
:101770000133FF2B9AD1052399E7052D07D1C4F832
:1017800048080622C4F84028C4F8500891E7062DFE
:101790000ED1D4F8482802EB0023C4F848380723B8
:1017A000C4F84038D4F84438002B82D108237EE7AF
:1017B000082D7FF47EAF0023C4F84038294B134036
:1017C000002B03DA013B63F0FF030133FF2B7FF4AF
:1017D00070AFD4F8483863B92046FFF79BFE204627
:1017E000FFF7ACFEC4F85868C4F85C684FF0FF30EF
:1017F00070BD0A2B05D1204604F11801FFF7FEFE4B
:1018000057E7062B09D104F6680004F11801FFF729
:101810007CFA012384F864384BE70B2B03D10023B7
:1018200084F8543845E704EB8303D3F89C0600287A
:101830003FF43FAF036804F118011B68984738E78D
:1018400094F8540860B1D4F8583840F6C412F31A2A
:10185000934204D92046FFF75DFEC4F85868002083
:1018600070BD00BFFF0000801FB5064B01930368E9
:101870008DF8081003921B68072101AA984705B04C
:101880005DF804FBB876000063292DE9F0410446B9
:101890000D4603DD90F85468002E48D013681046BA
:1018A0001B6804F21F419847FF2283B284F8182472
:1018B000FE22C0B284F819241A0A84F81B240244B8
:1018C000D24384F81D5445F3072584F81C2484F87A
:1018D0001A0484F81E5405220021981D904205DB4D
:1018E000A018013290F818040144F6E703F1080744
:1018F0000733BFB214FA83F3C943B7F5806F83F897
:1019000018140DD804F583683E460025BD420EDA52
:10191000606818F8051003681B6898470135F5E7FB
:1019200020460321034AFFF79FFF4FF0FF36304662
:10193000BDE8F081B1790000354A00234FF46141E0
:1019400010B5C2F84038C2F84438C2F84C38C2F872
:1019500048389160144604EB8302D2F82C2842B92F
:101960002B492C4A01EB83016433C1F82C285360C6
:1019700002E00133052BEED1002304EB8302D2F801
:101980002C2842B92249244A01EB83016433C1F86F
:101990002C28536002E00133052BEED1002304EB29
:1019A00083021B49D2F8182842B91C4A03F20620C8
:1019B000693341F820209360D16002E00133052BA8
:1019C000EDD1002304EB83021149D2F8182842B963
:1019D000134A03F20620693341F820209360D16056
:1019E00002E00133052BEDD194F85438084813B9BF
:1019F000FFF746FEF8E701210A4AFFF735FF0A48DC
:101A000003F0C6FF0520BDE8104000F0CDBE00BFCA
:101A1000748BFF1F9095FF1F688AFF1F7095FF1F33
:101A2000B495FF1FEA7900007899FF1F73B56148EC
:101A3000614D624CFFF71AFA6148FFF717FA6148E7
:101A4000FFF714FA1721112210235F4803F02AFE32
:101A50000C2315210D225D4803F024FE11211022D4
:101A60005B48FFF781FC0C210B225A48FFF77CFCF6
:101A7000082300932D21584A584B594803F030FD54
:101A80005849594A594B00950194594803F0A2FC12
:101A90005449554A554B00950194564803F09AFC19
:101AA000554B564A1A60564A5A604FF461429A6042
:101AB0005449C3F86818002283F8542883F86C2826
:101AC000C3F8742883F87828C3F8802883F884281A
:101AD000C3F88C28C3F81828C3F81C28C3F820289A
:101AE000C3F82428C3F82828C3F82C28C3F83028C2
:101AF000C3F83428C3F83828C3F83C2898180132B2
:101B00000021B2F5806F0176F8D10A4699180132AA
:101B10000025B2F5806F81F81854F7D13A4C3B4B51
:101B200023603B4B236104F11800FFF79FF904F198
:101B30003800FFF79BF9374BA365374BA360374B52
:101B40003749196001223749E2650026364CD960D1
:101B50001A623649364AD9619A601E615E619E6199
:101B6000344B2360344B6360344B6361A560E560A4
:101B7000256104F1200025766576A576FFF776F9D4
:101B800004F14000FFF772F904F16000FFF76EF90D
:101B90002B4B2C4A1D6183E814002B4B2B4A1A60F7
:101BA0002B492C4A5E609E60DE6082E80A00156167
:101BB00002B070BD5095FF1F6666663FCDCCCC3D30
:101BC0001094FF1FB094FF1FD48AFF1FF08AFF1FDD
:101BD000588BFF1F0495FF1F9A99193EF628DC3E8B
:101BE000188BFF1F00007FC300007F43CDCC4C3D0E
:101BF000D094FF1F2095FF1F748BFF1F7877000084
:101C0000C096FF1FD0760000688AFF1F9077000003
:101C10001877000095080000227A00009095FF1FB9
:101C2000A8770000307700003094FF1F1D0E0000E1
:101C30002A7A000060770000487700006B7A000085
:101C4000B495FF1F2E7A0000C895FF1FE8760000AC
:101C5000367A00007095FF1F38B5084C03460D46D4
:101C60002046194604F051F82046294603F0C4FDE9
:101C70002046BDE8384004F04BB800BF7899FF1FFC
:101C800070B50A4C03460D4620461946164604F028
:101C90003CF82946204603F0AFFD2046314603F0CC
:101CA000ABFD2046BDE8704004F032B87899FF1FC4
:101CB00008B5012120221E20FFF7E2FF052000F0D9
:101CC00073FD002118221E20FFF7DAFF052000F027
:101CD0006BFD022101221E20FFF7D2FF052000F03C
:101CE00063FD012008BDFFFF70B50D4C05460E4693
:101CF0002046294604F009F83146204603F07CFDD1
:101D0000204604F005F8142000F04EFD294601227B
:101D1000204603F0F5FF204603F096FDC0B270BDEB
:101D20007899FF1F08B553200021FFF7DDFFE52854
:101D300019D12D2108225320FFF7A2FF052000F022
:101D400033FD312109225320FFF79AFF052000F0CF
:101D50002BFD2C2109225320FFF792FF052000F0D4
:101D600023FD012008BD002008BD10B5682000211A
:101D7000FFF7BAFF00F07E04682C21D120463E21F7
:101D80008022FFF77DFF052000F00EFD2046162182
:101D90001B22FFF775FF052000F006FD20461521E8
:101DA0001322FFF76DFF052000F0FEFC20463E21C8
:101DB0000322FFF765FF0A2000F0F6FC012010BDAA
:101DC000002010BD10B5FFF7ADFF104C2076FFF7D7
:101DD000CCFF6076FFF76CFF237EA07623B90C481A
:101DE0000C4A0321FFF740FD637E23B908480A4AE5
:101DF0000321FFF739FDA37E23B90548074A0321D4
:101E0000FFF732FD064B00221A7010BD3094FF1F01
:101E1000748BFF1F3E7A0000577A00006C7A000036
:101E20003C88FF1F70B5234D0023532032212B70B7
:101E3000FFF712FF20485321062203F061FF1E48DE
:101E40001E4C03F0F7FC40B11B482E7803F0FCFC5D
:101E50002B78A05501332B70F1E723786078184D6B
:101E600043EA002000B203F011F9164903F016FA14
:101E700002F086FFA378C5E90201E07843EA00207A
:101E800000B203F003F90F4903F008FA02F078FFFB
:101E90002379C5E90401607943EA002000B203F028
:101EA000F5F8084903F0FAF902F06AFFC5E90601FE
:101EB00070BD00BF6D8BFF1F7899FF1F108BFF1F38
:101EC0005095FF1FCDCCCC4170B5234D0023682029
:101ED0001D212B70FFF7C0FE20486821062203F069
:101EE0000FFF1E481E4C03F0A5FC40B11B482E7886
:101EF00003F0AAFC2B78A05501332B70F1E763782F
:101F00002078184D43EA002000B203F0BFF81649CC
:101F100003F010F902F034FFE378C5E90201A0787C
:101F200043EA002000B203F0B1F80F4903F002F9D0
:101F300002F026FF6379C5E90401207943EA002015
:101F400000B203F0A3F8084903F0F4F802F018FF18
:101F5000C5E9060170BD00BF1C95FF1F7899FF1FE2
:101F60006E8BFF1F1094FF1FD9239F3A70B5264D2B
:101F700000231E2003212B70FFF76EFE23481E2135
:101F8000062203F0BDFE2148214C03F053FC40B172
:101F90001E482E7803F058FC2B78A05501332B7087
:101FA000F1E7637894F900001A4D43EA002003F04A
:101FB0006DF8194903F0BEF802F0E2FE6379C5E955
:101FC000020194F9040043EA002003F05FF812498B
:101FD00003F0B0F802F0D4FEE378C5E9040194F907
:101FE000020043EA002003F051F80B4903F0A2F885
:101FF00002F0C6FE0122C5E906011E200221BDE84D
:102000007040FFF73DBE00BF6C8BFF1F7899FF1F2C
:10201000C88AFF1FB094FF1F1F856B3F37B5314C37
:10202000237E002B5BD0637E002B58D0A37E002B39
:1020300055D0FEF707FF2C4B4FF47A711D695B6991
:10204000B0FBF1F2154401FB12022849009501FB97
:102050000232684601A9019203F016FB9DE80300D5
:1020600004F10C0383E80300214B6361237E73B109
:10207000FFF7D8FE1F49D1E90223C4E90A23D1E9B9
:102080000423C4E90C23D1E90623C4E90E23637EAB
:10209000144D73B1FFF718FF1749D1E90223C5E9C1
:1020A0001223D1E90423C5E91423D1E90623C5E9A4
:1020B0001623A37E0B4D73B1FFF758FF0F49D1E9EB
:1020C0000223C5E91A23D1E90423C5E91C23D1E978
:1020D0000623C5E91E230A480249FEF7BDFE03B0E8
:1020E00030BD00BF3094FF1F748BFF1F40420F00B4
:1020F000847A00005095FF1F1094FF1FB094FF1FBB
:10210000B495FF1F30B5224C224D236889B001934E
:10211000019A2B68D31A632B05D9FFF763F923685B
:102120000293029B2B60236803931B4B039A1B684B
:10213000D31AB3F5C87F01D3FFF7AEF92368174D63
:102140000493049A2B68D31A632B06D9FFF7B2F9CC
:102150000F4B1B680593059B2B6023680693104B60
:1021600006991A688A1A632A1D460BD90D4B1B78EB
:1021700013B1FFF727FE01E0FFF750FF2368079335
:10218000079B2B600848FFF77BFA09B030BD00BF02
:10219000D895FF1F0095FF1F0C8BFF1F1895FF1F81
:1021A000D08AFF1F3C88FF1F748BFF1F08B5FFF705
:1021B000C3FBFFF7A7FF01F0F3F8FAE7844641EA13
:1021C000000313F003036DD1403A41D351F8043BAF
:1021D00040F8043B51F8043B40F8043B51F8043B01
:1021E00040F8043B51F8043B40F8043B51F8043BF1
:1021F00040F8043B51F8043B40F8043B51F8043BE1
:1022000040F8043B51F8043B40F8043B51F8043BD0
:1022100040F8043B51F8043B40F8043B51F8043BC0
:1022200040F8043B51F8043B40F8043B51F8043BB0
:1022300040F8043B51F8043B40F8043B51F8043BA0
:1022400040F8043B51F8043B40F8043B403ABDD20F
:10225000303211D351F8043B40F8043B51F8043BB1
:1022600040F8043B51F8043B40F8043B51F8043B70
:1022700040F8043B103AEDD20C3205D351F8043B40
:1022800040F8043B043AF9D2043208D0D2071CBF0C
:1022900011F8013B00F8013B01D30B880380604635
:1022A000704700BF082A13D38B078DD010F00303AB
:1022B0008AD0C3F10403D21ADB071CBF11F8013B1B
:1022C00000F8013B80D331F8023B20F8023B7BE76A
:1022D000043AD9D3013A11F8013B00F8013BF9D295
:1022E0000B7803704B7843708B788370604670472F
:1022F000024B1A6801321A60704700BFD895FF1F61
:1023000008B50B4C2368580301D500F07DFB23680A
:10231000590501D501F034FD23681A0501D502F0F5
:102320008DF82368DB04ECD502F008FBE9E700BF79
:102330003480044008B5FFF7E3FFFFFF014B102294
:102340001A807047002005407047FFFF024A13685B
:1023500018441060184670474488FF1FEFF313833A
:102360009BB9EFF3108098B9EFF3058323B10F2BDE
:1023700004D9084A985C01E04FF48070EFF31183B0
:102380003BB1834238BF184670474FF0FF3070476B
:1023900018467047F0E300E07047FFFF00F140404F
:1023A000A0F592237C2B14D9A0F594237C2B12D971
:1023B000A0F596237C2B10D9A0F598237C2B06D969
:1023C000A0F59A207D28064828BF002070470548C0
:1023D000704705487047054870470548704700BF7B
:1023E0002089FF1F0089FF1F4888FF1F8088FF1F6B
:1023F000D088FF1F212870B50D4636D8042A34D85E
:10240000DFE802F00709050B03000B2306E00A23AF
:1024100004E0082302E00C2300E009231E04134B10
:10242000134A03EBC000134B4468C3F89C21124AC3
:10243000C3F8A021114AC3F8A421114AC3F8A82166
:102440002046104AC3F8AC21FFF7A8FF68B172B666
:10245000226822F470222260C4F3840342F0807266
:10246000164340F82350266062B670BDAC7A000077
:102470001188FF1F0082FF1FE587FF1FB987FF1F1D
:102480008D87FF1F6187FF1F0C4B03EBC00010B54A
:1024900044682046FFF782FF70B172B6236823F0CC
:1024A000877323F4803343F080732360C4F3840480
:1024B000034B40F8243062B610BD00BFAC7A000078
:1024C00099230000044B054900221A600A60044A5F
:1024D000106010221A60704714D0034004D00340EB
:1024E00000D00340212810B518D80D4A52F83030DA
:1024F00093F880423CB1012211B183F8802010BDD5
:1025000083F8002110BD02EBC00043681A6811B1C6
:1025100042F0030201E022F002021A6010BD00BF87
:10252000AC7A0000212810B537D81C4A02EBC00352
:1025300001295B68144601D004290FD154F83020DA
:10254000012082F880024FF4A2721A601A680429EE
:102550000CBF42F0200222F020021DE052F8302091
:10256000002082F8800211B18A1E012A12D84FF48D
:10257000807202291A6003D11A6842F003020BE04C
:1025800003290AD11A6842F002021A601A6822F07E
:10259000010201E040F203121A6010BDAC7A0000A3
:1025A000282838B5604A04460B4611D112780B2A08
:1025B00004D8C2F10C0201FA02F304E00C2A1CBF99
:1025C0000C3A41FA02F31846BDE8384001F002B96E
:1025D00011780125002B05FA01F2D8BF002102DD98
:1025E000934205D32946FFF77DFF2046294697E011
:1025F0000338C2B2012A01D84C4A06E0202C01D08F
:10260000192C01D14A4A00E04A4A126802FB0332FF
:10261000CA401D287BD8DFE800F0575F4E337A7A36
:10262000212A7A7A7A7A7A7A7A7A7A3C450F187AF3
:10263000707A7A7A7A7A7A673F4B1A6003F5973321
:1026400040F2444203F5FA735FE03C4B1A6003F535
:10265000973340F2444203F5F87356E0384B1A6062
:1026600003F5973340F2444203F5F6734DE0354BE2
:102670001A6003F5973340F2444203F5F47344E0E3
:10268000314B1A6003F59F3340F2444203F5F07377
:102690003BE02E4B1A6003F59F3340F2444203F5B2
:1026A000EE7332E02A4B1A6003F59F3340F2444246
:1026B00003F5EC7329E0274B1A6003F59F3340F2D2
:1026C000444203F5EA7320E0234B1A6003F580339C
:1026D0004FF45172203318E0204B1A6003F5803319
:1026E0004FF451721C3310E01D4B1A60A3F5DB232D
:1026F0004FF45172A3F5F96307E01A4B1A60A3F582
:10270000DB234FF45172A3F2CC731A6038BD7F2BD8
:102710002046D4BF00210121FFF7E4FE204601211D
:10272000BDE83840FFF7FEBE2889FF1F0890034030
:1027300008800B400880034010800340188003404D
:1027400020800340288003403080034038800340CD
:10275000408003404880034010900340189003409D
:1027600010800B4018800B4072B60C4B0C491A6855
:102770000C4B1B68096862B6490102D5322A88BF32
:102780000133C2F58C32482102F23F12B2FBF1F262
:102790004FF47A7000FB0320704700BF18E000E0A0
:1027A00004ED00E0D895FF1F38B50446FFF7DCFFC5
:1027B000054624B938BD013C0AD005F57A75FFF706
:1027C000D3FF401BB0F57A7FF5D200F0E9FDF6E7C4
:1027D00038BDFFFF204B4FF4000210B51A604FF0D8
:1027E00080721A604FF000721A604FF080621A60B7
:1027F0004FF000621A60194B194A1A4C002048F633
:10280000FF7118605960282313609360136193610E
:1028100013629362136393630922226004F5805468
:10282000043420606160A360236144F8042C04F543
:10283000FE2420600C4801600C490B608B600C4B3F
:102840001A6000F06BFF4FF4C870FFF7ADFFBDE8F2
:10285000104000F0D7BB00BF08E100E00480034057
:102860000C8003400080034008800B400C800B402C
:1028700000800B40F0B50C4B0C4C1A7842F002056E
:1028800004EBC50682F00102706009481A700678F0
:10289000002E0CBF8827C82786F0010647EA0141B1
:1028A000067044F83510F0BD4496FF1F0080FF1FEE
:1028B000BC96FF1F431E032B10B510D872B6094AF1
:1028C00052F8230048B1416842F82310064A0188B3
:1028D00032F81340611A22F8131062B610BD0020BE
:1028E00010BD00BF3496FF1F9899FF1F01380328C1
:1028F0000AD872B6054B53F82030002013B10130CE
:102900005B68FBE762B67047002070478896FF1F40
:1029100010B572B60123174A1A4412F8012C120797
:102920001CD59900144A52F831402CB902EB4313DC
:1029300008305860114B09E041F0010152F8314074
:1029400064B902EBC103083058600D4B42F83130D6
:102950000C4B1A78013A1A7062B610BD0133052B80
:10296000D9D162B6074B00221A70BDE8104000F0C2
:10297000C7BB00BF087D00000080FF1F880040002B
:10298000C8004000B296FF1F431E032B30B532D85B
:10299000194A400140F01000104472B6174CE25C36
:1029A000032A09D8DFE802F01602180508300222CF
:1029B00013E00830042210E01148124A50F8234076
:1029C00014B940F8231002E052F82300416042F8A5
:1029D00023100FE0032200E00522E25410F0080F5C
:1029E00001F108030A8843600CBF8823C82343EA27
:1029F0000243036062B630BD0080FF1FF095FF1FE9
:102A00008896FF1F9896FF1F2DE9F84FAB4F3C7833
:102A1000E4B214F0040F3D4619D0A94B1B78A3B1C2
:102A2000A84A117801F0FF0321B1013BDBB213701A
:102A300003B900BEA44A117801F0FF0329B1013B9C
:102A4000DBB213700BB900F087FC04233B7004F079
:102A5000080303F0FF02002B00F067829B4B9C4CA5
:102A60001A78D2B215094FEA920840F0E48104EBDB
:102A7000C803596854F83830C3F38303013B0C2B67
:102A800000F2D681DFE813F095019501D401D4015D
:102A9000D401D401D401D401B001D401D401D401B2
:102AA0000D008C4D0A684B688B486B6001218B4B85
:102AB00044F838302A60DFF85082017092B240F258
:102AC000816000238242C8F800302361A36117D8D7
:102AD000B2F5D06F80F01E81B2F5817F00F0CF801B
:102AE00006D8802A00F0BA80822A00F0BB8031E14B
:102AF00040F202339A4200F0D180B2F5A06F1CE0A0
:102B000042F22100824200F051810ED8B2F5086FE6
:102B100000F09E80B2F5106F40F01C81684B6C4E47
:102B2000AA781A7006F180090AE042F221218A424D
:102B300000F0088142F221339A4200F00F8109E14E
:102B4000336A1B0603D5706A083800F0D9FA0836D4
:102B50004E45F5D10026B146DFF8B0A156F80A007F
:102B600028B1D0F804B000F0CBFA5846F8E74AF89C
:102B700006005B4BDFF898A1F05056F80A0028B128
:102B8000D0F804B000F0BCFA5846F8E7554B4AF8C4
:102B90000600F050544B23F81900544B19F8032049
:102BA000023A032A08D8DFE802F0020402040022F5
:102BB00000E0012203F8092009F10109B9F1040F2D
:102BC00006F10406C8D14A4B00221A7001269A4623
:102BD000484A494B3244334412F8012C9B0012F00E
:102BE000080F1A704FEA860925D000F06BFA38B149
:102BF00004EB461308305860404B44F8393006E087
:102C00009AF8003044F8390001338AF8003000F0B7
:102C100059FA49F0010338B104EBC302083050609F
:102C20002E4A44F8332006E044F833009AF8003086
:102C300001338AF8003049F00202013649F00309F5
:102C40000023052E44F8323044F83930C0D186E0F4
:102C50001B4B2B4C1B7823700B4683E0284C2370B6
:102C600063707EE0AA88042A74D8254C92002370F1
:102C70006370244B9B5C9E0773D5217071E0AA881A
:102C800002F07F02042A65DC6B88002B62D1910080
:102C90001C4A0A44117821F0020159E0AA8802F086
:102CA0007F02042A56DC6B88002B53D19100154A11
:102CB0000A44117841F002014AE000BF8020074039
:102CC000BB96FF1F4596FF1FD096FF1F9020074021
:102CD0000080FF1FA896FF1FBC96FF1FC800400082
:102CE000E095FF1F9896FF1F9899FF1FF095FF1F13
:102CF000B296FF1F087D000030C801108800400018
:102D0000B396FF1FC0200740DC95FF1F3496FF1FBE
:102D10008896FF1F6A88A9889F4B53F8084CA3F137
:102D20000C00BCB133F80C6C964209D133F80A6C34
:102D30008E4205D1120A032A0CBF2378038911E0C1
:102D40000C33EAE7954A1168954A1160A978954ACB
:102D5000117004E0944B0F221A7027E000231C46E8
:102D600000E00223EE88B34238BF1E46402E34BF37
:102D70003546402520462946FFF77CFD761B2C442E
:102D800003D1402D12D1354603E0402E34BF3546E5
:102D9000402520462946FFF76DFD761B2C4401D1C6
:102DA000402D03D1814AC8F8004016800122804B93
:102DB0003DE0804B1A8842F221039A4210D1002351
:102DC0007D4AC85C98540133072BF9D11368862BD0
:102DD00002D17A4B0F221A7000200146FFF74AFDFC
:102DE000774B44F8383023E0764E3568B5B1DFF8DC
:102DF000BC81B8F80090B9F1400F34BF4C46402474
:102E000028462146FFF736FDC4EB09039BB2A8F81C
:102E100000300BB9402C00D12B193360654B1A8858
:102E2000B2F5A06F04D100225A709A78664B1A70DE
:102E300001225F4B6CE004EBC806013D736802F0B1
:102E40000802A3F10800EDB202F0FF01002A36D01B
:102E500000F056F95D485E4B50F82520EAB1516804
:102E600040F8251002F108017160595D03290BD863
:102E7000DFE801F002040608032104E0022102E079
:102E8000052100E00421595516F0080F12880CBFE7
:102E90008823C82343EA024342E05A5D032A07D845
:102EA000DFE802F040400204002206E0012204E0D4
:102EB00016F0080F0CBF022203225A5532E054F8D4
:102EC0003820120C23F8082C22B3DFF834E123F861
:102ED000061C43F8041C5EF825303E4913B94EF831
:102EE000250002E051F8253058603B4B41F82500A1
:102EF00033F815100A4423F8152000F0E3F810B158
:102F00000830706006E0354B44F838001A7801321A
:102F10001A7007E02A4B324A16F0080F08BF134612
:102F200044F8383008233B7070E5E0071FD520498E
:102F30002B482C4C02230B702B4B1A702B4B186018
:102F400098602B48D8601A619A615C60164B0D201E
:102F500018702848FF2303702B700274264A1370E0
:102F6000264B9F221A7001230B70BDE8F88F2106B3
:102F700004D50D4B0D221A7080232B70A20705D5A6
:102F80001C4B1A78D2B21A7002232B70E30644BF8E
:102F900010232B70BDE8F88F187D0000D895FF1F17
:102FA000A899FF1FE096FF1FC0200740B096FF1FA3
:102FB00094200740A896FF1FA099FF1F4596FF1F6A
:102FC000C8004000DC95FF1F982007408896FF1F2F
:102FD000F095FF1FE095FF1F9899FF1FB296FF1F06
:102FE00088004000F495FF1F4496FF1F0080FF1FDC
:102FF0004896FF1F882007408C2007408420074008
:103000003496FF1F08B501F001FD00221A4B002184
:10301000D15098180832882A4160F7D1174A1068B1
:1030200040F48020106002F528326832C3F3072094
:103030001070C3F307401B0E10751376FF2302F8C0
:103040001C3C02F8143C02F88C3C012302F8083CBA
:1030500082F8641002F8183C094B70226FF450712A
:103060001A700B444FF400721A6003F1C04303F569
:10307000C82310221A7008BD0080FF1F348004404E
:1030800049E400E000F0A0B800F05CB800F080B8BF
:1030900000F034B900F0A6B8084600F023B908469D
:1030A000114600F0B7B87047044B00221A714FF474
:1030B0007A711A73024A99601A607047C096FF1FAE
:1030C000C87B000072B60C4A1168B1FA81F30B2B71
:1030D00002D962B6002070474FF00040D84021EA84
:1030E0000001116062B6054948225343C818002206
:1030F000CA504260704700BF2C89FF1F0084FF1F29
:103100000C4B4822C31AB3FBF2F30B2B11D80A4A1B
:10311000127822B1094A12780AB1FFF7F9BB72B6E8
:10312000074A4FF0004121FA03F311681943116077
:1031300062B670470084FF1FB296FF1FBB96FF1F49
:103140002C89FF1F10B5104C23686BB12068428892
:10315000531C0244147A0288934212D3FFF7D0FF23
:10316000094B00221A600DE0084B1B7813B94FF091
:10317000FF3010BD0320FFF79DFB20600028E5D144
:10318000F5E74380204610BDDC96FF1FBB96FF1F6E
:1031900010B50B4C236813B123686BB902E0094BDF
:1031A0001B7813B94FF0FF3010BD0320FFF782FBEF
:1031B00020600028F0D1F5E75A881344187A10BD32
:1031C000DC96FF1FBB96FF1F044B9888044B1B68BF
:1031D0001BB11A885B88D31A184470479899FF1F4F
:1031E000DC96FF1F10B5094B1B786BB1084C2068AB
:1031F00018B1FFF785FF002323600320FFF75AFB78
:1032000010B1FFF77DFFF8E710BD00BFBB96FF1FB1
:10321000DC96FF1F2DE9F8432D4E012307460C468F
:103220003370002C4FD02B4D2B68A9462BBB48F692
:103230000148294B1B7803F0FF020BB9327015E0EF
:103240000420FFF753FB072808D801233370FFF74A
:1032500039FFC9F8000080B91D4B1870B8F101089A
:103260001E4B01D01A782AB101221A704FF0FF309C
:10327000BDE8F88300F094F8DBE72968174A48882E
:1032800000231370C0F14002944238BF224600F17F
:10329000080C10448C444880A41A934204D0F85C73
:1032A0000CF803000133F8E71F444B883F2B06D985
:1032B00040230B800420FFF767FB00232B60084BA3
:1032C00005221A70ADE734702046BDE8F88300BFD0
:1032D000D196FF1FD496FF1FBB96FF1FD896FF1FE6
:1032E000D096FF1F07B502AB012103F8010D184668
:1032F000FFF790FF03B05DF804FBFFFF2DE9F041FD
:10330000114B1B78F3B1114E114B3468114D01274D
:103310001F7098464CB1002763882F7004202380CB
:103320002146FFF731FB376009E0FFF7CBFE01468E
:1033300020B104202C70FFF727FB00E02F70002342
:1033400088F80030BDE8F081BB96FF1FD496FF1FC0
:10335000D196FF1FD096FF1F38B50E4B1B7803F098
:10336000FF05ABB90C4C216831B14B880B800420B0
:10337000FFF70AFB256038BDFFF7A4FE014620B128
:103380000420BDE83840FFF7FFBA044B01221A7051
:1033900038BD00BFD196FF1FD496FF1FD096FF1FE8
:1033A00010B50E4C2378BBB901232370FFF70CFF37
:1033B00008B1FFF778FE00F06DFC08B100F08AF864
:1033C00000F0C6FF08B100F00FF901F053FA08B1A0
:1033D00000F094F90023237010BD00BFE196FF1F99
:1033E00008B50368C9B21B68984708BD08B50368EB
:1033F000C9B21B68984708BD08B50368C9B21B6805
:10340000984708BD08B50368C9B21B68984708BD4E
:10341000034800EB5100B0FBF1F000F0F5B900BF3C
:103420000044950810B5064800EB51001446B0FB67
:10343000F1F000F0E9F92046BDE8104000F048BA8C
:103440000044950800F06EBA084600F09FBA08469E
:1034500000F0EEBA0846114600F0B4BA08B50846C6
:1034600000F00CFB003018BF012008BD08B508466D
:1034700000F026FB003018BF012008BD00F00ABC98
:1034800000F042BC00F016BC00F0E8BB00F054BCF9
:1034900000F0EEBB08B5084600F038FB012008BD7F
:1034A00008B5084600F032FB012008BD10B50846FB
:1034B0001446114600F074FB204610BD38B508468E
:1034C0000D4604F0A5F804462146284600F068FBA6
:1034D000204638BD7047FFFF044B00221A714FF49D
:1034E0007A711A73024A99601A607047E496FF1F56
:1034F000F07B000008B50368C9B21B68984708BD97
:1035000008B50368C9B21B68984708BD08B50368C9
:10351000C9B21B68984708BD08B50368C9B21B68E3
:10352000984708BD034800EB5100B0FBF1F000F0F4
:10353000ABBC00BF0044950810B5064800EB510035
:103540001446B0FBF1F000F09FFC2046BDE81040AF
:1035500000F0FEBC0044950800F024BD084600F0D1
:1035600079BD084600F0C8BD0846114600F08EBD82
:1035700008B5084600F0E8FD003018BF012008BD7E
:1035800008B5084600F002FE003018BF012008BD53
:1035900000F0DEBE00F016BF00F0EABE00F0BCBED8
:1035A00000F028BF00F0C2BE08B5084600F00CFECF
:1035B000012008BD08B5084600F006FE012008BD40
:1035C00010B508461446114600F048FE204610BDCE
:1035D00038B508460D4604F01BF804462146284637
:1035E00000F03CFE204638BD7047FFFF044B002230
:1035F0001A714FF47A711A73024A99601A6070470F
:10360000F496FF1F507C000008B50368C9B21B6820
:10361000984708BD08B50368C9B21B68984708BD3C
:1036200008B50368C9B21B68984708BD08B50368A8
:10363000C9B21B68984708BD034800EB5100B0FBB6
:10364000F1F000F07FBF00BF00A24A0410B50648A9
:1036500000EB51001446B0FBF1F000F073FF204680
:10366000BDE8104000F0B0BF00A24A0400F0D6BF91
:10367000084601F007B8084601F048B80846114668
:1036800001F01CB808B5084601F042F8003018BF38
:10369000012008BD08B5084601F05CF8003018BFED
:1036A000012008BD01F0E6B801F01EB901F0F2B842
:1036B00001F0C4B801F030B901F0CAB808B5084645
:1036C00001F066F8012008BD08B5084601F060F871
:1036D000012008BD10B508461446114601F0A2F8B5
:1036E000204610BD38B508460D4603F091FF04464C
:1036F0002146284601F096F8204638BD7047FFFF66
:10370000044B00221A714FF47A711A73024A9960BD
:103710001A6070470497FF1FB07C000010B5204B63
:103720002048214960221A70E1225A701F4B204A1A
:103730001C78204B082C01D1012402E00A2C03D173
:1037400019240460132005E00C2C0CBF15243D2423
:1037500004601220086014601860174B17491B782A
:10376000174A03B101230B601360164B164A1978F0
:10377000164B012901D880210BE0042901D88421AE
:1037800007E0082901D8852103E0102994BF86218C
:103790008721116019600E4B01221A7010BD00BF05
:1037A0000040074008B003400CB003403089FF1FC1
:1037B00008B00B400CB00B401597FF1F20B0034022
:1037C00020B00B403189FF1F24B0034024B00B40D0
:1037D0001497FF1F084B1A6842F480521A60074B77
:1037E0001A78074B0AB1802200E0C0221A70054BFC
:1037F00080F30C00188070472C8004401597FF1F41
:1038000021C00C4000C00C40234B1A6842F4806277
:103810001A60224A00231370214A1370214A137040
:10382000214A1370214A1370214B1B782BB1152BA1
:1038300007D140F213321F4B02E01F4B40F213320C
:103840001A601E4B1B78012B05D0052B07D14FF4B6
:1038500051721B4B02E01B4B4FF451721A601A4B12
:10386000C0F344321A70C0F347125A700221042286
:1038700000F01F0098729A70D9745A7588221A74D1
:103880003C22DA70114B40226FF44A711A700B44DB
:103890004FF400521A607047348004409F97FF1F16
:1038A0001D97FF1FA897FF1FA097FF1F1C97FF1FC3
:1038B0005E97FF1F18C0044040A004403289FF1FDC
:1038C0001CC0044044A0044000A006402DE400E0D9
:1038D000134A937800F0030103F0EC030B43410714
:1038E00048BF43F01003937000F00F03042B0C4902
:1038F00003D18B7943F040038B715379C20603F0F7
:10390000EF03074A48BF43F01003537193798106D0
:1039100003F0EF0348BF43F010039371704700BFFB
:1039200000A0064008B5114B1B685B0500D408BD1C
:103930000F4B1A7802F0FF0312B1FFF731FDF7E7E2
:103940000C4A4FF4005111600B4A0C49D37040F2FD
:1039500003120A604A600A4A13700A4A13700A4B3B
:103960001B680BB101221A7008BD00BF34800440EF
:103970001C97FF1F84E100E000A0064040A0044027
:103980009F97FF1F1D97FF1F1897FF1F38B504460D
:10399000094B1B7803F0FF05002BF9D120460121CC
:1039A000FEF7C0FD20462946FEF79CFD034B53F869
:1039B0003420034B1A6038BD1C97FF1FAC7A0000FF
:1039C000A497FF1F10B509B140F08000144A137886
:1039D0009842144622D0134A126852051DD503F0AE
:1039E0007F03012B04D0052B05D100220E4B01E0F3
:1039F0000E4B00221A60002900F07F020CBF442306
:103A00006023012A05D0052A07D143F44073064AF2
:103A100002E0064A43F440731360207010BD00BFFB
:103A20003289FF1F348004401CC0044044A004407D
:103A30000E4A1378984218D00D490968490513D5E4
:103A40002BB1152B05D10B4B0021196001E00A4960
:103A50000B6028B1152807D140F21331054B02E065
:103A6000054B40F213311960107070475E97FF1FCD
:103A70003480044018C0044040A004400D4A38B5CA
:103A8000146814F480624FF0000410D021280A4D0D
:103A90000AD80A4A012152F830302B60FEF742FD65
:103AA0002B681C70012038BD2C60204638BD1046A4
:103AB00038BD00BF348004401897FF1FAC7A000067
:103AC0000E4B1B6813F4806316D012280C4B03D1E5
:103AD00040F202310B4A04E0142809D10A4A40F2AC
:103AE000023111605A7B42F001025A730120704783
:103AF0005A7B02F0FE025A73002070473480044063
:103B000000A006400CA0044014C00440F8B51D4BB2
:103B10001B685A05064633D51B4B1B680BB10122A7
:103B20001A701A4B1C780134402C1F4628BF002401
:103B3000174D2B78A34218D1FEF710FC40280FDC5C
:103B4000144A13791B06F3D52B7813490133402B04
:103B500028BF0023C95CDBB2C9B2D1712B70E7E783
:103B6000FF28E5DDFFF71CFCE2E70B4BF6B21E5524
:103B70000A4B01221A70074BE4B2BC223C70DA7087
:103B8000F8BD00BF34800440A497FF1FA897FF1F13
:103B9000A097FF1F00A006401E97FF1F1C97FF1F46
:103BA000274B1B685A052DE9F04707468A4644D53E
:103BB000244B1B680BB101221A703D4607EB0A0328
:103BC0009D4237D2DFF890801F4E98F8004096F85B
:103BD00000900134402C28BF00245FFA89F9A145E8
:103BE0001DD11A4BBC22DA70FEF7B8FB40280FDC5F
:103BF000164A13791B060FD5337815490133402B2C
:103C000028BF0023C95CDBB2C9B2D171337003E0B5
:103C1000FF2801DDFFF7C4FB33784B45E4D00C4BA4
:103C200015F8012B1A550B4B0122E4B21A7088F8D3
:103C30000040C3E7054BBC22DA70BDE8F08700BF47
:103C400034800440A497FF1FA097FF1F00A00640E8
:103C50001E97FF1F1C97FF1FA897FF1F08B5034B58
:103C60001B7813B1FFF79CFBF9E708BD1C97FF1FFA
:103C7000064A074B1B781078DBB2C0B283422CBFD8
:103C80003F3000F1FF30C01A704700BFA097FF1F00
:103C9000A897FF1F054B1878054B1B78C0B2DBB205
:103CA000984238BF4030C01A704700BF9F97FF1F2F
:103CB0001D97FF1F10B5104B10491A780B78D2B220
:103CC000DBB29A4214D00133402B28BF00230C48AA
:103CD000DCB2C05C0C700B490968C0B251B19A42A9
:103CE00038BF4032D31A1A2B04DC00230B7010BDEE
:103CF0004FF0FF3010BD00BF9F97FF1F1D97FF1FA4
:103D00005F97FF1F1897FF1F084B1A78084B1B7807
:103D1000DBB29A4207D00133402B28BF0023054A6B
:103D2000D05CC0B270474FF0FF3070479F97FF1FC5
:103D30001D97FF1F5F97FF1F0C4B1B685B0514D57A
:103D40000B4BDA7802F0CB02DA7040225A74DA7840
:103D500042F03402DA70074B1A78074BD2B21A706D
:103D6000064B1B680BB100221A7070473480044068
:103D700000A006401D97FF1F9F97FF1F1897FF1F6A
:103D800030B5374B1A7912F0300F31D072B69A7DB8
:103D900002F0FF0022B9DA7940225A7462B627E0B5
:103DA00062B6304A304913780978DBB2C9B214469A
:103DB0002B4AD5795A1C402A28BF00228A42EDB2EC
:103DC00002D02A4B9D541346421E12F0FF00EFD141
:103DD000DAB22270264A126852B18B4236BFC1F164
:103DE0004001C1EB03035B18272BC4BF01231370F1
:103DF0001B4BD978C9B20C0620D51B7918061DD5E6
:103E00001C4B1D4A1D781378EDB2DBB21046AB4255
:103E10000CD0134A0133402B1479184C28BF0023CF
:103E2000E45CE4B2D471127D072AF0D9DBB20370EE
:103E30000B4B1A79120644BF7C22DA704B060ED562
:103E4000074B1A7912F0400F194608D00C4B00228C
:103E50001A700C4B1B6803B11A703C23CB7030BD39
:103E600000A006409F97FF1F1D97FF1F5F97FF1F32
:103E70001897FF1FA897FF1FA097FF1F1E97FF1FF0
:103E80001C97FF1FA497FF1F234B1A6842F4006280
:103E90001A60224A00231370214A1370214A1370BA
:103EA000214A1370214A1370214B1B78092B05D02E
:103EB0001A2B07D140F213321E4B02E01E4B40F288
:103EC00013321A601D4B1B780A2B05D01F2B07D10C
:103ED0004FF451721A4B02E01A4B4FF451721A60B0
:103EE000194BC0F344321A70C0F347125A7000F0F5
:103EF0001F000422022198729A70D9745A75882280
:103F00001A743C22DA70114B40221A70A3F22B3340
:103F10004FF400421A607047348004401A98FF1F23
:103F2000B197FF1F2098FF1F1B98FF1FB097FF1F1F
:103F30003389FF1F04D004400CB004403489FF1FB4
:103F400000D0044010B0044000B006402FE400E070
:103F5000134A937800F0030103F0EC030B4341078D
:103F600048BF43F01003937000F00F03042B0C497B
:103F700003D18B7943F040038B715379C20603F070
:103F8000EF03074A48BF43F010035371937981064A
:103F900003F0EF0348BF43F010039371704700BF75
:103FA00000B0064008B51E4B1B681B0500D408BDB9
:103FB0001C4B1B7803F0FF0213B1FFF7F1F9F7E791
:103FC000194B4FF400411960184BDA70184B1B78ED
:103FD000092B05D01A2B07D140F20312154B02E032
:103FE000154B40F203121A60144B1B7803F07F0349
:103FF0000A2B05D01F2B07D140F20312104B02E011
:10400000104B40F203121A600F4A002313700F4A3C
:1040100013700F4B1B680BB101221A7008BD00BF53
:1040200034800440B097FF1F84E100E000B00640F8
:104030003389FF1F04D004400CB004403489FF1FB3
:1040400000D0044010B004401A98FF1FB197FF1F22
:10405000AC97FF1F38B50446094B1B7803F0FF05EA
:10406000002BF9D120460121FEF75CFA20462946B3
:10407000FEF738FA034B53F83420034B1A6038BD6F
:10408000B097FF1FAC7A00001C98FF1F10B509B154
:1040900040F08000144A13789842144622D0134A04
:1040A000126812051DD503F07F030A2B04D01F2BC5
:1040B00005D100220E4B01E00E4B00221A600029B0
:1040C00000F07F020CBF442360230A2A05D01F2A78
:1040D00007D143F44073064A02E0064A43F44073B2
:1040E0001360207010BD00BF3489FF1F348004406E
:1040F00000D0044010B004400F4A137898421AD000
:104100000E490968090515D5092B04D01A2B05D1CC
:1041100000210B4B01E00B4B00211960092805D051
:104120001A2807D140F21331054B02E0054B40F24B
:1041300013311960107070473389FF1F34800440B9
:1041400004D004400CB004400D4A38B5146814F48F
:1041500000624FF0000410D021280A4D0AD80A4A04
:10416000012152F830302B60FEF7DCF92B681C700F
:10417000012038BD2C60204638BD104638BD00BF38
:1041800034800440AC97FF1FAC7A00000B4B1B68D7
:1041900013F4006310D01728094B09D1094A40F2E3
:1041A000023111605A7B42F001025A7301207047BC
:1041B0005A7B02F0FE025A7300207047348004409C
:1041C00000B0064008B00440F8B51D4B1B681A0546
:1041D000064633D51B4B1B680BB101221A701A4BD4
:1041E0001C780134282C1F4628BF0024174D2B783B
:1041F000A34218D1FEF7B2F840280FDC144A137915
:104200001B06F3D52B7813490133282B28BF002335
:10421000C95CDBB2C9B2D1712B70E7E7FF28E5DDDD
:10422000FFF7BEF8E2E70B4BF6B21E550A4B012230
:104230001A70074BE4B2BC223C70DA70F8BD00BFC4
:10424000348004401C98FF1F2098FF1F1B98FF1FFD
:1042500000B00640B297FF1FB097FF1F274B1B68A7
:104260001A052DE9F04707468A4644D5244B1B68BA
:104270000BB101221A703D4607EB0A039D4237D26B
:10428000DFF890801F4E98F8004096F800900134B7
:10429000282C28BF00245FFA89F9A1451DD11A4BAB
:1042A000BC22DA70FEF75AF840280FDC164A137960
:1042B0001B060FD5337815490133282B28BF00235F
:1042C000C95CDBB2C9B2D171337003E0FF2801DDF4
:1042D000FFF766F833784B45E4D00C4B15F8012B0B
:1042E0001A550B4B0122E4B21A7088F80040C3E75C
:1042F000054BBC22DA70BDE8F08700BF3480044073
:104300001C98FF1F1B98FF1F00B00640B297FF1FAD
:10431000B097FF1F2098FF1F08B5034B1B7813B100
:10432000FFF73EF8F9E708BDB097FF1F064A074BB5
:104330001B781078DBB2C0B283422CBF273000F16B
:10434000FF30C01A704700BF1B98FF1F2098FF1F47
:10435000054B1878054B1B78C0B2DBB2984238BFCA
:104360004030C01A704700BF1A98FF1FB197FF1F57
:1043700010B5104B10491A780B78D2B2DBB29A42C2
:1043800014D00133402B28BF00230C48DCB2C05CA2
:104390000C700B490968C0B251B19A4238BF403223
:1043A000D31A1A2B04DC00230B7010BD4FF0FF3022
:1043B00010BD00BF1A98FF1FB197FF1FDA97FF1FAC
:1043C000AC97FF1F084B1A78084B1B78DBB29A4258
:1043D00007D00133402B28BF0023054AD05CC0B270
:1043E00070474FF0FF3070471A98FF1FB197FF1FBB
:1043F000DA97FF1F0C4B1B681B0514D50B4BDA78A3
:1044000002F0CB02DA7040225A74DA7842F03402B9
:10441000DA70074B1A78074BD2B21A70064B1B683A
:104420000BB100221A7070473480044000B006407F
:10443000B197FF1F1A98FF1FAC97FF1F30B5374B7E
:104440001A7912F0300F31D072B69A7D02F0FF0067
:1044500022B9DA7940225A7462B627E062B6304A4D
:10446000304913780978DBB2C9B214462B4AD579A2
:104470005A1C402A28BF00228A42EDB202D02A4BA1
:104480009D541346421E12F0FF00EFD1DAB22270A3
:10449000264A126852B18B4236BFC1F14001C1EBCE
:1044A00003035B18272BC4BF012313701B4BD97860
:1044B000C9B20C0620D51B7918061DD51C4B1D4A08
:1044C0001D781378EDB2DBB21046AB420CD0134A24
:1044D0000133282B1479184C28BF0023E45CE4B284
:1044E000D471127D072AF0D9DBB203700B4B1A7915
:1044F000120644BF7C22DA704B060ED5074B1A79A0
:1045000012F0400F194608D00C4B00221A700C4BC9
:104510001B6803B11A703C23CB7030BD00B006405D
:104520001A98FF1FB197FF1FDA97FF1FAC97FF1F65
:104530002098FF1F1B98FF1FB297FF1FB097FF1F08
:104540001C98FF1F174B1A6842F480521A60164AD3
:1045500000231370154A1370154A1370154A13700F
:10456000154A1370154A40F2133111604FF451711E
:104570005160134AC0F344311170C0F3471100F089
:104580001F0051709072937013742C23D3700D4BD5
:1045900040226FF44B711A700B444FF400321A60D2
:1045A000704700BF348004409298FF1F2998FF1F76
:1045B0009898FF1F9398FF1F2898FF1F08C004407A
:1045C00000C0064031E400E0134A937800F0030194
:1045D00003F0EC030B43410748BF43F01003937013
:1045E00000F00F03042B0C4903D18B7943F04003F7
:1045F0008B715379C20603F0EF03074A48BF43F0BB
:10460000100353719379810603F0EF0348BF43F021
:1046100010039371704700BF00C0064008B5114BEE
:104620001B68DB0400D408BD0F4B1A7802F0FF03AF
:1046300012B1FEF7B5FEF7E70C4A4FF400311160F6
:104640000B4A0C49D37040F203120A604A600A4ACE
:1046500013700A4A13700A4B1B680BB101221A70BF
:1046600008BD00BF348004402898FF1F84E100E0AB
:1046700000C0064008C004409298FF1F2998FF1F01
:104680002498FF1F38B50446094B1B7803F0FF053B
:10469000002BF9D120460121FDF744FF2046294691
:1046A000FDF720FF034B53F83420034B1A6038BD4D
:1046B0002898FF1FAC7A00009498FF1F10B509B12D
:1046C00040F080000E4A1378984217D00D4C2468B1
:1046D000E40412D503F07F03082B02D10A4B002417
:1046E0001C60002900F07F030CBF44216021082BCF
:1046F00003D1054B41F440711960107010BD00BF2B
:104700003589FF1F348004400CC004407047FFFF10
:104710000D4A38B5146814F480524FF0000410D0DC
:1047200021280A4D0AD80A4A012152F830302B605C
:10473000FDF7F8FE2B681C70012038BD2C60204668
:1047400038BD104638BD00BF348004402498FF1F98
:10475000AC7A00000B4B1B6813F4805310D00E286A
:10476000094B09D1094A40F2023111605A7B42F0EB
:1047700001025A73012070475A7B02F0FE025A73FD
:10478000002070473480044000C0064004C004404C
:10479000F8B51D4B1B68DA04064633D51B4B1B6866
:1047A0000BB101221A701A4B1C780134282C1F46B9
:1047B00028BF0024174D2B78A34218D1FDF7CEFD5A
:1047C00040280FDC144A13791B06F3D52B781349C4
:1047D0000133282B28BF0023C95CDBB2C9B2D171D9
:1047E0002B70E7E7FF28E5DDFEF7DAFDE2E70B4B8C
:1047F000F6B21E550A4B01221A70074BE4B2AC22E6
:104800003C70DA70F8BD00BF348004409498FF1FFC
:104810009898FF1F9398FF1F00C006402A98FF1F1B
:104820002898FF1F38B504464518AC4204D014F848
:10483000010BFFF7ADFFF8E738BDFFFF08B5034BED
:104840001B7813B1FEF7ACFDF9E708BD2898FF1FF0
:10485000064A074B1B781078DBB2C0B283422CBFEC
:10486000273000F1FF30C01A704700BF9398FF1F38
:104870009898FF1F054B1878054B1B78C0B2DBB228
:10488000984238BF4030C01A704700BF9298FF1F4F
:104890002998FF1F10B5104B10491A780B78D2B227
:1048A000DBB29A4214D00133402B28BF00230C48BE
:1048B000DCB2C05C0C700B490968C0B251B19A42BD
:1048C00038BF4032D31A1A2B04DC00230B7010BD02
:1048D0004FF0FF3010BD00BF9298FF1F2998FF1FB7
:1048E0005298FF1F2498FF1F084B1A78084B1B781B
:1048F000DBB29A4207D00133402B28BF0023054A80
:10490000D05CC0B270474FF0FF3070479298FF1FE5
:104910002998FF1F5298FF1F054B1A78054BD2B2FA
:104920001A70054B1B680BB100221A70704700BF4C
:104930002998FF1F9298FF1F2498FF1F10B5294B3D
:104940001A79920620D5284AD87913782749013355
:10495000402B097828BF00238B42C0B203D02449E2
:10496000C854D9B21170234A116869B1224A127829
:10497000D2B2934236BFC2F14002C2EB03039B188E
:10498000272BC4BF01230B70164AD178C9B20C067D
:1049900016D51379180613D5184B17481C780378C9
:1049A000DBB29C4202D16C23D37009E00133282B87
:1049B00028BF0023124CE45CDBB2E4B2D471037074
:1049C0004B060ED5074B1A7912F0400F194608D046
:1049D0000C4B00221A700C4B1B6803B11A702C236D
:1049E000CB7010BD00C006409298FF1F2998FF1F92
:1049F0005298FF1F2498FF1F9398FF1F9898FF1F3E
:104A00002A98FF1F2898FF1F9498FF1F1FB572B6A2
:104A1000154B70221A70154A412111700F2102F8AE
:104A2000011C80221A701A781206FCD5104B1868E7
:104A300062B6104B984298BF0A2301AC98BF584306
:104A400021460A2200F01AF80023E15C0A4A29B143
:104A500002EB430001330A2B4180F6D101335B00A6
:104A6000137004B010BD00BF0000024007000240F8
:104A7000080002407F969800BE89FF1F10B50023F2
:104A8000B0FBF2F402FB1400092894BF3030373039
:104A9000C0B2C85420460CB10133F1E7CA185470B3
:104AA00022469A4206DA885CCC5C8C54C8540132A7
:104AB000013BF6E7084610BD81F0004102E000BF6F
:104AC00083F0004330B54FEA41044FEA430594EACE
:104AD000050F08BF90EA020F1FBF54EA000C55EA09
:104AE000020C7FEA645C7FEA655C00F0E2804FEADA
:104AF0005454D4EB5555B8BF6D420CDD2C4480EABC
:104B0000020281EA030382EA000083EA010180EAEB
:104B1000020281EA0303362D88BF30BD11F0004F39
:104B20004FEA01314FF4801C4CEA113102D040426F
:104B300061EB410113F0004F4FEA03334CEA1333AA
:104B400002D0524263EB430394EA050F00F0A780C2
:104B5000A4F10104D5F1200E0DDB02FA0EFC22FABD
:104B600005F2801841F1000103FA0EF2801843FAB1
:104B700005F359410EE0A5F120050EF1200E012AA2
:104B800003FA0EFC28BF4CF0020C43FA05F3C018E0
:104B900051EBE37101F0004507D54FF0000EDCF159
:104BA000000C7EEB00006EEB0101B1F5801F1BD302
:104BB000B1F5001F0CD349085FEA30004FEA3C0C06
:104BC00004F101044FEA445212F5800F80F09A80FC
:104BD000BCF1004F08BF5FEA500C50F1000041EB00
:104BE000045141EA050130BD5FEA4C0C404141EB04
:104BF000010111F4801FA4F10104E9D191F0000F2B
:104C000004BF01460020B1FA81F308BF2033A3F1AD
:104C10000B03B3F120020CDA0C3208DD02F1140CA4
:104C2000C2F10C0201FA0CF021FA02F10CE002F1DF
:104C30001402D8BFC2F1200C01FA02F120FA0CFCD8
:104C4000DCBF41EA0C019040E41AA2BF01EB045121
:104C5000294330BD6FEA04041F3C1CDA0C340EDC1F
:104C600004F11404C4F1200220FA04F001FA02F362
:104C700040EA030021FA04F345EA030130BDC4F120
:104C80000C04C4F1200220FA02F001FA04F340EA15
:104C90000300294630BD21FA04F0294630BD94F0C6
:104CA000000F83F4801306BF81F480110134013DAD
:104CB0004EE77FEA645C18BF7FEA655C29D094EA1E
:104CC000050F08BF90EA020F05D054EA000C04BF9C
:104CD0001946104630BD91EA030F1EBF0021002087
:104CE00030BD5FEA545C05D14000494128BF41F026
:104CF000004130BD14F580043CBF01F5801130BD8A
:104D000001F0004545F0FE4141F470014FF0000014
:104D100030BD7FEA645C1ABF194610467FEA655CC5
:104D20001CBF0B46024650EA013406BF52EA033567
:104D300091EA030F41F4002130BD00BF90F0000F55
:104D400004BF0021704730B54FF4806404F1320491
:104D50004FF000054FF0000150E700BF90F0000F4A
:104D600004BF0021704730B54FF4806404F1320471
:104D700010F0004548BF40424FF000013EE700BF41
:104D800042004FEAE2014FEA31014FEA02701FBFD1
:104D900012F07F4393F07F4F81F06051704792F0A3
:104DA000000F14BF93F07F4F704730B54FF460741D
:104DB00001F0004521F0004120E700BF50EA010268
:104DC00008BF704730B54FF000050AE050EA010215
:104DD00008BF704730B511F0004502D5404261EB85
:104DE00041014FF4806404F132045FEA915C3FF4C6
:104DF000DCAE4FF003025FEADC0C18BF03325FEA5F
:104E0000DC0C18BF033202EBDC02C2F1200300FA13
:104E100003FC20FA02F001FA03FE40EA0E0021FA38
:104E200002F11444C1E600BF4FEA410212F500123C
:104E300015D211D56FF47873B3EB625212D94FEAE1
:104E4000C12343F0004343EA505311F0004F23FACB
:104E500002F018BF404270474FF00000704750EA20
:104E6000013005D111F0004008BF6FF000407047DD
:104E70004FF00000704700BF4FEA4102B2F1E0433B
:104E800024BFB3F5001CDCF1FE5C0DD901F0004C31
:104E90004FEAC0024CEA5070B2F1004F40EB830081
:104EA00008BF20F00100704711F0804F21D113F1AD
:104EB0003872BCBF01F00040704741F480114FEAE6
:104EC0005252C2F11802C2F1200C10FA0CF320FA6F
:104ED00002F018BF40F001004FEAC1234FEAD3238C
:104EE00003FA0CFC40EA0C0023FA02F34FEA4303F6
:104EF000CCE77FEA625307D150EA01331EBF4FF07F
:104F0000FE4040F44000704701F0004040F0FE4099
:104F100040F40000704700BF80F0004002E000BF96
:104F200081F0004142001FBF5FEA410392EA030F94
:104F30007FEA226C7FEA236C6AD04FEA1262D2EBDE
:104F40001363C1BFD218414048404140B8BF5B42E3
:104F5000192B88BF704710F0004F40F4000020F07C
:104F60007F4018BF404211F0004F41F4000121F092
:104F70007F4118BF494292EA030F3FD0A2F10102DC
:104F800041FA03FC10EB0C00C3F1200301FA03F11A
:104F900000F0004302D5494260EB4000B0F5000F3D
:104FA00013D3B0F1807F06D340084FEA310102F1FC
:104FB0000102FE2A51D2B1F1004F40EBC25008BFAE
:104FC00020F0010040EA03007047490040EB000078
:104FD00010F4000FA2F10102EDD1B0FA80FCACF1A7
:104FE000080CB2EB0C0200FA0CF0AABF00EBC250A6
:104FF00052421843BCBFD0401843704792F0000F94
:1050000081F4000106BF80F400000132013BB5E7E6
:105010004FEA41037FEA226C18BF7FEA236C21D05C
:1050200092EA030F04D092F0000F08BF08467047C1
:1050300090EA010F1CBF0020704712F07F4F04D18F
:10504000400028BF40F00040704712F100723CBFA2
:1050500000F50000704700F0004343F0FE4040F4CC
:10506000000070477FEA226216BF08467FEA23638A
:105070000146420206BF5FEA412390EA010F40F475
:10508000800070474FF0000304E000BF10F00043C1
:1050900048BF40425FEA000C08BF704743F09643A8
:1050A00001464FF000001CE050EA010208BF7047C3
:1050B0004FF000030AE000BF50EA010208BF70474A
:1050C00011F0004302D5404261EB41015FEA010C5F
:1050D00002BF84460146002043F0B64308BFA3F157
:1050E0008053A3F50003BCFA8CF2083AA3EBC25339
:1050F00010DB01FA02FC634400FA02FCC2F1200258
:10510000BCF1004F20FA02F243EB020008BF20F08E
:105110000100704702F1200201FA02FCC2F12002F4
:1051200050EA4C0021FA02F243EB020008BF20EAE9
:10513000DC7070474FF0FF0C1CEAD0521EBF1CEA17
:10514000D15392EA0C0F93EA0C0F6FD01A4480EA05
:10515000010C400218BF5FEA41211ED04FF00063EE
:1051600043EA501043EA5111A0FB01310CF000401A
:10517000B1F5000F3EBF490041EAD3715B0040EA40
:10518000010062F17F02FD2A1DD8B3F1004F40EB10
:10519000C25008BF20F00100704790F0000F0CF0E3
:1051A000004C08BF49024CEA502040EA51207F3AA7
:1051B000C2BFD2F1FF0340EAC250704740F4000082
:1051C0004FF00003013A5DDC12F1190FDCBF00F073
:1051D00000407047C2F10002410021FA02F1C2F121
:1051E000200200FA02FC5FEA310040F1000053EABD
:1051F0004C0308BF20EADC70704792F0000F00F00B
:10520000004C02BF400010F4000F013AF9D040EA10
:105210000C0093F0000F01F0004C02BF490011F4A4
:10522000000F013BF9D041EA0C018FE70CEAD153A2
:1052300092EA0C0F18BF93EA0C0F0AD030F0004C22
:1052400018BF31F0004CD8D180EA010000F00040D6
:10525000704790F0000F17BF90F0004F084691F094
:10526000000F91F0004F14D092EA0C0F01D14202CE
:105270000FD193EA0C0F03D14B0218BF084608D197
:1052800080EA010000F0004040F0FE4040F40000E1
:10529000704740F0FE4040F4400070474FF0FF0C74
:1052A0001CEAD0521EBF1CEAD15392EA0C0F93EABB
:1052B0000C0F69D0A2EB030280EA010C49024FEA0D
:1052C000402037D04FF0805343EA111143EA1013C6
:1052D0000CF000408B4238BF5B0042F17D024FF47E
:1052E000000C8B4224BF5B1A40EA0C00B3EB510F59
:1052F00024BFA3EB510340EA5C00B3EB910F24BF42
:10530000A3EB910340EA9C00B3EBD10F24BFA3EBC6
:10531000D10340EADC001B0118BF5FEA1C1CE0D18E
:10532000FD2A3FF650AF8B4240EBC25008BF20F041
:10533000010070470CF0004C4CEA50207F32C2BF95
:10534000D2F1FF0340EAC250704740F400004FF032
:105350000003013A37E792F0000F00F0004C02BF63
:10536000400010F4000F013AF9D040EA0C0093F02D
:10537000000F01F0004C02BF490011F4000F013B87
:10538000F9D041EA0C0195E70CEAD15392EA0C0FEF
:1053900008D142027FF47DAF93EA0C0F7FF470AF27
:1053A000084676E793EA0C0F04D14B023FF44CAF6A
:1053B00008466EE730F0004C18BF31F0004CCAD1FF
:1053C00030F000427FF45CAF31F000437FF43CAF3B
:1053D0005FE700BF10B58360029BC360039B016061
:1053E0004260036110BD2DE9F04782460846114630
:1053F000FFF796FDFFF7C4FC04460D462246DAE9A6
:1054000006012B46FFF75EFBDAE90A23CAE906012B
:1054100020462946FFF754FB4FF0000806460F468A
:105420004FF00009CAE908672046294642464B4624
:1054300000F0E0FE08B1CAE90689DAF80800FFF7D3
:105440009FFC22462B4600F06DFC8046DAF80C00EB
:105450008946FFF795FCDAE9062300F063FC024673
:105460000B4640464946FFF72DFB8046DAF8100010
:105470008946FFF785FC32463B4600F053FC024666
:105480000B4640464946FFF71DFBCAE90A4506465A
:10549000DAF80000DAF804800F46FFF771FC0446E2
:1054A0000D463046394622462B4600F0ADFE58B92F
:1054B0004046FFF765FC04460D4630463946224615
:1054C0002B4600F0BFFE18B120462946BDE8F08704
:1054D00030463946BDE8F0878160C260036170479D
:1054E00070B5044610461E460D46FFF749FC10A352
:1054F000D3E90023C4E90A0100F014FCFFF7BCFC67
:105500002562E06026630498FFF728FC02460B46FC
:1055100000204FF0804100F0EDFE0022064BFFF727
:10552000CFFAC4E90E01204670BD00BFAFF3008082
:1055300000000060FB2109400000F03FAFF3008055
:105540002DE9F8430C460546284910461E46FFF74C
:10555000F1FD2649206080463046FFF7EBFD2349E8
:10556000606007460898FFF7E5FD216BA060FFF734
:10557000E1FDE6682061814631464046FFF78EFE38
:105580003146804660613846FFF788FE314607465F
:10559000A0614846FFF782FE39460646E061404674
:1055A000FFF7BEFC31460446FFF7BAFC00F054FE9C
:1055B000394628604046FFF7B5FC31460746FFF7FD
:1055C000AFFC00F049FE3146A8603846FFF7AAFC60
:1055D00000F042FE314668602046FFF7A3FC00F071
:1055E0003BFEE8602846BDE8F88300BF000070423B
:1055F0002DE9F04706461746984689461EA3D3E98B
:105600000023D1E90A0100F08DFB4FF0020A0446A5
:1056100007EB080090FBFAF00D46FFF79FFB002216
:10562000174B00F0A9FC22462B4600F07BFBFFF74E
:1056300023FC3060C7EB080090FBFAF0FFF78EFB0D
:1056400000220F4B00F098FC22462B4600F06AFB2C
:105650000446D9F830000D46FFF792FB02460B4690
:105660002046294600F088FCFFF706FCB060304673
:10567000BDE8F087AFF3008000000060FB21094027
:1056800000004E40AFF3008030B5054A0C68056855
:10569000B4FBF2F31D4402FB134305600B6030BD05
:1056A00000CA9A3BF8B51D4600230446164603710E
:1056B0000F46C8B20121FCF735FFF0B20121FCF71B
:1056C00031FFE8B20121FCF72DFF27616661A5617A
:1056D0002046F8BDFFFFFFFF2DE9F3411A4B0646B8
:1056E00080681B680193081A8846FFF737FB174B41
:1056F000019F044618680D46FFF730FB02460B4633
:105700002046294600F038FC0446F068381A0D4659
:10571000FFF714FB0AA3D3E9002300F02DFC024697
:105720000B462046294600F027FCFFF77DFBF7607B
:105730003060C6F8088002B0BDE8F081AFF30080A9
:1057400000000000004CED40D895FF1F4088FF1F6F
:1057500070B5067904460D46BEB9002906DD007D08
:105760000121FCF7BFFE207E314606E007D0007D18
:105770003146FCF7B7FE207E0121FCF7B3FE207C0A
:1057800085EAE571A1EBE57116E0012E18D100293B
:1057900005DD007D0021FCF703FF207E0BE0806922
:1057A000C0B205D00021FCF7FBFE207D694203E07A
:1057B000FCF7F6FE207D2946BDE87040FCF7F0BE00
:1057C00070BDFFFF044BD878044B1A68C0B29042FA
:1057D00018BF1860704700BF00600640D889FF1FDF
:1057E00008B5FFF7EFFF8307FBD5024B0222DA7003
:1057F00008BD00BF00600640094B1B7813B9094B78
:105800001B782BB1084A1378202B03D9012303718D
:1058100000207047581C1070044A0120D154704772
:105820008A99FF1F4D99FF1F8B99FF1F2C99FF1F0E
:105830007047FFFF024B1878024B1B78C01A704765
:105840008999FF1F8899FF1F064A0749137809782D
:10585000994204D9591C1170044AD05C70474FF02A
:10586000FF3070478899FF1F8999FF1F4E99FF1FCE
:10587000054B064A1B7812789A4286BF044AD05CD0
:105880004FF0FF30704700BF8899FF1F8999FF1FB5
:105890004E99FF1F70B50E4B1B78144613B90D4B74
:1058A0001B7893B10C4A1578C5F121039C4216462A
:1058B00002D9012202711C46084822462844254488
:1058C000FCF77CFC3570204670BD184670BD00BFEB
:1058D0008A99FF1F4D99FF1F8B99FF1F2C99FF1F5E
:1058E00010B5114BDB7803F0200303F0FF045BB924
:1058F0001220FCF7C9FD0D4B1B68A3B10C4A1470B4
:105900000C4A1078984710BD0B4A13780133DBB26C
:10591000012B137002D8094B1B7823B91220BDE864
:105920001040FCF7B1BD10BD006006402899FF1F74
:105930008899FF1F8999FF1F7499FF1F4D99FF1FB9
:10594000002202714FF47A710273024A8160026090
:10595000704700BF687D0000094B1B685B060DD5D2
:10596000084B9942084B01D8282204E0074A91428B
:1059700094BF19220A225A7003229A71704700BFFD
:10598000348004407F1A0600006006403F420F004A
:10599000174A08B500231370164A116841F04001F8
:1059A0001160154A9370154B1B78122B03D14FF4DD
:1059B0001972134B04E0112B03D1124B4FF41972DF
:1059C0001A60114B1B78132B03D14FF419720F4B34
:1059D00004E0102B03D10E4B4FF419721A600D49DD
:1059E000FFF7BAFF044B20225A7180229A7008BD3B
:1059F0004D99FF1F3480044000600640D489FF1F8A
:105A00000CA0044004A00440DC89FF1F08A004404F
:105A100000A00440A086010010B53649CB78DBB267
:105A200013F0100F03F0400201D12AB92CE010202E
:105A3000C870002AF9D110BD03F0040303F0FF0180
:105A40002D4AC3B1002313702C4A13702C4B1B68D2
:105A5000144603B1984723782A4A1BB92749137083
:105A600001200870234BD021997012781A71264BAF
:105A700001221A7039E001231370244B19701D4B59
:105A8000C0229A701B7930E01A4CA27802F0100202
:105A900002F0FF01AAB113F001030ED11A49174811
:105AA0000A780078904203D9531C0B70154B9B5C0D
:105AB0002371104BD0229A7017E0C023A370237972
:105AC00013E0134B0322197012201249FCF792FCC9
:105AD0000E4A217913781F2BC9B206D806480078E0
