:1000000000800020BD010000A52200007122000038
:100010007122000071220000712200007122000094
:10002000712200007122000071220000A522000050
:10003000A522000071220000A5220000612200001C
:10004000A5220000A5220000A5220000A522000094
:10005000A5220000A5220000A5220000A522000084
:10006000A5220000A5220000A5220000A522000074
:10007000A5220000A5220000A5220000A522000064
:10008000A5220000A5220000A5220000A522000054
:10009000A5220000A5220000A5220000A522000044
:1000A000F55B0000015C0000A5220000A522000015
:1000B000A5220000A5220000A5220000A522000024
:1000C000A5220000A5220000A5220000A522000014
:1000D000A5220000A5220000A5220000A522000004
:1000E000A5220000A5220000A5220000A5220000F4
:1000F000A5220000B93D0000A52200001D4500001A
:10010000A5220000A14A0000A5220000A5220000AF
:10011000A5220000A5220000A5220000A5220000C3
:10012000A5220000A5220000A5220000A5220000B3
:10013000A5220000A5220000A5220000A5220000A3
:10014000A5220000A5220000A5220000A522000093
:10015000A5220000A5220000A5220000A522000083
:10016000A52200008D290000A5220000A522000084
:10017000A5220000A5220000A5220000A522000063
:10018000A5220000A5220000A5220000A522000053
:10019000A5220000A5220000A5220000A522000043
:1001A000A5220000A5220000A5220000A522000033
:1001B000A5220000A5220000A5220000564B4CF20B
:1001C000205210B51A804DF628121A8000BF00BFC9
:1001D00002F06CF8514B4FF010621A60504A9A606E
:1001E000504ADA60A3F53043203B1A6812F480725B
:1001F00004D14D490A604FF4A8521A604B4B1A784B
:10020000110703D51A7842F008021A70484B2A22C7
:100210001A700023474A48499818884204D247492F
:10022000595899500433F5E7454A464B9A424FF0E6
:10023000000302D242F8043BF7E74349434A5958C6
:1002400099500433B3F5DE7FF7D1414B802103F899
:10025000011B40498B42F9D13F4B1A603F4B8A2228
:100260001A70A3F5805324225A70A0221A709A792A
:100270009207FCD59A79D406FCD4394B9A7902F0CE
:100280000C02082AF9D105221A7143225A719A796F
:100290009006FCD5324B9A795106FBD5314A4FF086
:1002A000817111600521516020221A702C4B9B79BD
:1002B00003F00C030C2BF9D12B4B2C4A1A602C4B5E
:1002C0002C4A1A6000225A60072243F8042C2A4A5A
:1002D000C3F80C2D62B602F03DFA134B1B68DA0727
:1002E00005D5264802F06AF8254B264A1A60264BA7
:1002F0001B785B0609D5224C224A2368934204D11D
:100300001E4802F05BF80023236007F045FA01F075
:10031000D3FF01F003FFFEE70E20054030800440CC
:10032000823F04000100002B14D0034002D007409C
:1003300000E007406087FF1F388AFF1F148100001C
:10034000388AFF1F549BFF1F000000000082FF1F20
:1003500000E400E05FE400E008ED00E0005006404B
:10036000004006404480044004800440C010050062
:1003700014E000E03F1901000000202041C950595D
:100380001CE00340A5C3945A00F00740FFFFFFFFA5
:10039000FFFFFFFFFFFFFFFFFFFFFFFFFFFFFFFF6D
:1003A000FFFFFFFFFFFFFFFFFFFFFFFFFFFFFFFF5D
:1003B000FFFFFFFFFFFFFFFFFFFFFFFFFFFFFFFF4D
:1003C000FFFFFFFFFFFFFFFFFFFFFFFFFFFFFFFF3D
:1003D000FFFFFFFFFFFFFFFFFFFFFFFFFFFFFFFF2D
:1003E000FFFFFFFFFFFFFFFFFFFFFFFFFFFFFFFF1D
:1003F000FFFFFFFFFFFFFFFFFFFFFFFFFFFFFFFF0D
:10040000FFFFFFFFFFFFFFFFFFFFFFFFDEF9FFFF23
:1004100010B5054C237833B9044B13B10448AFF33E
:1004200000800123237010BD388AFF1F00000000E8
:100430001481000008B5064B1BB106480649AFF30E
:1004400000800648036813B1054B03B1984708BD07
:1004500000000000148100003C8AFF1F388AFF1F43
:100460000000000043680B7043681B0A4B70C38890
:100470008B70C379CB7083680B7183681B0A4B71D7
:1004800043898B71C37ACB71082070470B78436026
:100490004A7843EA022343608A7843EA024343608E
:1004A000CA7843EA026343600B7983604A7943EA7E
:1004B000022383608A7943EA02438360CA7943EA6C
:1004C000026383600820704700487047D87A0000B4
:1004D00000487047E67A000000487047077B00003C
:1004E00000487047207B000000487047417B0000B7
:1004F00000487047547B000000487047687D00004A
:1005000000487047757B000043680B701A0A4A70F8
:100510001A0C1B0E8A70CB7083680B711A0A4A7111
:100520001A0C1B0E8A71CB71C3680B721A0A4A72BD
:100530001A0C1B0E8A72CB720C2070478B784A788B
:100540001B0443EA02230A781343CA7843EA02638E
:1005500043608B794A791B0443EA02230A791343E7
:10056000CA7943EA026383608B7A4A7A1B0443EABE
:1005700002230A7A1343CA7A43EA0263C3600C2057
:100580007047FFFF00487047967B000000487047A7
:10059000AB7B00002DE9F74F8C460190D0E90201BA
:1005A000040E44EA01244FEA1028060C8CF803409C
:1005B00048EA01684FEA112946EA01460F0C0D0E80
:1005C000019C8CF801808CF802608CF805908CF806
:1005D00006708CF807508CF800008CF80410D4E9F1
:1005E0000401040E44EA01244FEA1028060C48EAEC
:1005F00001684FEA112946EA01460F0C0D0E8CF8EE
:100600000B40019C8CF809808CF80A608CF80D90E6
:100610008CF80E708CF80F508CF808008CF80C10C9
:10062000D4E906014FEA1028060C040E8CF81000DD
:1006300048EA01684FEA112946EA01460F0C44EAEC
:1006400001240D0E18208CF811808CF812608CF8A3
:1006500013408CF814108CF815908CF816708CF8E8
:10066000175003B0BDE8F08F2DE9F0434A788E783B
:1006700091F805800025002314022B433204002743
:100680000E7822431F43CC7800231F430B794FEA97
:100690000825164391F80680220616431F430022C0
:1006A00016432F434FEA084591F807801643164337
:1006B0002F434FEA086542EA06043D43C0E902457C
:1006C0004C7A91F80A8026024FEA084491F8088093
:1006D000264346EA080691F80B804FEA0864344343
:1006E000144342EA02074FF000094E7B47EA09072C
:1006F00042EA040891F80C908C7B42EA070545EA2F
:10070000090527044FEA0629CC7B49EA050948EA8E
:10071000020849EA0709270642EA080647EA0907E4
:10072000C0E904674C7C91F8128026024FEA084425
:1007300091F81080264346EA080691F813804FEAA4
:1007400008643443144342EA02074FF000094E7D27
:1007500047EA090742EA040891F814908C7D42EABE
:10076000070545EA090527044FEA0629CC7D49EA31
:10077000050949EA070948EA0208270642EA080685
:1007800047EA0907C0E906671820BDE8F083FFFFC4
:1007900000487047CC7B000000487047E27B0000B7
:1007A00070B5054608300E46FFF7F4FE04463119D1
:1007B00005F12800FFF7EEFE204470BD70B5054638
:1007C00008300E46FFF750FF0446311905F12800A6
:1007D000FFF74AFF204470BD00487047037C0000CB
:1007E00000487047177C000043680B701A0A4A7073
:1007F0001A0C1B0E8A70CB7083680B711A0A4A712F
:100800001A0C1B0E8A71CB71C3680B721A0A4A72DA
:100810001A0C1B0E8A72CB720C2070478B784A78A8
:100820001B0443EA02230A781343CA7843EA0263AB
:1008300043608B794A791B0443EA02230A79134304
:10084000CA7943EA026383608B7A4A7A1B0443EADB
:1008500002230A7A1343CA7A43EA0263C3600C2074
:100860007047FFFF00487047387C00000048704721
:10087000467C000070B5044608300D46FFF78AFE3E
:100880000646A91904F12800FFF784FE0644A919B9
:1008900004F14800FFF77EFE304470BD70B5044699
:1008A00008300D46FFF7E0FE0646A91904F12800BE
:1008B000FFF7DAFE0644A91904F14800FFF7D4FE59
:1008C000304470BD00487047677C000000487047A6
:1008D000757C0000D0E904230849C1E90023D0E970
:1008E00010230749C1E90023064B82B01B6801931E
:1008F000019A054B1A6002B0704700BF6095FF1F58
:100900001894FF1FB495FF1FF88AFF1F90F8540832
:10091000704738B5054600F10C042046FFF77EFF0E
:10092000EB692046984738BD006A70470048704719
:10093000387C000000487047467C000038B505460A
:1009400000F110042046FFF739FFAB6D20469847B1
:1009500038BDC06D7047FFFF00487047037C000042
:1009600000487047177C00002DE9FF4183880B7019
:1009700083881B0A4B70054680680C4606F03CFFD6
:1009800004AB064643F80C0D1868C4F80200A968C9
:100990003246A01D01F0CAFBE86806F02DFF04AB4B
:1009A00006F1060843F8080D0746186844F80800E1
:1009B0000A36E9683A46A01901F0B8FB286906F042
:1009C0001BFF04AB3E4443F8040D07461868A051D2
:1009D0000436A0193A46296901F0A8FBF0196B69A1
:1009E000235404441A0A627004301A0C1B0EA270BD
:1009F000E37004B0BDE8F0817FB50A7882800346D9
:100A0000487842EA00229A80D1F8020001900198C9
:100A10008A1D841D551AA54204D212F8015B02F802
:100A2000025CF7E70844002242714A1D9A600859A7
:100A30000290201D029C02460444A24205D28D1859
:100A40008E5C05F8016C0132F7E70A190138084499
:100A5000002502F8015CD860106803900398043404
:100A600020442246824205D28D188E5C05F8016C26
:100A70000132F7E70A18013C0C44002502F8015C3A
:100A80001C6195785478D2782D0445EA04250C5CD5
:100A900045EA040141EA026204305A6104B070BDC3
:100AA00073B503790B70054680680E4606F0A4FE08
:100AB00002AB044643F8040D1868C6F80100A968A3
:100AC000701D224601F032FB601D02B070BD37B5CB
:100AD0000B46024613F8010B107118680190019C37
:100AE0004B1D601D5D1A854204D213F8015B03F8AB
:100AF000025CF7E70C44002304312371916003B0DA
:100B000030BD2DE9F74303790B70002305460C46F1
:100B10004B708B70CB700A1D28795E1CDBB298423B
:100B2000C4EB020102F104020FD9E96851F8233045
:100B300002F8043C190A02F8031C190C1B0E02F8F7
:100B4000013C02F8021C3346E6E72B7C6354631831
:100B500000225A709A70DA700B1D2344297C501CB5
:100B6000D2B29142C4EB030603F104030FD9A96981
:100B700051F8222003F8042C110A03F8031C110C6D
:100B8000120E03F8012C03F8021C0246E6E72B7F45
:100B9000A355A2190023537093700436D3702A7F93
:100BA0005FFA83F8424503F1010915D96B6A53F8DE
:100BB000280006F021FE02AB074643F8040D186832
:100BC000A0516B6A0436A01953F828103A4601F078
:100BD000ADFA3E444B46E2E7304603B0BDE8F08351
:100BE000F7B50E780379B34204460D4604D2C068C7
:100BF000B10006F0F7FDE06026712A1D002123797F
:100C0000481CC9B28B42C5EB020702F1040214D999
:100C100012F8023C12F8036C1B0443EA062312F894
:100C2000046C334312F8016C43EA0663A360E36883
:100C3000A66843F821600146E1E7EE5D237CB342FC
:100C400004D2A069B10006F0CDFDA0613B1D267461
:100C50002B440022217C501CD2B29142C5EB0307E9
:100C600003F1040314D913F8021C13F8036C0904EC
:100C700041EA062113F8046C314313F8016C41EA90
:100C800006616161A169666941F822600246E1E797
:100C9000EE5D237FB34204D2606AB10006F0A2FD8C
:100CA00060623B1D26770022217FD6B2B1421CD95B
:100CB000E85801900199181D014403468B4206D261
:100CC000EF1815F803C007F801CC0133F6E76B18ED
:100CD0000027013803F8017C284420620B46616A32
:100CE000206A41F826000132DEE7184603B0F0BD65
:100CF00010B5044606486168E268A36805F0ACF9DF
:100D00006168E268A3680348BDE8104005F0A4B933
:100D1000A894FF1F1895FF1F034610B5C06804680C
:100D20000A4624689968A04710BDFFFF054B036081
:100D300000220023C0E90223C0E90423C0E90623FE
:100D4000704700BF387A0000C9B2D2B2012304F064
:100D500081BE10B50368017A1C7843681A78437A1B
:100D60001A40837A0C4203F0030318BF43F00403D4
:100D70000AB143F008039A10013B82720D2B14D87C
:100D8000DFE803F0070A0D0A1310070710130A0D16
:100D90000A07C368013307E0C368013B04E0C36886
:100DA000023301E0C368023BC36010BD10B5037C91
:100DB000012B044603D872B6FFF7CBFF00E072B6F2
:100DC000E06862B610BDFFFF08B5034BD3F884009E
:100DD000FFF7BFFF08BD00BFAC9AFF1F08B5034B6C
:100DE000D3F88000FFF7B5FF08BD00BFAC9AFF1F26
:100DF00008B5024BD86FFFF7ACFF08BDAC9AFF1FD8
:100E000008B5024B986FFFF7A4FF08BDAC9AFF1F0F
:100E100008B5024B586FFFF79CFF08BDAC9AFF1F47
:100E200008B5024B186FFFF794FF08BDAC9AFF1F7F
:100E300008B5024BD86EFFF78CFF08BDAC9AFF1FB8
:100E400008B5024B986EFFF784FF08BDAC9AFF1FF0
:100E500008B5024B586EFFF77CFF08BDAC9AFF1F28
:100E600008B5024B186EFFF774FF08BDAC9AFF1F60
:100E700008B5024BD86DFFF76CFF08BDAC9AFF1F99
:100E800008B5024B986DFFF764FF08BDAC9AFF1FD1
:100E900008B5024B586DFFF75CFF08BDAC9AFF1F09
:100EA00008B5024B186DFFF754FF08BDAC9AFF1F41
:100EB00008B5024BD86CFFF74CFF08BDAC9AFF1F7A
:100EC00008B5024B986CFFF744FF08BDAC9AFF1FB2
:100ED00008B5024B586CFFF73CFF08BDAC9AFF1FEA
:100EE00008B5024B186CFFF734FF08BDAC9AFF1F22
:100EF00008B5024BD86BFFF72CFF08BDAC9AFF1F5B
:100F000008B5024B986BFFF724FF08BDAC9AFF1F92
:100F100008B5024B586BFFF71CFF08BDAC9AFF1FCA
:100F200008B5024B186BFFF714FF08BDAC9AFF1F02
:100F300008B5024BD86AFFF70CFF08BDAC9AFF1F3B
:100F400008B5024B986AFFF704FF08BDAC9AFF1F73
:100F500008B5024B586AFFF7FCFE08BDAC9AFF1FAC
:100F600008B5024B186AFFF7F4FE08BDAC9AFF1FE4
:100F700008B5024BD869FFF7ECFE08BDAC9AFF1F1D
:100F800008B5024B9869FFF7E4FE08BDAC9AFF1F55
:100F900008B5024B5869FFF7DCFE08BDAC9AFF1F8D
:100FA00008B5024B1869FFF7D4FE08BDAC9AFF1FC5
:100FB00008B5024BD868FFF7CCFE08BDAC9AFF1FFE
:100FC00008B5024B9868FFF7C4FE08BDAC9AFF1F36
:100FD00008B5024B5868FFF7BCFE08BDAC9AFF1F6E
:100FE00008B5024B1868FFF7B4FE08BDAC9AFF1FA6
:100FF00008B5212800F2D580DFE810F02200270094
:101000002C00310036003C00410046004B005000EF
:1010100055005A005F00640069006E00730078009C
:101020007D00820087008C00910096009B00A0004C
:10103000A500AA00AF00B400B900BE00C300CD00F7
:10104000594B002019605949A0E0574B01205960C5
:1010500057499BE0544B02209960564996E0524B09
:101060000320D960544991E04F4B04201961024696
:1010700052498CE04C4B05205961514986E04A4B5E
:10108000062099614F4981E0474B0720D9614E49BD
:101090007CE0454B082019624C4977E0424B09201F
:1010A00059624B4972E0404B0A20996249496DE010
:1010B0003D4B0B20D962484968E03B4B0C2019633B
:1010C000464963E0384B0D20596345495EE0364B95
:1010D0000E209963434959E0334B0F20D9634249AD
:1010E00054E0314B1020196440494FE02E4B112041
:1010F00059643F494AE02C4B122099643D4945E030
:10110000294B1320D9643C4940E0274B1420196532
:101110003A493BE0244B15205965394936E0224BCA
:1011200016209965374931E01F4B1720D96536499C
:101130002CE01D4B18201966344927E01A4B192062
:101140005966334922E0184B1A20996631491DE04F
:10115000154B1B20D966304918E0134B1C2019672A
:101160002E4913E0104B1D2059672D490EE00E4B00
:101170001E2099672B4909E00B4B1F20D9672A498C
:1011800004E0094BC3F8801028492020042201F014
:1011900077F9012008BD044B2120C3F884102449AD
:1011A000F4E7002008BD00BFAC9AFF1FE10F00006C
:1011B000D10F0000C10F0000B10F0000A10F00000F
:1011C000910F0000810F0000710F0000610F0000FF
:1011D000510F0000410F0000310F0000210F0000EF
:1011E000110F0000010F0000F10E0000E10E0000E1
:1011F000D10E0000C10E0000B10E0000A10E0000D3
:10120000910E0000810E0000710E0000610E0000C2
:10121000510E0000410E0000310E0000210E0000B2
:10122000110E0000010E0000F10D0000DD0D0000A8
:10123000C90D000070B5044615460E460846022149
:1012400001F0ECF82846022101F0E8F8174A52F8BC
:10125000363003F5007121600121217252F83520EA
:10126000617202F500700021E16060604BF6803130
:1012700001397FF4FDAF93F8003292F8002203F0B9
:101280000103D20744BF43F00203DBB2A37221463D
:101290003046FFF7ADFE214620742846FFF7A8FE32
:1012A000237C18442074204670BD00BF847D00005C
:1012B00070B5254B254D86B0D3E9000103F0ACFE97
:1012C000234B0446D3E9000103F0A6FE0023224687
:1012D0002049009002A804F093FD02986FF02C04BE
:1012E0002D28A8BF2D20A042B8BF204603F09EFFA6
:1012F0000646286803F09AFF31460246164804F075
:101300002CFE03F061FE0146284604F001FD03981F
:101310002D28A8BF2D20A042B8BF204603F086FF8D
:101320000E4C0546206803F081FF294602460C4812
:1013300004F013FE03F048FE0146204606B0BDE867
:10134000704004F0E5BC00BF6095FF1FC08AFF1F1E
:101350001894FF1F088BFF1FA894FF1FDC8AFF1F34
:101360001895FF1F044900220023C1E90023034907
:10137000C1E90023704700BF6095FF1F1894FF1F4D
:1013800030B51148114D124C85B0FFF70FFD0146E5
:10139000284604F081FC0F48FFF708FD014620466F
:1013A00004F07AFC01A82A6823680B4904F080FD48
:1013B0000A49019B4B6000238B600948039BCB606B
:1013C000FFF7AAFC05B030BD688BFF1FC08AFF1F66
:1013D000DC8AFF1FD894FF1F088BFF1FA495FF1FF7
:1013E0004895FF1F1FB5094B0193002302930393F8
:1013F00003680A211B6801AA04469847044B1B682E
:101400000093009BE36004B010BD00BFC0790000F2
:10141000B495FF1FF0B587B02C4B009300222C4BE6
:10142000ADF804200446029303930493059200F15F
:1014300014060546D5F81838DBB158689A68ADF837
:1014400004201A68036802929B689847D5F81838F8
:10145000039058680368DB6898474FF480632268FC
:101460000593D5F8183804901768196920466A461C
:10147000B8470435B542DDD12546D5F82C08E0B192
:101480004368ADF804308368029303689B6898470B
:101490000390D5F82C080368DB6898474FF4806305
:1014A00004900593D5F82C0823681F6803685B68CF
:1014B00098476A4601462046B8470435B542DCD114
:1014C000012384F8543807B0F0BD00BFD87900007C
:1014D000677D0000F0B587B01C4D1D4B03930023C2
:1014E000049305932B680093009EC368044603A8E9
:1014F000F61AFEF7CBFF4FF47A73049F0599B6FBFB
:10150000F3F2174403FB1266124A049702FB061615
:101510002968019101980596B0FBF3F103FB1103D3
:101520006FEA010E0C4902FB13127744164427613F
:10153000666104F1100004F1140104F023FC2B682F
:101540000293029BC4F85C3807B0F0BDB495FF1F4E
:10155000C079000040420F0000CA9A3B73B5794E33
:1015600033680093009DD0F85C3842F6F822EB1AFD
:10157000934284BF002380F85438D0F840380446A2
:1015800033B1D0F860389D4202D90023C4F8403806
:1015900060680368DB6898470028C0F2C180D4F80F
:1015A0005028D4F840380244072BC4F850280CD1F6
:1015B000D4F84C385A1C2344C4F84C281876D4F874
:1015C0004438013BC4F844385EE0A3B9FF2807D192
:1015D0000123C4F8403805F11403C4F86038D7E794
:1015E00032680192019A521B052AD1D984F85438E5
:1015F0006FF00100A4E0012B0ED1FE2801D10223DF
:10160000C4E70023C4F8403894F85438002BBFD105
:101610002046FFF7E7FEBBE7022B06D10023C4F804
:101620004C38C4F8440803231CE0032B07D1D4F83A
:10163000443803EB0020C4F844080423A6E7042B35
:101640000BD1414B1340002B03DA013B63F0FF0346
:101650000133FF2B99D1052398E7052B07D1C4F857
:1016600048080623C4F84038C4F8500890E7062B11
:101670000ED1D4F8483803EB00200723C4F84038D3
:10168000D4F84438C4F84808002B81D108237DE7FA
:10169000082B7FF47DAF0023C4F840382A4B134059
:1016A000002B03DA013B63F0FF030133FF2B7FF4D0
:1016B0006FAFD4F8483863B92046FFF793FE204651
:1016C000FFF7A8FEC4F85858C4F85C584FF0FF3034
:1016D00036E00A2B05D1204604F11801FFF7FAFE87
:1016E00056E7062B09D104F6680004F11801FFF74C
:1016F00077FA012384F864384AE70B2B03D10023DF
:1017000084F8543844E704EB8303D3F89C0600289C
:101710003FF43EAF036804F118011B68984737E7B0
:1017200094F8540860B1D4F8583840F6C412EB1A53
:10173000934204D92046FFF755FEC4F858580020BC
:1017400002B070BDB495FF1FFF0000801FB5064BAF
:10175000019303688DF8081003921B68072101AA02
:10176000984705B05DF804FBF079000063292DE986
:10177000F04104460D4603DD90F85468002E48D031
:10178000136810461B6804F21F419847FF2283B27A
:1017900084F81824FE22C0B284F819241A0A84F8A6
:1017A0001B240244D24384F81D5445F3072584F8D2
:1017B0001C2484F81A0484F81E5405220021981D64
:1017C000904205DBA018013290F818040144F6E7B6
:1017D00003F108070733BFB214FA83F3C943B7F51F
:1017E000806F83F818140DD804F583683E460025F1
:1017F000BD420EDA606818F8051003681B68984748
:101800000135F5E720460321034AFFF79FFF4FF01C
:10181000FF363046BDE8F081967C000010B53E4BA7
:1018200019683E4A1278002A70D03D4A1278920711
:101830006CD03C4A18681268821A182A66D93A4A4B
:1018400000234FF46141C2F84038C2F84438C2F86E
:101850004C38C2F848389160144604EB8302D2F841
:101860002C2842B93049314A01EB83016433C1F875
:101870002C28536002E00133052BEED1002304EB4A
:101880008302D2F82C2842B92749294A01EB830167
:101890006433C1F82C28536002E00133052BEED1EC
:1018A000002304EB83022049D2F8182842B9214AC8
:1018B00003F20620693341F820209360D16002E0F2
:1018C0000133052BEDD1002304EB83021649D2F836
:1018D000182842B9184A03F20620693341F820203B
:1018E0009360D16002E00133052BEDD194F85438B8
:1018F0000D4813B9FFF732FEF8E701210F4AFFF751
:1019000025FF0120BDE8104000F00EBF1A68521AF2
:10191000B2F57A7F85D992E7B495FF1F9796FF1F9E
:10192000BC96FF1F4C9BFF1F888BFF1F6895FF1FF6
:10193000588AFF1F4895FF1F9095FF1FCF7C00001E
:1019400073B55D485D4DFFF7F1F95D48FFF7EEF9BE
:101950005C48FFF7EBF91521142201235A4804F0E3
:1019600083F9062305210822584804F07DF90F2148
:101970000E225748FFF75EFC0C210B225548FFF75B
:1019800059FC082300932D21534A544B54484FF0DF
:101990007C5404F005FA5349534A544B0095019482
:1019A000534804F0D1FA4F494F4A504B00950194E7
:1019B000504804F0C9FA504B504A1A60504A5A60D5
:1019C0004FF461429A604F49C3F86818002283F8C7
:1019D000542883F86C28C3F8742883F87828C3F84F
:1019E000802883F88428C3F88C28C3F81828C3F803
:1019F0001C28C3F82028C3F82428C3F82828C3F8D3
:101A00002C28C3F83028C3F83428C3F83828C3F882
:101A10003C28981801320021B2F5806F0176F8D188
:101A20000A46991801320026B2F5806F81F81864D1
:101A3000F7D1354C354B2360354B236104F1180049
:101A4000FFF774F904F13800FFF770F9314BA36523
:101A5000314BA360314B324D32491960012232497A
:101A6000E265D960002431491A622846304AD961BA
:101A70009A601C615C619C612E4B40F8083BFFF74B
:101A800055F905F12800FFF751F905F14800FFF776
:101A90004DF9294B294A1E6183E82400284B294A25
:101AA0001A602949294A5C609C60DC6082E80A006F
:101AB000166102B070BD00BFF094FF1F9A99993E65
:101AC000488BFF1F2094FF1FC08AFF1FDC8AFF1F67
:101AD000688BFF1FD894FF1F9A99193EF628DC3EA9
:101AE000088BFF1F00007FC300007F439A99193FB6
:101AF000A894FF1F1895FF1F888BFF1F987A00007E
:101B00009C96FF1F087A0000588AFF1FB07A0000D9
:101B1000507A0000D5080000077D00006895FF1F7F
:101B20004094FF1FC87A0000687A0000F10C0000A2
:101B30000F7D0000807A00009095FF1F137D00004C
:101B4000A495FF1F207A00001B7D00004895FF1F11
:101B500038B5094C4000012584F83B00204684F844
:101B60005E5084F85D5003F09CFD20462946BDE898
:101B7000384003F0EDBE00BF409AFF1F2DE9F0474B
:101B8000354C364D00233221814653202B70FFF710
:101B9000DFFF532106222046FFF7D6F894F83910CC
:101BA00094F838302A789942DFF8BC800DD08B4207
:101BB00004D25E1C2344187EF3B201E04FF0FF30E4
:101BC00008F802000132D2B2EDE798F8003098F838
:101BD00001002A7043EA002084F8381000B203F0B4
:101BE00025FB1F49DFF884A003F028FC03F098F9D7
:101BF00098F80230064698F803000F4643EA0020A2
:101C0000CAE9026700B203F011FB154903F016FCA4
:101C100003F086F998F80430044698F805000D465C
:101C200043EA0020CAE9044500B203F0FFFA0C4978
:101C300003F004FC03F074F902460B460949CAE9B3
:101C400006234846C9F80010C9E90267C9E90445F6
:101C5000C9E90623BDE8F087409AFF1F7D8BFF1F6F
:101C6000CDCCCC41387A0000008BFF1FF094FF1FD1
:101C70002DE9F047354C364D00231D218146682063
:101C80002B70FFF765FF682106222046FFF75CF8FE
:101C900094F8391094F838302A789942DFF8BC80EB
:101CA0000DD08B4204D25E1C2344187EF3B201E0B7
:101CB0004FF0FF3008F802000132D2B2EDE798F899
:101CC000013098F800002A7043EA002084F83810A8
:101CD00000B203F0ABFA1F49DFF884A003F0FAFA70
:101CE00003F01EF998F80330064698F802000F46F4
:101CF00043EA0020CAE9026700B203F097FA1549E7
:101D000003F0E8FA03F00CF998F80530044698F867
:101D100004000D4643EA0020CAE9044500B203F07E
:101D200085FA0C4903F0D6FA03F0FAF802460B469E
:101D30000949CAE906234846C9F80010C9E90267FB
:101D4000C9E90445C9E90623BDE8F087409AFF1FA9
:101D50001095FF1FD9239F3A387A00007E8BFF1F12
:101D6000488BFF1F70B50B4C40001646012584F8C8
:101D70003B00204684F85E5084F85D5003F091FCEF
:101D80003146204603F08DFC20462946BDE87040D0
:101D900003F0DEBD409AFF1F08B5012120221E205E
:101DA000FFF7E0FF052000F0BFFC002118221E20F5
:101DB000FFF7D8FF052000F0B7FC022101221E200A
:101DC000FFF7D0FF052000F0AFFC012008BDFFFFAA
:101DD000F8B5344C344D0023032106461E202B70E9
:101DE000FFF7B6FE1E2106222046FEF7ADFF94F84F
:101DF000391094F838302A78204699422B4C0ED06E
:101E00008B4206D203F1010E03441F7E5FFA8EF36C
:101E100001E04FF0FF37A7540132D2B2EDE763780B
:101E200080F8381094F900002A7043EA002003F08B
:101E3000FDF91F491F4D03F04DFA03F071F8637966
:101E4000C5E9020194F9040043EA002003F0EEF929
:101E5000174903F03FFA03F063F8E378C5E904019A
:101E600094F9020043EA002003F0E0F9104903F07E
:101E700031FA03F055F80122C5E906011E200221BE
:101E8000FFF770FF0C4B3360D5E90223C6E902234C
:101E9000D5E90423C6E90423D5E906233046C6E97B
:101EA0000623F8BD409AFF1F7C8BFF1FB88AFF1FD7
:101EB0001F856B3F2094FF1F387A000010B588B053
:101EC0006846FFF75BFEDDE90223174CC4E90423F3
:101ED000DDE90423C4E90623DDE906236846C4E9F5
:101EE0000823FFF7C5FEDDE90223C4E90C23DDE981
:101EF0000423C4E90E23DDE906236846C4E9102360
:101F0000FFF766FFDDE90223C4E91423DDE90423BA
:101F1000C4E91623DDE9062321460448C4E9182351
:101F2000FEF7FAFE08B010BD4094FF1F9095FF1F0A
:101F300070B5144C430001250646204684F83B301A
:101F400084F85E5084F85D5003F0ABFB29462046D0
:101F500003F0FEFC142000F0E7FB2A462046314641
:101F6000FEF7F2FE94F8383094F839209A4205D9F9
:101F70005A1984F838201C44207E01E04FF0FF30CD
:101F8000C0B270BD409AFF1F08B553200021FFF773
:101F9000CFFFE52819D12D2108225320FFF7E2FEBB
:101FA000052000F0C1FB312109225320FFF7DAFEA2
:101FB000052000F0B9FB2C2109225320FFF7D2FEA7
:101FC000052000F0B1FB012008BD002008BD10B5C0
:101FD00068200021FFF7ACFF00F07E04682C21D1BF
:101FE00020463E218022FFF7BDFE052000F09CFB2D
:101FF000204616211B22FFF7B5FE052000F094FBBA
:10200000204615211322FFF7ADFE052000F08CFBC2
:1020100020463E210322FFF7A5FE0A2000F084FBA4
:10202000012010BD002010BD38B50A4803F082FB26
:10203000052000F079FBFFF7A7FF0446FFF7C7FF75
:102040000546FFF7A9FE1CB1002D08BF002038BDD2
:10205000204638BD409AFF1F70B5274C274D236896
:1020600088B00193019A2B68D31A632B05D9FFF727
:102070001FF923680293029B2B6023680393204B74
:10208000039A1B68D31AB3F5C87F01D3FFF76AF927
:1020900023681C4D0493049A2B68D31A632B06D92A
:1020A000FFF76EF9144B1B680593059B2B602368A3
:1020B0000693154B06991A688A1A632A1E4616D982
:1020C000124D2B786BB9FFF7AFFF287018B110488D
:1020D000104A012102E00E480F4A0421FFF736FBA7
:1020E00001E0FFF7EBFE23680793079B3360084886
:1020F000FFF734FA08B070BDB495FF1FFC8AFF1FCC
:10210000F88AFF1F8C95FF1F848BFF1FBE8AFF1F5D
:10211000888BFF1F237D0000337D000008B5FFF78B
:102120007DFBFFF799FF01F0FFF8FAE7844641EAEB
:10213000000313F003036DD1403A41D351F8043B3F
:1021400040F8043B51F8043B40F8043B51F8043B91
:1021500040F8043B51F8043B40F8043B51F8043B81
:1021600040F8043B51F8043B40F8043B51F8043B71
:1021700040F8043B51F8043B40F8043B51F8043B61
:1021800040F8043B51F8043B40F8043B51F8043B51
:1021900040F8043B51F8043B40F8043B51F8043B41
:1021A00040F8043B51F8043B40F8043B51F8043B31
:1021B00040F8043B51F8043B40F8043B403ABDD2A0
:1021C000303211D351F8043B40F8043B51F8043B42
:1021D00040F8043B51F8043B40F8043B51F8043B01
:1021E00040F8043B103AEDD20C3205D351F8043BD1
:1021F00040F8043B043AF9D2043208D0D2071CBF9D
:1022000011F8013B00F8013B01D30B8803806046C5
:10221000704700BF082A13D38B078DD010F003033B
:102220008AD0C3F10403D21ADB071CBF11F8013BAB
:1022300000F8013B80D331F8023B20F8023B7BE7FA
:10224000043AD9D3013A11F8013B00F8013BF9D225
:102250000B7803704B7843708B78837060467047BF
:10226000024B1A6801321A60704700BFB495FF1F15
:1022700008B50B4C2368580301D500F087FB236891
:10228000590501D501F098FD23681A0501D502F022
:1022900045F92368DB04ECD502F002FCE9E700BF56
:1022A0003480044008B5FFF7E3FFFFFF014B102225
:1022B0001A807047002005407047FFFF094A08B5A3
:1022C000136868B169461844A1F58051884206D365
:1022D00005F05CFA0C2303604FF0FF3008BD10607E
:1022E000184608BD4088FF1FEFF313839BB9EFF337
:1022F000108098B9EFF3058323B10F2B04D9084A56
:10230000985C01E04FF48070EFF311833BB183429E
:1023100038BF184670474FF0FF3070471846704777
:10232000F0E300E07047FFFF00F14040A0F592238A
:102330007C2B14D9A0F594237C2B12D9A0F59623DD
:102340007C2B10D9A0F598237C2B06D9A0F59A20D8
:102350007D28064828BF002070470548704705487B
:102360007047054870470548704700BF1C89FF1F2C
:10237000FC88FF1F4488FF1F7C88FF1FCC88FF1F3D
:102380000C4B03EBC00010B544682046FFF7CCFFB0
:1023900070B172B6236823F0877323F4803343F05F
:1023A00080732360C4F38404034B40F8243062B686
:1023B00010BD00BF847D000025230000044B0549AB
:1023C00000221A600A60044A106010221A607047E6
:1023D00014D0034004D0034000D00340212810B59E
:1023E00018D80D4A52F8303093F880423CB101229F
:1023F00011B183F8802010BD83F8002110BD02EBDD
:10240000C00043681A6811B142F0030201E022F0F3
:1024100002021A6010BD00BF847D0000212810B5A3
:102420002BD8164A02EBC00301295B68144601D081
:1024300004290FD154F83020012082F880024FF493
:10244000A2721A601A6804290CBF42F0200222F01E
:10245000200211E052F83000002280F8802211B9E9
:102460004FF4807208E0022902D140F2031203E027
:10247000032908BF4FF481721A6010BD847D0000EB
:10248000212870B50D463CD8042A3AD8DFE802F07E
:102490000709050B03000B2306E00A2304E00823C9
:1024A00002E00C2300E009231E04164B03EBC003DB
:1024B0005C68216811F4E06101D1FFF7AFFF124BB6
:1024C000124AC3F89C21124AC3F8A021114AC3F84A
:1024D000A421114AC3F8A8212046104AC3F8AC2110
:1024E000FFF722FF68B172B6226822F470222260E0
:1024F000C4F3840342F08072164340F823502660F0
:1025000062B670BD847D00000082FF1F1188FF1F2E
:10251000E587FF1FB987FF1F8D87FF1F6187FF1F9B
:10252000282838B5604A04460B4611D112780B2A88
:1025300004D8C2F10C0201FA02F304E00C2A1CBF19
:102540000C3A41FA02F31846BDE8384001F006B9EA
:1025500011780125002B05FA01F2D8BF002102DD18
:10256000934205D32946FFF739FF2046294697E0D5
:102570000338C2B2012A01D84C4A06E0202C01D00F
:10258000192C01D14A4A00E04A4A126802FB033280
:10259000CA401D287BD8DFE800F0575F4E337A7AB7
:1025A000212A7A7A7A7A7A7A7A7A7A3C450F187A74
:1025B000707A7A7A7A7A7A673F4B1A6003F59733A2
:1025C00040F2444203F5FA735FE03C4B1A6003F5B6
:1025D000973340F2444203F5F87356E0384B1A60E3
:1025E00003F5973340F2444203F5F6734DE0354B63
:1025F0001A6003F5973340F2444203F5F47344E064
:10260000314B1A6003F59F3340F2444203F5F073F7
:102610003BE02E4B1A6003F59F3340F2444203F532
:10262000EE7332E02A4B1A6003F59F3340F24442C6
:1026300003F5EC7329E0274B1A6003F59F3340F252
:10264000444203F5EA7320E0234B1A6003F580331C
:102650004FF45172203318E0204B1A6003F5803399
:102660004FF451721C3310E01D4B1A60A3F5DB23AD
:102670004FF45172A3F5F96307E01A4B1A60A3F502
:10268000DB234FF45172A3F2CC731A6038BD7F2B59
:102690002046D4BF00210121FFF7A0FE20460121E2
:1026A000BDE83840FFF7BABE2489FF1F08900340F9
:1026B00008800B40088003401080034018800340CE
:1026C000208003402880034030800340388003404E
:1026D000408003404880034010900340189003401E
:1026E00010800B4018800B4072B60C4B0C491A68D6
:1026F0000C4B1B68096862B6490102D5322A88BFB3
:102700000133C2F58C32482102F23F12B2FBF1F2E2
:102710004FF47A7000FB0320704700BF18E000E020
:1027200004ED00E0B495FF1F38B50446FFF7DCFF69
:10273000054624B938BD013C0AD005F57A75FFF786
:10274000D3FF401BB0F57A7FF5D200F0EDFDF6E740
:1027500038BDFFFF214B4FF4000210B51A604FF057
:1027600080721A604FF000721A604FF080621A6037
:102770004FF000621A601A4B1A4A1B4C002048F6B0
:10278000FF7118605960282313609360136193618F
:1027900013629362136393630922226004F58054E9
:1027A000043420606160A360236144F8042C04F5C4
:1027B000FE2420600D4801600D490B608B600D4BBD
:1027C0001A6000F06FFF3220FFF7AEFF00F0DCFB75
:1027D0004FF4AF70BDE81040FFF7A6BF08E100E07E
:1027E000048003400C8003400080034008800B40BD
:1027F0000C800B4000800B40F0B50C4B0C4C1A7851
:1028000042F0020504EBC50682F00102706009483F
:102810001A700678002E0CBF8827C82786F001069C
:1028200047EA0141067044F83510F0BD2096FF1FBD
:102830000080FF1F9896FF1F431E032B10B510D872
:1028400072B6094A52F8230048B1416842F8231091
:10285000064A018832F81340611A22F8131062B652
:1028600010BD002010BD00BF1096FF1F3C9BFF1F36
:10287000013803280AD872B6054B53F820300020DF
:1028800013B101305B68FBE762B670470020704708
:102890006496FF1F10B572B60123174A1A4412F846
:1028A000012C12071CD59900144A52F831402CB95A
:1028B00002EB431308305860114B09E041F001016D
:1028C00052F8314064B902EBC103083058600D4B37
:1028D00042F831300C4B1A78013A1A7062B610BDCA
:1028E0000133052BD9D162B6074B00221A70BDE81F
:1028F000104000F0C7BB00BFE07F00000080FF1F5A
:1029000088004000C80040008E96FF1F431E032B26
:1029100030B532D8194A400140F01000104472B668
:10292000174CE25C032A09D8DFE802F0160218050A
:102930000830022213E00830042210E01148124A45
:1029400050F8234014B940F8231002E052F8230055
:10295000416042F823100FE0032200E00522E25418
:1029600010F0080F01F108030A8843600CBF8823A8
:10297000C82343EA0243036062B630BD0080FF1FF4
:10298000CC95FF1F6496FF1F7496FF1F2DE9F84F2B
:10299000AB4F3C78E4B214F0040F3D4619D0A94B7C
:1029A0001B78A3B1A84A117801F0FF0321B1013BC4
:1029B000DBB2137003B900BEA44A117801F0FF0323
:1029C00029B1013BDBB213700BB900F089FC042381
:1029D0003B7004F0080303F0FF02002B00F0678255
:1029E0009B4B9C4C1A78D2B215094FEA920840F0E2
:1029F000E48104EBC803596854F83830C3F3830307
:102A0000013B0C2B00F2D681DFE813F09501950114
:102A1000D401D401D401D401D401D401B001D40132
:102A2000D401D4010D008C4D0A684B688B486B6053
:102A300001218B4B44F838302A60DFF85082017056
:102A400092B240F2816000238242C8F800302361D4
:102A5000A36117D8B2F5D06F80F01E81B2F5817FE7
:102A600000F0CF8006D8802A00F0BA80822A00F0D9
:102A7000BB8031E140F202339A4200F0D180B2F5DE
:102A8000A06F1CE042F22100824200F051810ED87A
:102A9000B2F5086F00F09E80B2F5106F40F01C8117
:102AA000684B6C4EAA781A7006F180090AE042F26F
:102AB00021218A4200F0088142F221339A4200F03B
:102AC0000F8109E1336A1B0603D5706A083800F0EC
:102AD000D9FA08364E45F5D10026B146DFF8B0A147
:102AE00056F80A0028B1D0F804B000F0CBFA5846E6
:102AF000F8E74AF806005B4BDFF898A1F05056F86B
:102B00000A0028B1D0F804B000F0BCFA5846F8E743
:102B1000554B4AF80600F050544B23F81900544B1B
:102B200019F80320023A032A08D8DFE802F0020469
:102B30000204002200E0012203F8092009F1010942
:102B4000B9F1040F06F10406C8D14A4B00221A70ED
:102B500001269A46484A494B3244334412F8012C24
:102B60009B0012F0080F1A704FEA860925D000F07A
:102B70006BFA38B104EB461308305860404B44F808
:102B8000393006E09AF8003044F8390001338AF809
:102B9000003000F059FA49F0010338B104EBC302E8
:102BA000083050602E4A44F8332006E044F83300E1
:102BB0009AF8003001338AF8003049F002020136F9
:102BC00049F003090023052E44F8323044F8393027
:102BD000C0D186E01B4B2B4C1B7823700B4683E047
:102BE000284C237063707EE0AA88042A74D8254C90
:102BF000920023706370244B9B5C9E0773D52170F9
:102C000071E0AA8802F07F02042A65DC6B88002B41
:102C100062D191001C4A0A44117821F0020159E066
:102C2000AA8802F07F02042A56DC6B88002B53D15D
:102C30009100154A0A44117841F002014AE000BFB0
:102C4000802007409796FF1F2196FF1FAC96FF1F1D
:102C5000902007400080FF1F8496FF1F9896FF1F5B
:102C6000C8004000BC95FF1F7496FF1F3C9BFF1FD0
:102C7000CC95FF1F8E96FF1FE07F000030C801102B
:102C8000880040008F96FF1FC0200740B895FF1FA7
:102C90001096FF1F6496FF1F6A88A9889F4B53F800
:102CA000084CA3F10C00BCB133F80C6C964209D16E
:102CB00033F80A6C8E4205D1120A032A0CBF23781E
:102CC000038911E00C33EAE7954A1168954A1160CF
:102CD000A978954A117004E0944B0F221A7027E0EE
:102CE00000231C4600E00223EE88B34238BF1E4694
:102CF000402E34BF3546402520462946FFF77CFD4F
:102D0000761B2C4403D1402D12D1354603E0402ED2
:102D100034BF3546402520462946FFF76DFD761B1A
:102D20002C4401D1402D03D1814AC8F800401680BF
:102D30000122804B3DE0804B1A8842F221039A42E7
:102D400010D100237D4AC85C98540133072BF9D178
:102D50001368862B02D17A4B0F221A70002001468D
:102D6000FFF74AFD774B44F8383023E0764E35685C
:102D7000B5B1DFF8BC81B8F80090B9F1400F34BFAD
:102D80004C46402428462146FFF736FDC4EB090394
:102D90009BB2A8F800300BB9402C00D12B1933603E
:102DA000654B1A88B2F5A06F04D100225A709A7848
:102DB000664B1A7001225F4B6CE004EBC806013DC4
:102DC000736802F00802A3F10800EDB202F0FF01FF
:102DD000002A36D000F056F95D485E4B50F82520A9
:102DE000EAB1516840F8251002F108017160595D9F
:102DF00003290BD8DFE801F002040608032104E0F0
:102E0000022102E0052100E00421595516F0080FC7
:102E100012880CBF8823C82343EA024342E05A5D6C
:102E2000032A07D8DFE802F040400204002206E04F
:102E3000012204E016F0080F0CBF022203225A55AB
:102E400032E054F83820120C23F8082C22B3DFF8B3
:102E500034E123F8061C43F8041C5EF825303E4993
:102E600013B94EF8250002E051F8253058603B4B6D
:102E700041F8250033F815100A4423F8152000F016
:102E8000E3F810B10830706006E0354B44F83800C4
:102E90001A7801321A7007E02A4B324A16F0080FEE
:102EA00008BF134644F8383008233B7070E5E0074C
:102EB0001FD520492B482C4C02230B702B4B1A702A
:102EC0002B4B186098602B48D8601A619A615C603F
:102ED000164B0D2018702848FF2303702B700274C6
:102EE000264A1370264B9F221A7001230B70BDE8EF
:102EF000F88F210604D50D4B0D221A7080232B70FC
:102F0000A20705D51C4B1A78D2B21A7002232B7077
:102F1000E30644BF10232B70BDE8F88FF07F00005C
:102F2000B495FF1F4C9BFF1FBC96FF1FC02007409E
:102F30008C96FF1F942007408496FF1F449BFF1F21
:102F40002196FF1FC8004000B895FF1F982007403A
:102F50006496FF1FCC95FF1FBC95FF1F3C9BFF1F76
:102F60008E96FF1F88004000D095FF1F2096FF1F00
:102F70000080FF1F2496FF1F882007408C200740F9
:102F8000842007401096FF1F08B501F00FFE0022B5
:102F90001A4B0021D15098180832882A4160F7D185
:102FA000174A106840F48020106002F52832683219
:102FB000C3F307201070C3F307401B0E1075137680
:102FC000FF2302F81C3C02F8143C02F88C3C01235D
:102FD00002F8083C82F8641002F8183C094B702291
:102FE0006FF450711A700B444FF400721A6003F1C1
:102FF000C04303F5C82310221A7008BD0080FF1FCC
:103000003480044049E400E000F0A0B800F05CB86F
:1030100000F080B800F036B900F0A6B8084600F01D
:1030200025B90846114600F0B7B87047044B002296
:103030001A714FF47A711A73024A99601A607047D4
:103040009C96FF1FA07E000072B60C4A1168B1FA70
:1030500081F30B2B02D962B6002070474FF000407D
:10306000D84021EA0001116062B605494822534365
:10307000C8180022CA504260704700BF2889FF1F4D
:103080000084FF1F0C4B4822C31AB3FBF2F30B2B37
:1030900011D80A4A127822B1094A12780AB1FFF708
:1030A000F9BB72B6074A4FF0004121FA03F31168E9
:1030B0001943116062B670470084FF1F8E96FF1F90
:1030C0009796FF1F2889FF1F10B5104C23686BB11E
:1030D00020684288531C0244147A0288934212D317
:1030E000FFF7D0FF094B00221A600DE0084B1B7858
:1030F00013B94FF0FF3010BD0320FFF79DFB206098
:103100000028E5D1F5E74380204610BDB896FF1FA3
:103110009796FF1F10B50B4C236813B123686BB94A
:1031200002E0094B1B7813B94FF0FF3010BD0320AC
:10313000FFF782FB20600028F0D1F5E75A8813449E
:10314000187A10BDB896FF1F9796FF1F044B9888FA
:10315000044B1B681BB11A885B88D31A184470474C
:103160003C9BFF1FB896FF1F10B5094B1B786BB136
:10317000084C206818B1FFF785FF00232360032067
:10318000FFF75AFB10B1FFF77DFFF8E710BD00BF56
:103190009796FF1FB896FF1F2DE9F0472E4E01238B
:1031A0000746894633700C46002C50D02B4D2B68B7
:1031B000AA462BBB48F60148294B1B7803F0FF02B7
:1031C0000BB9327015E00420FFF752FB072808D82E
:1031D00001233370FFF738FFCAF8000080B91E4B97
:1031E0001870B8F101081F4B01D01A782AB10122DA
:1031F0001A704FF0FF30BDE8F08700F095F8DBE77C
:10320000184B00221A702B685888C0F140018C427C
:1032100038BF214600F1080C08449C445880641AC9
:103220008A4204D0B85C0CF802000132F8E7174477
:103230005A883F2A07D940221A8019460420FFF7EE
:1032400065FB00232B60084B05221A70ACE7347035
:103250004846BDE8F08700BFAD96FF1FB096FF1F40
:103260009796FF1FB496FF1FAC96FF1F07B502ABE2
:10327000012103F8010D1846FFF78EFF03B05DF83A
:1032800004FBFFFF2DE9F041114B1B78F3B1114E08
:10329000114B3468114D01271F7098464CB100271F
:1032A00063882F70042023802146FFF72FFB3760AF
:1032B00009E0FFF7C9FE014620B104202C70FFF79A
:1032C00025FB00E02F70002388F80030BDE8F08176
:1032D0009796FF1FB096FF1FAD96FF1FAC96FF1F7E
:1032E00038B50E4B1B7803F0FF05ABB90C4C2168C9
:1032F00031B14B880B800420FFF708FB256038BDF7
:10330000FFF7A2FE014620B10420BDE83840FFF7D8
:10331000FDBA044B01221A7038BD00BFAD96FF1FE5
:10332000B096FF1FAC96FF1F10B50E4C2378BBB9AB
:1033300001232370FFF70AFF08B1FFF776FE00F0C4
:10334000C3FC08B100F08AF801F070F808B100F091
:103350000FF901F03FFB08B100F094F9002323704E
:1033600010BD00BFBD96FF1F08B50368C9B21B683A
:10337000984708BD08B50368C9B21B68984708BDDF
:1033800008B50368C9B21B68984708BD08B503684B
:10339000C9B21B68984708BD034800EB5100B0FB59
:1033A000F1F000F0F5B900BF0044950810B50648EB
:1033B00000EB51001446B0FBF1F000F0E9F92046B3
:1033C000BDE8104000F048BA0044950800F07EBA0D
:1033D000084600F0D1BA084600F020BB0846114666
:1033E00000F0E6BA08B5084600F03EFB003018BF12
:1033F000012008BD08B5084600F058FB003018BF92
:10340000012008BD00F060BC00F098BC00F06CBC6E
:1034100000F03EBC00F0ACBC00F044BC08B508466F
:1034200000F06AFB012008BD08B5084600F064FB07
:10343000012008BD10B508461446114600F0B8FB3F
:10344000204610BD38B508460D4604F0D5F90446AF
:103450002146284600F0ACFB204638BD7047FFFFF0
:10346000044B00221A714FF47A711A73024A996060
:103470001A607047C096FF1FC87E000008B5036839
:10348000C9B21B68984708BD08B50368C9B21B6874
:10349000984708BD08B50368C9B21B68984708BDBE
:1034A00008B50368C9B21B68984708BD034800EB1C
:1034B0005100B0FBF1F000F021BD00BF00449508C1
:1034C00010B5064800EB51001446B0FBF1F000F0D7
:1034D00015FD2046BDE8104000F074BD004495087D
:1034E00000F0AABD084600F0FFBD084600F04EBE41
:1034F0000846114600F014BE08B5084600F06EFEFE
:10350000003018BF012008BD08B5084600F088FE4D
:10351000003018BF012008BD00F088BF00F0C0BF18
:1035200000F094BF00F066BF00F0D4BF00F06CBFA5
:1035300008B5084600F092FE012008BD08B508460F
:1035400000F08CFE012008BD10B508461446114657
:1035500000F0E0FE204610BD38B508460D4604F0E8
:103560004BF904462146284600F0D4FE204638BDDB
:103570007047FFFF044B00221A714FF47A711A73DF
:10358000024A99601A607047D096FF1F287F00009A
:1035900008B50368C9B21B68984708BD08B5036839
:1035A000C9B21B68984708BD08B50368C9B21B6853
:1035B000984708BD08B50368C9B21B68984708BD9D
:1035C000034800EB5100B0FBF1F001F049B800BF37
:1035D00000A24A0410B5064800EB51001446B0FBA7
:1035E000F1F001F03DF82046BDE8104001F07AB856
:1035F00000A24A0401F0B0B8084601F0E1B808465C
:1036000001F022B90846114601F0F6B808B508469F
:1036100001F01CF9003018BF012008BD08B50846AC
:1036200001F036F9003018BF012008BD01F0D2B911
:1036300001F00ABA01F0DEB901F0B0B901F01EBA2A
:1036400001F0B6B908B5084601F040F9012008BDFF
:1036500008B5084601F03AF9012008BD10B5084642
:103660001446114601F08EF9204610BD38B50846C3
:103670000D4604F0C1F804462146284601F082F9BF
:10368000204638BD7047FFFF044B00221A714FF4EB
:103690007A711A73024A99601A607047E096FF1FA8
:1036A000887F000010B5204B2048214960221A7005
:1036B000E1225A701F4B204A1C78204B082C01D164
:1036C000012402E00A2C03D119240460132005E030
:1036D0000C2C0CBF15243D240460122008601460DB
:1036E0001860174B17491B78174A03B101230B6069
:1036F0001360164B164A1978164B012901D8802100
:103700000BE0042901D8842107E0082901D885218C
:1037100003E0102994BF86218721116019600E4BA8
:1037200001221A7010BD00BF0040074008B00340DE
:103730000CB003402C89FF1F08B00B400CB00B40AD
:10374000F196FF1F20B0034020B00B402D89FF1FD2
:1037500024B0034024B00B40F096FF1F084B1A68BA
:1037600042F480521A60074B1A78074B0AB1802244
:1037700000E0C0221A70054B80F30C0018807047DF
:103780002C800440F196FF1F21C00C4000C00C406B
:10379000234B1A6842F480621A60224A0023137095
:1037A000214A1370214A1370214A1370214A137061
:1037B000214B1B782BB1152B07D140F213321F4B35
:1037C00002E01F4B40F213321A601E4B1B78012B94
:1037D00005D0052B07D14FF451721B4B02E01B4B58
:1037E0004FF451721A601A4BC0F344321A70C0F38E
:1037F00047125A700221042200F01F0098729A703A
:10380000D9745A7588221A743C22DA70114B4022FE
:103810006FF44A711A700B444FF400521A607047EB
:1038200034800440FC97FF1FF996FF1F0498FF1F88
:10383000FD97FF1FF896FF1F7A97FF1F18C00440DF
:1038400040A004402E89FF1F1CC0044044A0044037
:1038500000A006402DE400E010B51A4A9378C1B2EA
:1038600001F0030403F0EC032343440748BF43F093
:103870001003937000F00F03042B124C03D1A379B3
:1038800043F04003A3715379C20603F0EF030D4ADE
:1038900048BF43F0100353719379840603F0EF039C
:1038A00048BF43F010039371937A020703F01F039C
:1038B000044A48BF43F020039372034B21F07F0179
:1038C000197010BD00A00640FE97FF1F08B51D4BE4
:1038D0001B685B0500D408BD1B4B1B7803F0FF027F
:1038E00013B1FFF721FDF7E7184B4FF400511960B2
:1038F000174BDA70174B1B782BB1152B07D140F201
:103900000312154B02E0154B40F203121A60144BE0
:103910001B7803F07F03012B05D0052B07D140F264
:103920000312104B02E0104B40F203121A600F4AD0
:10393000002313700E4A13700E4B1B680BB101224B
:103940001A7008BD34800440F896FF1F84E100E03F
:1039500000A006407A97FF1F18C0044040A0044012
:103960002E89FF1F1CC0044044A00440FC97FF1F89
:10397000F996FF1FF496FF1F38B50446094B1B78D4
:1039800003F0FF05002BF9D120460121FEF746FD8B
:1039900020462946FEF722FD034B53F83420034B03
:1039A0001A6038BDF896FF1F847D00000098FF1F45
:1039B00010B509B140F08000144A137898421446BB
:1039C00022D0134A126852051DD503F07F03012B44
:1039D00004D0052B05D100220E4B01E00E4B002236
:1039E0001A60002900F07F020CBF44236023012AE3
:1039F00005D0052A07D143F44073064A02E0064A7F
:103A000043F440731360207010BD00BF2E89FF1F68
:103A1000348004401CC0044044A004400E4A137883
:103A2000984218D00D490968490513D52BB1152BBB
:103A300005D10B4B0021196001E00A490B6028B148
:103A4000152807D140F21331054B02E0054B40F237
:103A500013311960107070477A97FF1F348004404B
:103A600018C0044040A004400D4A38B5146814F44E
:103A700080624FF0000410D021280A4D0AD80A4A6B
:103A8000012152F830302B60FEF7C8FC2B681C7007
:103A9000012038BD2C60204638BD104638BD00BF1F
:103AA00034800440F496FF1F847D00000E4B1B6899
:103AB00013F4806316D012280C4B03D140F202316C
:103AC0000B4A04E0142809D10A4A40F2023111607D
:103AD0005A7B42F001025A73012070475A7B02F070
:103AE000FE025A73002070473480044000A0064054
:103AF0000CA0044014C00440F8B5254B1B685A05BF
:103B0000064643D5234B1B680BB101221A70224B8A
:103B10001C780134402C1F4628BF00241F4D2B78F1
:103B2000A34227D1FEF7E0FB40281EDC1C4A137994
:103B30001B06F3D52B781B491B480133402B28BFAC
:103B40000023007831F8131089B240B192F806C012
:103B500001F480700CF0BF0C4CEA90009071104A98
:103B6000C9B2DBB2D1712B70D8E7FF28D6DDFFF7E1
:103B7000DBFBD3E70B4BB6B223F814600B4B0122EF
:103B80001A70074BE4B2BC223C70DA70F8BD00BF7B
:103B9000348004400098FF1F0498FF1FFD97FF1F0B
:103BA00000A00640FA96FF1FFE97FF1FF896FF1F22
:103BB0002F4B1B685A052DE9F04707468A4654D516
:103BC0002C4B1B680BB101221A703D4607EB0A0310
:103BD0009D4247D2DFF8B480274E98F8004096F80F
:103BE00000900134402C28BF00245FFA89F9A145D8
:103BF0002CD1224BBC22DA70FEF776FB40281EDC6B
:103C00001E4A13791B061ED533781D491D48013302
:103C1000402B28BF0023007831F8131089B240B13F
:103C200092F806C001F480700CF0BF0C4CEA9000D2
:103C30009071124AC9B2DBB2D171337003E0FF2830
:103C400001DDFFF771FB33784B45D5D00C4B15F8F0
:103C5000012B23F814200C4B0122E4B21A7088F8CF
:103C60000040B3E7054BBC22DA70BDE8F08700BF27
:103C7000348004400098FF1FFD97FF1F00A00640FE
:103C8000FA96FF1FFE97FF1FF896FF1F0498FF1F6D
:103C900008B5034B1B7813B1FFF746FBF9E708BDE6
:103CA000F896FF1F064A074B1B781078DBB2C0B2AC
:103CB00083422CBF3F3000F1FF30C01A704700BF75
:103CC000FD97FF1F0498FF1F054B1878054B1B78C5
:103CD000C0B2DBB2984238BF4030C01A704700BF54
:103CE000FC97FF1FF996FF1F10B5104B10491A786B
:103CF0000B78D2B2DBB29A4215D00133402B28BFE9
:103D000000230C48DCB230F813000C700A49096833
:103D100080B251B19A4238BF4032D31A1A2B04DC18
:103D200000230B7010BD4FF0FF3010BDFC97FF1F3C
:103D3000F996FF1F7C97FF1FF496FF1F094B1A7817
:103D4000094B1B78DBB29A4208D00133402B28BFC5
:103D50000023064A32F8130080B270474FF0FF305C
:103D6000704700BFFC97FF1FF996FF1F7C97FF1F4E
:103D70000C4B1B685B0514D50B4BDA7802F0CB02B9
:103D8000DA7040225A74DA7842F03402DA70074B63
:103D90001A78074BD2B21A70064B1B680BB100227F
:103DA0001A7070473480044000A00640F996FF1F47
:103DB000FC97FF1FF496FF1FF0B5454B1A7912F0E0
:103DC000300F3DD072B69A7D02F0FF0022B9DA7949
:103DD00040225A7462B633E062B63E4A3E493F4CD6
:103DE000137809782678DBB2C9B21546384A36B15D
:103DF0009479270603D5D47944F4807401E0D4790A
:103E0000E4B25A1C402A28BF00228A4204D0344B14
:103E1000A4B223F812401346421E12F0FF00E5D16F
:103E2000DAB22A702F4A126852B18B4236BFC1F102
:103E30004001C1EB03035B18272BC4BF01231370A0
:103E4000234BD978C9B20C062FD51B7918062CD56F
:103E5000254B264A21481D7813780678EDB2DBB24F
:103E60001446AB4219D00133194A402B107920482F
:103E700028BF002330F8130080B246B192F806C084
:103E800000F480770CF0BF0C4CEA97079771104A4A
:103E9000C0B2D071127D072AE3D9DBB223700C4B7C
:103EA0001A79120644BF7C22DA704B060ED5084BF5
:103EB0001A7912F0400F194608D00E4B00221A70E2
:103EC0000D4B1B6803B11A703C23CB70F0BD00BFD3
:103ED00000A00640FC97FF1FF996FF1FFE97FF1FEB
:103EE0007C97FF1FF496FF1F0498FF1FFD97FF1F8D
:103EF000FA96FF1FF896FF1F0098FF1F234B1A68C2
:103F000042F400621A60224A00231370214A13709F
:103F1000214A1370214A1370214A1370214B1B78D8
:103F2000092B05D01A2B07D140F213321E4B02E0A9
:103F30001E4B40F213321A601D4B1B780A2B05D022
:103F40001F2B07D14FF451721A4B02E01A4B4FF45A
:103F500051721A60194BC0F344321A70C0F3471201
:103F60005A7000F01F000422022198729A70D974CE
:103F70005A7588221A743C22DA70114B40221A704A
:103F8000A3F22B334FF400421A6070473480044090
:103F9000DE98FF1F0D98FF1FE898FF1FDF98FF1F97
:103FA0000C98FF1F2F89FF1F04D004400CB0044061
:103FB0003089FF1F00D0044010B0044000B006401C
:103FC0002FE400E010B51A4A9378C1B201F003045F
:103FD00003F0EC032343440748BF43F010039370FE
:103FE00000F00F03042B124C03D1A37943F04003DC
:103FF000A3715379C20603F0EF030D4A48BF43F0A3
:10400000100353719379840603F0EF0348BF43F024
:1040100010039371937A020703F01F03044A48BF09
:1040200043F020039372034B21F07F01197010BD00
:1040300000B00640E098FF1F08B51E4B1B681B052B
:1040400000D408BD1C4B1B7803F0FF0213B1FFF72F
:104050006BF9F7E7194B4FF400411960184BDA7010
:10406000184B1B78092B05D01A2B07D140F20312ED
:10407000154B02E0154B40F203121A60144B1B78EB
:1040800003F07F030A2B05D01F2B07D140F2031248
:10409000104B02E0104B40F203121A600F4A00234B
:1040A00013700F4A13700F4B1B680BB101221A706B
:1040B00008BD00BF348004400C98FF1F84E100E07D
:1040C00000B006402F89FF1F04D004400CB004400C
:1040D0003089FF1F00D0044010B00440DE98FF1F5D
:1040E0000D98FF1F0898FF1F38B50446094B1B7831
:1040F00003F0FF05002BF9D120460121FEF78EF9D0
:1041000020462946FEF76AF9034B53F83420034B47
:104110001A6038BD0C98FF1F847D0000E498FF1FD3
:1041200010B509B140F08000144A13789842144643
:1041300022D0134A126812051DD503F07F030A2B03
:1041400004D01F2B05D100220E4B01E00E4B0022A4
:104150001A60002900F07F020CBF442360230A2A62
:1041600005D01F2A07D143F44073064A02E0064AED
:1041700043F440731360207010BD00BF3089FF1FEF
:104180003480044000D0044010B004400F4A13783B
:1041900098421AD00E490968090515D5092B04D093
:1041A0001A2B05D100210B4B01E00B4B00211960AC
:1041B000092805D01A2807D140F21331054B02E037
:1041C000054B40F213311960107070472F89FF1FA3
:1041D0003480044004D004400CB004400D4A38B58B
:1041E000146814F400624FF0000410D021280A4D26
:1041F0000AD80A4A012152F830302B60FEF70EF936
:104200002B681C70012038BD2C60204638BD10463C
:1042100038BD00BF348004400898FF1F847D000033
:104220000B4B1B6813F4006310D01728094B09D1FE
:10423000094A40F2023111605A7B42F001025A737E
:10424000012070475A7B02F0FE025A73002070472B
:104250003480044000B0064008B00440F8B5254B57
:104260001B681A05064643D5234B1B680BB1012278
:104270001A70224B1C780134282C1F4628BF0024BA
:104280001F4D2B78A34227D1FEF72EF840281EDCC5
:104290001C4A13791B06F3D52B781B491B480133A5
:1042A000282B28BF0023007831F8131089B240B1C1
:1042B00092F806C001F480700CF0BF0C4CEA90003C
:1042C0009071104AC9B2DBB2D1712B70D8E7FF28C8
:1042D000D6DDFFF729F8D3E70B4BB6B223F814600D
:1042E0000B4B01221A70074BE4B2BC223C70DA700F
:1042F000F8BD00BF34800440E498FF1FE898FF1F1A
:10430000DF98FF1F00B006400E98FF1FE098FF1FC8
:104310000C98FF1F2F4B1B681A052DE9F047074625
:104320008A4654D52C4B1B680BB101221A703D46AE
:1043300007EB0A039D4247D2DFF8B480274E98F876
:10434000004096F800900134282C28BF00245FFA22
:1043500089F9A1452CD1224BBC22DA70FDF7C4FFAC
:1043600040281EDC1E4A13791B061ED533781D49D2
:104370001D480133282B28BF0023007831F8131083
:1043800089B240B192F806C001F480700CF0BF0C05
:104390004CEA90009071124AC9B2DBB2D17133700D
:1043A00003E0FF2801DDFEF7BFFF33784B45D5D092
:1043B0000C4B15F8012B23F814200C4B0122E4B20E
:1043C0001A7088F80040B3E7054BBC22DA70BDE8EC
:1043D000F08700BF34800440E498FF1FDF98FF1F80
:1043E00000B006400E98FF1FE098FF1F0C98FF1FBB
:1043F000E898FF1F08B5034B1B7813B1FEF794FF35
:10440000F9E708BD0C98FF1F064A074B1B78107888
:10441000DBB2C0B283422CBF273000F1FF30C01A9C
:10442000704700BFDF98FF1FE898FF1F054B187803
:10443000054B1B78C0B2DBB2984238BF4030C01A7F
:10444000704700BFDE98FF1F0D98FF1F10B5104B7F
:1044500010491A780B78D2B2DBB29A4215D00133E8
:10446000402B28BF00230C48DCB230F813000C703E
:104470000A49096880B251B19A4238BF4032D31A12
:104480001A2B04DC00230B7010BD4FF0FF3010BD61
:10449000DE98FF1F0D98FF1F5E98FF1F0898FF1FF3
:1044A000094B1A78094B1B78DBB29A4208D00133CA
:1044B000402B28BF0023064A32F8130080B2704711
:1044C0004FF0FF30704700BFDE98FF1F0D98FF1FB1
:1044D0005E98FF1F0C4B1B681B0514D50B4BDA783D
:1044E00002F0CB02DA7040225A74DA7842F03402D9
:1044F000DA70074B1A78074BD2B21A70064B1B685A
:104500000BB100221A7070473480044000B006409E
:104510000D98FF1FDE98FF1F0898FF1FF0B5454B51
:104520001A7912F0300F3DD072B69A7D02F0FF007A
:1045300022B9DA7940225A7462B633E062B63E4A52
:104540003E493F4C137809782678DBB2C9B215464C
:10455000384A36B19479270603D5D47944F4807467
:1045600001E0D479E4B25A1C402A28BF00228A42D2
:1045700004D0344BA4B223F812401346421E12F06A
:10458000FF00E5D1DAB22A702F4A126852B18B428D
:1045900036BFC1F14001C1EB03035B18272BC4BF39
:1045A00001231370234BD978C9B20C062FD51B7980
:1045B00018062CD5254B264A21481D7813780678F5
:1045C000EDB2DBB21446AB4219D00133194A282BA5
:1045D0001079204828BF002330F8130080B246B17C
:1045E00092F806C000F480770CF0BF0C4CEA9707F5
:1045F0009771104AC0B2D071127D072AE3D9DBB29D
:1046000023700C4B1A79120644BF7C22DA704B06D9
:104610000ED5084B1A7912F0400F194608D00E4BF0
:1046200000221A700D4B1B6803B11A703C23CB702B
:10463000F0BD00BF00B00640DE98FF1F0D98FF1FC1
:10464000E098FF1F5E98FF1F0898FF1FE898FF1F64
:10465000DF98FF1F0E98FF1F0C98FF1FE498FF1FA5
:10466000174B1A6842F480521A60164A00231370DE
:10467000154A1370154A1370154A1370154A1370B2
:10468000154A40F2133111604FF451715160134AD1
:10469000C0F344311170C0F3471100F01F00517096
:1046A0009072937013742C23D3700D4B40226FF4CF
:1046B0004B711A700B444FF400321A60704700BF00
:1046C00034800440C299FF1FF198FF1FCC99FF1F4F
:1046D000C399FF1FF098FF1F08C0044000C00640A8
:1046E00031E400E010B51A4A9378C1B201F0030436
:1046F00003F0EC032343440748BF43F010039370D7
:1047000000F00F03042B124C03D1A37943F04003B4
:10471000A3715379C20603F0EF030D4A48BF43F07B
:10472000100353719379840603F0EF0348BF43F0FD
:1047300010039371937A020703F01F03044A48BFE2
:1047400043F020039372034B21F07F01197010BDD9
:1047500000C00640C499FF1F08B5114B1B68DB045D
:1047600000D408BD0F4B1A7802F0FF0312B1FEF718
:10477000DBFDF7E70C4A4FF4003111600B4A0C499E
:10478000D37040F203120A604A600A4A13700A4A60
:1047900013700A4B1B680BB101221A7008BD00BFD1
:1047A00034800440F098FF1F84E100E000C0064020
:1047B00008C00440C299FF1FF198FF1FEC98FF1F2B
:1047C00038B50446094B1B7803F0FF05002BF9D1DF
:1047D00020460121FDF722FE20462946FDF7FEFD79
:1047E000034B53F83420034B1A6038BDF098FF1F79
:1047F000847D0000C899FF1F10B509B140F080000A
:104800000E4A1378984217D00D4C2468E40412D550
:1048100003F07F03082B02D10A4B00241C600029FF
:1048200000F07F030CBF44216021082B03D1054B0E
:1048300041F440711960107010BD00BF3189FF1F35
:10484000348004400CC004407047FFFF0D4A38B567
:10485000146814F480524FF0000410D021280A4D3F
:104860000AD80A4A012152F830302B60FDF7D6FDF4
:104870002B681C70012038BD2C60204638BD1046C6
:1048800038BD00BF34800440EC98FF1F847D0000D9
:104890000B4B1B6813F4805310D00E28094B09D121
:1048A000094A40F2023111605A7B42F001025A7308
:1048B000012070475A7B02F0FE025A7300207047B5
:1048C0003480044000C0064004C00440F8B5254BC5
:1048D0001B68DA04064643D5234B1B680BB1012243
:1048E0001A70224B1C780134282C1F4628BF002444
:1048F0001F4D2B78A34227D1FDF7F6FC40281EDC84
:104900001C4A13791B06F3D52B781B491B4801332E
:10491000282B28BF0023007831F8131089B240B14A
:1049200092F806C001F480700CF0BF0C4CEA9000C5
:104930009071104AC9B2DBB2D1712B70D8E7FF2851
:10494000D6DDFEF7F1FCD3E70B4BB6B223F81460CB
:104950000B4B01221A70074BE4B2AC223C70DA70A8
:10496000F8BD00BF34800440C899FF1FCC99FF1FD9
:10497000C399FF1F00C00640F298FF1FC499FF1F94
:10498000F098FF1F38B504464518AC4204D014F81F
:10499000010BFFF79BFFF8E738BDFFFF08B5034B9E
:1049A0001B7813B1FEF7C0FCF9E708BDF098FF1FB4
:1049B000064A074B1B781078DBB2C0B283422CBF8B
:1049C000273000F1FF30C01A704700BFC399FF1FA6
:1049D000CC99FF1F054B1878054B1B78C0B2DBB292
:1049E000984238BF4030C01A704700BFC299FF1FBD
:1049F000F198FF1F10B5104B10491A780B78D2B2FE
:104A0000DBB29A4215D00133402B28BF00230C485B
:104A1000DCB230F813000C700A49096880B251B159
:104A20009A4238BF4032D31A1A2B04DC00230B7091
:104A300010BD4FF0FF3010BDC299FF1FF198FF1F4E
:104A40004299FF1FEC98FF1F094B1A78094B1B78FE
:104A5000DBB29A4208D00133402B28BF0023064A1C
:104A600032F8130080B270474FF0FF30704700BF3C
:104A7000C299FF1FF198FF1F4299FF1F054B1A783B
:104A8000054BD2B21A70054B1B680BB100221A708D
:104A9000704700BFF198FF1FC299FF1FEC98FF1FDE
:104AA00070B5374B1A7996062DD5364A127832B141
:104AB0009A79150603D5D97941F4807102E0304B1B
:104AC000D979C9B2304A3148137800780133402B84
:104AD00028BF0023834205D02D4889B220F8131047
:104AE000D9B211702B4A116869B12B4A1278D2B22F
:104AF000934236BFC2F14002C2EB03039B18272B3F
:104B0000C4BF01230B701E4AD178C9B20C0625D54B
:104B10001379180622D5214B1F481C780378DBB285
:104B20009C42044602D16C23D37017E00133282B3A
:104B300028BF00231A48134D30F813002D7880B297
:104B40003DB1967900F4807506F0BF0646EA9505FA
:104B500095710B4AC0B2DBB2D07123704B060ED5F3
:104B6000074B1A7912F0400F194608D00D4B00225E
:104B70001A700D4B1B6803B11A702C23CB7070BDDB
:104B800000C00640C499FF1FC299FF1FF198FF1F84
:104B90004299FF1FEC98FF1FC399FF1FCC99FF1F7D
:104BA000F298FF1FF098FF1FC899FF1F1FB572B63C
:104BB000154B70221A70154A412111700F2102F80D
:104BC000011C80221A701A781206FCD5104B186846
:104BD00062B6104B984298BF0A2301AC98BF584365
:104BE00021460A2200F01AF80023E15C0A4A29B1A2
:104BF00002EB430001330A2B4180F6D101335B0005
:104C0000137004B010BD00BF000002400700024056
:104C1000080002407F969800BA89FF1F10B5002354
:104C2000B0FBF2F402FB1400092894BF3030373097
:104C3000C0B2C85420460CB10133F1E7CA18547011
:104C400022469A4206DA885CCC5C8C54C854013205
:104C5000013BF6E7084610BD81F0004102E000BFCD
:104C600083F0004330B54FEA41044FEA430594EA2C
:104C7000050F08BF90EA020F1FBF54EA000C55EA67
:104C8000020C7FEA645C7FEA655C00F0E2804FEA38
:104C90005454D4EB5555B8BF6D420CDD2C4480EA1A
:104CA000020281EA030382EA000083EA010180EA4A
:104CB000020281EA0303362D88BF30BD11F0004F98
:104CC0004FEA01314FF4801C4CEA113102D04042CE
:104CD00061EB410113F0004F4FEA03334CEA133309
:104CE00002D0524263EB430394EA050F00F0A78021
:104CF000A4F10104D5F1200E0DDB02FA0EFC22FA1C
:104D000005F2801841F1000103FA0EF2801843FA0F
:104D100005F359410EE0A5F120050EF1200E012A00
:104D200003FA0EFC28BF4CF0020C43FA05F3C0183E
:104D300051EBE37101F0004507D54FF0000EDCF1B7
:104D4000000C7EEB00006EEB0101B1F5801F1BD360
:104D5000B1F5001F0CD349085FEA30004FEA3C0C64
:104D600004F101044FEA445212F5800F80F09A805A
:104D7000BCF1004F08BF5FEA500C50F1000041EB5E
:104D8000045141EA050130BD5FEA4C0C404141EB62
:104D9000010111F4801FA4F10104E9D191F0000F89
:104DA00004BF01460020B1FA81F308BF2033A3F10C
:104DB0000B03B3F120020CDA0C3208DD02F1140C03
:104DC000C2F10C0201FA0CF021FA02F10CE002F13E
:104DD0001402D8BFC2F1200C01FA02F120FA0CFC37
:104DE000DCBF41EA0C019040E41AA2BF01EB045180
:104DF000294330BD6FEA04041F3C1CDA0C340EDC7E
:104E000004F11404C4F1200220FA04F001FA02F3C0
:104E100040EA030021FA04F345EA030130BDC4F17E
:104E20000C04C4F1200220FA02F001FA04F340EA73
:104E30000300294630BD21FA04F0294630BD94F024
:104E4000000F83F4801306BF81F480110134013D0B
:104E50004EE77FEA645C18BF7FEA655C29D094EA7C
:104E6000050F08BF90EA020F05D054EA000C04BFFA
:104E70001946104630BD91EA030F1EBF00210020E5
:104E800030BD5FEA545C05D14000494128BF41F084
:104E9000004130BD14F580043CBF01F5801130BDE8
:104EA00001F0004545F0FE4141F470014FF0000073
:104EB00030BD7FEA645C1ABF194610467FEA655C24
:104EC0001CBF0B46024650EA013406BF52EA0335C6
:104ED00091EA030F41F4002130BD00BF90F0000FB4
:104EE00004BF0021704730B54FF4806404F13204F0
:104EF0004FF000054FF0000150E700BF90F0000FA9
:104F000004BF0021704730B54FF4806404F13204CF
:104F100010F0004548BF40424FF000013EE700BF9F
:104F200042004FEAE2014FEA31014FEA02701FBF2F
:104F300012F07F4393F07F4F81F06051704792F001
:104F4000000F14BF93F07F4F704730B54FF460747B
:104F500001F0004521F0004120E700BF50EA0102C6
:104F600008BF704730B54FF000050AE050EA010273
:104F700008BF704730B511F0004502D5404261EBE3
:104F800041014FF4806404F132045FEA915C3FF424
:104F9000DCAE4FF003025FEADC0C18BF03325FEABD
:104FA000DC0C18BF033202EBDC02C2F1200300FA72
:104FB00003FC20FA02F001FA03FE40EA0E0021FA97
:104FC00002F11444C1E600BF4FEA410212F500129B
:104FD00015D211D56FF47873B3EB625212D94FEA40
:104FE000C12343F0004343EA505311F0004F23FA2A
:104FF00002F018BF404270474FF00000704750EA7F
:10500000013005D111F0004008BF6FF0004070473B
:105010004FF00000704700BF4FEA4102B2F1E04399
:1050200024BFB3F5001CDCF1FE5C0DD901F0004C8F
:105030004FEAC0024CEA5070B2F1004F40EB8300DF
:1050400008BF20F00100704711F0804F21D113F10B
:105050003872BCBF01F00040704741F480114FEA44
:105060005252C2F11802C2F1200C10FA0CF320FACD
:1050700002F018BF40F001004FEAC1234FEAD323EA
:1050800003FA0CFC40EA0C0023FA02F34FEA430354
:10509000CCE77FEA625307D150EA01331EBF4FF0DD
:1050A000FE4040F44000704701F0004040F0FE40F8
:1050B00040F40000704700BF80F0004002E000BFF5
:1050C00081F0004142001FBF5FEA410392EA030FF3
:1050D0007FEA226C7FEA236C6AD04FEA1262D2EB3D
:1050E0001363C1BFD218414048404140B8BF5B4242
:1050F000192B88BF704710F0004F40F4000020F0DB
:105100007F4018BF404211F0004F41F4000121F0F0
:105110007F4118BF494292EA030F3FD0A2F101023A
:1051200041FA03FC10EB0C00C3F1200301FA03F178
:1051300000F0004302D5494260EB4000B0F5000F9B
:1051400013D3B0F1807F06D340084FEA310102F15A
:105150000102FE2A51D2B1F1004F40EBC25008BF0C
:1051600020F0010040EA03007047490040EB0000D6
:1051700010F4000FA2F10102EDD1B0FA80FCACF105
:10518000080CB2EB0C0200FA0CF0AABF00EBC25004
:1051900052421843BCBFD0401843704792F0000FF2
:1051A00081F4000106BF80F400000132013BB5E745
:1051B0004FEA41037FEA226C18BF7FEA236C21D0BB
:1051C00092EA030F04D092F0000F08BF0846704720
:1051D00090EA010F1CBF0020704712F07F4F04D1EE
:1051E000400028BF40F00040704712F100723CBF01
:1051F00000F50000704700F0004343F0FE4040F42B
:10520000000070477FEA226216BF08467FEA2363E8
:105210000146420206BF5FEA412390EA010F40F4D3
:10522000800070474FF0000304E000BF10F000431F
:1052300048BF40425FEA000C08BF704743F0964306
:1052400001464FF000001CE050EA010208BF704721
:105250004FF000030AE000BF50EA010208BF7047A8
:1052600011F0004302D5404261EB41015FEA010CBD
:1052700002BF84460146002043F0B64308BFA3F1B5
:105280008053A3F50003BCFA8CF2083AA3EBC25397
:1052900010DB01FA02FC634400FA02FCC2F12002B6
:1052A000BCF1004F20FA02F243EB020008BF20F0ED
:1052B0000100704702F1200201FA02FCC2F1200253
:1052C00050EA4C0021FA02F243EB020008BF20EA48
:1052D000DC7070474FF0FF0C1CEAD0521EBF1CEA76
:1052E000D15392EA0C0F93EA0C0F6FD01A4480EA64
:1052F000010C400218BF5FEA41211ED04FF000634D
:1053000043EA501043EA5111A0FB01310CF0004078
:10531000B1F5000F3EBF490041EAD3715B0040EA9E
:10532000010062F17F02FD2A1DD8B3F1004F40EB6E
:10533000C25008BF20F00100704790F0000F0CF041
:10534000004C08BF49024CEA502040EA51207F3A05
:10535000C2BFD2F1FF0340EAC250704740F40000E0
:105360004FF00003013A5DDC12F1190FDCBF00F0D1
:1053700000407047C2F10002410021FA02F1C2F17F
:10538000200200FA02FC5FEA310040F1000053EA1B
:105390004C0308BF20EADC70704792F0000F00F069
:1053A000004C02BF400010F4000F013AF9D040EA6F
:1053B0000C0093F0000F01F0004C02BF490011F403
:1053C000000F013BF9D041EA0C018FE70CEAD15301
:1053D00092EA0C0F18BF93EA0C0F0AD030F0004C81
:1053E00018BF31F0004CD8D180EA010000F0004035
:1053F000704790F0000F17BF90F0004F084691F0F3
:10540000000F91F0004F14D092EA0C0F01D142022C
:105410000FD193EA0C0F03D14B0218BF084608D1F5
:1054200080EA010000F0004040F0FE4040F400003F
:10543000704740F0FE4040F4400070474FF0FF0CD2
:105440001CEAD0521EBF1CEAD15392EA0C0F93EA19
:105450000C0F69D0A2EB030280EA010C49024FEA6B
:10546000402037D04FF0805343EA111143EA101324
:105470000CF000408B4238BF5B0042F17D024FF4DC
:10548000000C8B4224BF5B1A40EA0C00B3EB510FB7
:1054900024BFA3EB510340EA5C00B3EB910F24BFA0
:1054A000A3EB910340EA9C00B3EBD10F24BFA3EB25
:1054B000D10340EADC001B0118BF5FEA1C1CE0D1ED
:1054C000FD2A3FF650AF8B4240EBC25008BF20F0A0
:1054D000010070470CF0004C4CEA50207F32C2BFF4
:1054E000D2F1FF0340EAC250704740F400004FF091
:1054F0000003013A37E792F0000F00F0004C02BFC2
:10550000400010F4000F013AF9D040EA0C0093F08B
:10551000000F01F0004C02BF490011F4000F013BE5
:10552000F9D041EA0C0195E70CEAD15392EA0C0F4D
:1055300008D142027FF47DAF93EA0C0F7FF470AF85
:10554000084676E793EA0C0F04D14B023FF44CAFC8
:1055500008466EE730F0004C18BF31F0004CCAD15D
:1055600030F000427FF45CAF31F000437FF43CAF99
:105570005FE700BF4FF0FF3C06E000BF4FF0010CBB
:1055800002E000BF4FF0010C4DF804CD4FEA40029D
:105590004FEA41037FEA226C18BF7FEA236C11D0E7
:1055A00001B052EA530C18BF90EA010F58BFB2EB9A
:1055B000030088BFC81738BF6FEAE17018BF40F01A
:1055C000010070477FEA226C02D15FEA402C05D1CE
:1055D0007FEA236CE4D15FEA412CE1D05DF8040B53
:1055E000704700BF844608466146FFE70FB5FFF7E6
:1055F000C9FF002848BF10F1000F0FBD4DF808ED9E
:10560000FFF7F4FF0CBF012000205DF808FB00BF8E
:105610004DF808EDFFF7EAFF34BF012000205DF8E8
:1056200008FB00BF4DF808EDFFF7E0FF94BF012035
:1056300000205DF808FB00BF4DF808EDFFF7D2FF32
:1056400094BF012000205DF808FB00BF4DF808ED75
:10565000FFF7C8FF34BF012000205DF808FB00BF42
:1056600090F8392090F83800101A704790F83830C8
:1056700090F839209A4205D95A1C80F838201844ED
:10568000007E70474FF0FF30704790F8383090F848
:1056900039209A4286BFC018007E4FF0FF30704715
:1056A0007047B0F85E302BB190F85D30202B03D9F5
:1056B00001230371002070475A1C80F85D201844B4
:1056C00080F83B100120704738B50446B0F85E0002
:1056D000154698B194F85D00C0F121039A4202D9B1
:1056E000012222711D4620443B302A46FCF71EFD54
:1056F00094F85D302B4484F85D30284638BDFFFFB8
:1057000043691A685B6812681A420ED0074B9942C7
:10571000036901D8282204E0054A914294BF192266
:105720000A225A70036903229A7170477F1A060091
:105730003F420F0038B54169002380F8383080F8C7
:10574000393080F85C3080F85D3080F85E3080F869
:105750005F300A68496815684366294383661160AB
:1057600002699370436990F86110134A1944044622
:105770000D7A497B02EBC50501F007016D6809024E
:1057800041F06401296090F862100B44997CDB7D44
:1057900002EBC10203F00703526808491B0243F001
:1057A00064031360FFF7ACFF236920225A71236959
:1057B00080229A7038BD00BF847D0000A086010061
:1057C00010B50169CB78DBB213F0100F044603F07B
:1057D000400201D12AB92CE01020C870002AF9D16A
:1057E00010BD03F0040303F0FF01374ACBB10023DF
:1057F000137084F85D30636E03B1984794F85D30A0
:1058000023B9012284F85D2084F83B302369D0223B
:105810009A70236994F83B201A71012384F85C3054
:105820004EE001231370236984F83910C0229A7066
:105830001CE02269917801F0100101F0FF00C1B174
:1058400013F0010310D194F85C1094F85D008842C5
:1058500005D94B1C214484F85C3091F83B3013711E
:105860002369D0229A702BE0C023937023691B799F
:1058700026E0164B84F860009C4206D1636994F8D8
:10588000612013491344187A08E0124B9C4208D156
:10589000636994F8612010491344187A0322FCF7D5
:1058A000EFFD23691A7994F839301F2BD2B207D84B
:1058B0000549097821B1591C234484F839101A7616
:1058C00023690222DA7010BD3C9AFF1F409AFF1F25
:1058D00039590000D099FF1F4559000038B50369B8
:1058E000DB7803F02003044603F0FF0573B9436936
:1058F00090F861201344187AFCF742FDA36ECBB1F7
:1059000084F8385094F83900984738BD90F86030E2
:105910000133DBB2012B80F8603002D890F85F30A1
:1059200043B9626994F861301344187ABDE838408D
:10593000FCF726BD38BDFFFF0148FFF7CFBF00BF12
:10594000409AFF1F0148FFF7C9BF00BFD099FF1F52
:105950002DE9F04103691222DA700269937813F09D
:10596000200F86B03A4B01D0B42414E01C68009498
:10597000009ED47804F0200404F0FF0544B11C68B4
:105980000194019CA41B0F2CF3D90023937038E0E1
:1059900080F85F50B02494701A680292029E0269E7
:1059A000D47804F0200404F0FF050CB1002407E0D3
:1059B0001C680394039CA41B042CF1D9957020E06F
:1059C00090F85D50E2B2954236D98618056996F88E
:1059D0003B602E711D680495DDF810800569EE7836
:1059E000F6B206F0020707F0FF0C7FB9B6060DD538
:1059F0001E680596059EC8EB0606052EEFD985F8AC
:105A000002C0036980229A7004201EE00226EE7014
:105A10000669F578EDB2EF0601D4AF0603D4802312
:105A2000B370042309E0ED0704F10104C8D5002A8E
:105A30000CBF0223032301E0002311B1026980217E
:105A40009170002280F85E20184606B0BDE8F08113
:105A5000B495FF1F2DE9F0410446002084F838007A
:105A600084F8390020691225C5702669604DB77821
:105A700007F020078AB007F0FF000FB1B42016E04E
:105A80002F680097DDF80080F77807F0200707F00F
:105A9000FF0C4FB12F680197019FC8EB07070F2F2D
:105AA000F2D90023B37016E084F85FC0B020B07064
:105AB00028680290DDF808C02669F77807F020070B
:105AC00007F0FF005FB92F680397039FCCEB070730
:105AD000042FF2D9B070236980229A7084E04900C3
