:1000000000800020BD010000D9220000A5220000D0
:10001000A5220000A5220000A5220000A5220000C4
:10002000A5220000A5220000A5220000D922000080
:10003000D9220000A5220000D9220000952200004C
:10004000D9220000D9220000D9220000D9220000C4
:10005000D9220000D9220000D9220000D9220000B4
:10006000D9220000D9220000D9220000D9220000A4
:10007000D9220000D9220000D9220000D922000094
:10008000D9220000D9220000D9220000D922000084
:10009000D9220000D9220000D9220000D922000074
:1000A00045570000D9220000D9220000D9220000C3
:1000B000D9220000D9220000D9220000D922000054
:1000C000D9220000D9220000D9220000D922000044
:1000D000D9220000D9220000D9220000D922000034
:1000E000D9220000D9220000D9220000D922000024
:1000F000D92200005D3D0000D9220000D942000055
:10010000D922000085470000D9220000D922000032
:10011000D9220000D9220000D9220000D9220000F3
:10012000D9220000D9220000D9220000D9220000E3
:10013000D9220000D9220000D9220000D9220000D3
:10014000D9220000D9220000D9220000D9220000C3
:10015000D9220000D9220000D9220000D9220000B3
:10016000D92200003D2B0000D9220000D922000036
:10017000D9220000D9220000D9220000D922000093
:10018000D9220000D9220000D9220000D922000083
:10019000D9220000D9220000D9220000D922000073
:1001A000D9220000D9220000D9220000D922000063
:1001B000D9220000D9220000D9220000564B4CF26F
:1001C000205210B51A804DF628121A8000BF00BFC9
:1001D00002F086F8514B4FF010621A60504A9A6054
:1001E000504ADA60A3F53043203B1A6812F480725B
:1001F00004D14D490A604FF4A8521A604B4B1A784B
:10020000110703D51A7842F008021A70484B2A22C7
:100210001A700023474A48499818884204D247492F
:10022000595899500433F5E7454A464B9A424FF0E6
:10023000000302D242F8043BF7E74349434A5958C6
:1002400099500433B3F5DE7FF7D1414B802103F899
:10025000011B40498B42F9D13F4B1A603F4B0A22A8
:100260001A70A3F5805324225A70A0221A709A792A
:100270009207FCD59A79D406FCD4394B9A7902F0CE
:100280000C02082AF9D105221A7143225A719A796F
:100290009006FCD5324B9A795106FBD5314A4FF086
:1002A000817111600521516020221A702C4B9B79BD
:1002B00003F00C030C2BF9D12B4B2C4A1A602C4B5E
:1002C0002C4A1A6000225A60072243F8042C2A4A5A
:1002D000C3F80C2D62B602F019FB134B1B68DA074A
:1002E00005D5264802F0ACF9254B264A1A60264B64
:1002F0001B785B0609D5224C224A2368934204D11D
:100300001E4802F09DF90023236005F04BFD01F02B
:10031000EDFF01F01DFFFEE70E2005403080044098
:10032000823F04000100002B14D0034002D007409C
:1003300000E007406087FF1F8888FF1F24670000D8
:100340008888FF1F4898FF1F000000000082FF1FE1
:1003500000E400E05FE400E008ED00E0005006404B
:10036000004006404480044004800440C010050062
:1003700014E000E03F19010000002020DCBB14580D
:100380001CE00340A5C3945A00F00740FFFFFFFFA5
:10039000FFFFFFFFFFFFFFFFFFFFFFFFFFFFFFFF6D
:1003A000FFFFFFFFFFFFFFFFFFFFFFFFFFFFFFFF5D
:1003B000FFFFFFFFFFFFFFFFFFFFFFFFFFFFFFFF4D
:1003C000FFFFFFFFFFFFFFFFFFFFFFFFFFFFFFFF3D
:1003D000FFFFFFFFFFFFFFFFFFFFFFFFFFFFFFFF2D
:1003E000FFFFFFFFFFFFFFFFFFFFFFFFFFFFFFFF1D
:1003F000FFFFFFFFFFFFFFFFFFFFFFFFFFFFFFFF0D
:10040000FFFFFFFFFFFFFFFFFFFFFFFFFEFFFFFFFD
:1004100010B5054C237833B9044B13B10448AFF33E
:1004200000800123237010BD8888FF1F000000009A
:100430002467000008B5064B1BB106480649AFF318
:1004400000800648036813B1054B03B1984708BD07
:1004500000000000246700008C88FF1F8888FF1FB1
:100460000000000043680B7043681B0A4B70C38890
:100470008B70C379CB7083680B7183681B0A4B71D7
:1004800043898B71C37ACB71082070470B78436026
:100490004A7843EA022343608A7843EA024343608E
:1004A000CA7843EA026343600B7983604A7943EA7E
:1004B000022383608A7943EA02438360CA7943EA6C
:1004C00002638360082070470048704700610000A5
:1004D000004870470E610000004870472F6100001F
:1004E000004870474861000000487047696100009B
:1004F000004870477C61000000487047C8630000F6
:10050000004870479D61000000487047BE610000D0
:1005100000487047CE6100002DE9F74F8C460190EE
:10052000D0E90201040E44EA01244FEA1028060C27
:100530008CF8034048EA01684FEA112946EA01466F
:100540000F0C0D0E019C8CF801808CF802608CF869
:1005500005908CF806708CF807508CF800008CF829
:100560000410D4E90401040E44EA01244FEA1028DF
:10057000060C48EA01684FEA112946EA01460F0CC9
:100580000D0E8CF80B40019C8CF809808CF80A60E9
:100590008CF80D908CF80E708CF80F508CF80800C9
:1005A0008CF80C10D4E906014FEA1028060C040E52
:1005B0008CF8100048EA01684FEA112946EA014622
:1005C0000F0C44EA01240D0E18208CF811808CF8D1
:1005D00012608CF813408CF814108CF815908CF87D
:1005E00016708CF8175003B0BDE8F08F2DE9F0437A
:1005F0004A788E7891F805800025002314022B4359
:10060000320400270E7822431F43CC7800231F4377
:100610000B794FEA0825164391F806802206164307
:100620001F43002216432F434FEA084591F80780E5
:10063000164316432F434FEA086542EA06043D433A
:10064000C0E902454C7A91F80A8026024FEA084434
:1006500091F80880264346EA080691F80B804FEA95
:1006600008643443144342EA02074FF000094E7B0A
:1006700047EA090742EA040891F80C908C7B42EAA9
:10068000070545EA090527044FEA0629CC7B49EA14
:10069000050948EA020849EA0709270642EA080666
:1006A00047EA0907C0E904674C7C91F812802602EA
:1006B0004FEA084491F81080264346EA080691F86C
:1006C00013804FEA08643443144342EA02074FF0B0
:1006D00000094E7D47EA090742EA040891F81490A0
:1006E0008C7D42EA070545EA090527044FEA0629F9
:1006F000CC7D49EA050949EA070948EA02082706C4
:1007000042EA080647EA0907C0E906671820BDE87B
:10071000F083FFFF00487047EF610000004870471A
:1007200005620000004870472662000000487047DC
:100730004362000070B5054608300E46FFF7ECFE38
:100740000446311905F12800FFF7E6FE204470BD8C
:1007500070B5054608300E46FFF748FF04463119CC
:1007600005F12800FFF742FF204470BD00487047A4
:1007700064620000004870477862000043680B70B4
:100780001A0A4A701A0C1B0E8A70CB7083680B71A0
:100790001A0A4A711A0C1B0E8A71CB71C3680B724C
:1007A0001A0A4A721A0C1B0E8A72CB720C207047FE
:1007B0008B784A781B0443EA02230A781343CA78E9
:1007C00043EA026343608B794A791B0443EA0223BC
:1007D0000A791343CA7943EA026383608B7A4A7ABF
:1007E0001B0443EA02230A7A1343CA7A43EA0263E8
:1007F000C3600C207047FFFF0048704799620000FB
:1008000000487047AA62000000487047CB620000B1
:1008100000487047E3620000044B42681A60044BD2
:1008200082681A60034BC2681A6070476C87FF1FAA
:100830006887FF1F3C93FF1FD0E904230649C1E9E5
:100840000023D0E910230549C1E90023044B1A68AD
:10085000044B1A60704700BF2092FF1F1089FF1FD2
:100860007894FF1F5C89FF1F90F85408704738B5D3
:10087000054600F10C042046FFF79AFFEB6920467D
:10088000984738BD006A7047004870479962000079
:1008900000487047AA62000038B5054600F1100410
:1008A0002046FFF755FFAB6D2046984738BDC06D19
:1008B0007047FFFF004870476462000000487047BF
:1008C000786200002DE9FF4183880B7083881B0A42
:1008D0004B70054680680C4605F03CFB04AB0646B1
:1008E00043F80C0D1868C4F80200A9683246A01D30
:1008F00001F036FCE86805F02DFB04AB06F10608B4
:1009000043F8080D0746186844F808000A36E968F5
:100910003A46A01901F024FC286905F01BFB04AB42
:100920003E4443F8040D07461868A0510436A01948
:100930003A46296901F014FCF0196B692354044408
:100940001A0A627004301A0C1B0EA270E37004B015
:10095000BDE8F0817FB50A7882800346487842EA94
:1009600000229A80D1F80200019001988A1D841D0E
:10097000551AA54204D212F8015B02F8025CF7E7AF
:100980000844002242714A1D9A6008590290201DB5
:10099000029C02460444A24205D28D188E5C05F8E2
:1009A000016C0132F7E70A1901380844002502F802
:1009B000015CD860106803900398043420442246F8
:1009C000824205D28D188E5C05F8016C0132F7E782
:1009D0000A18013C0C44002502F8015C1C61957862
:1009E0005478D2782D0445EA04250C5C45EA0401CC
:1009F00041EA026204305A6104B070BD73B50379F4
:100A00000B70054680680E4605F0A4FA02AB04465A
:100A100043F8040D1868C6F80100A968701D224645
:100A200001F09EFB601D02B070BD37B50B4602465B
:100A300013F8010B107118680190019C4B1D601D8B
:100A40005D1A854204D213F8015B03F8025CF7E7F4
:100A50000C44002304312371916003B030BD2DE9B3
:100A6000F74303790B70002305460C464B708B70DF
:100A7000CB700A1D28795E1CDBB29842C4EB0201E0
:100A800002F104020FD9E96851F8233002F8043C5E
:100A9000190A02F8031C190C1B0E02F8013C02F89B
:100AA000021C3346E6E72B7C6354631800225A701D
:100AB0009A70DA700B1D2344297C501CD2B29142EB
:100AC000C4EB030603F104030FD9A96951F82220EE
:100AD00003F8042C110A03F8031C110C120E03F87E
:100AE000012C03F8021C0246E6E72B7FA355A2194E
:100AF0000023537093700436D3702A7F5FFA83F813
:100B0000424503F1010915D96B6A53F8280005F035
:100B100021FA02AB074643F8040D1868A0516B6A2E
:100B20000436A01953F828103A4601F019FB3E4448
:100B30004B46E2E7304603B0BDE8F083436873B547
:100B40000B7043681B0A4B70C3888B70C379CB70E2
:100B500083680B7183681B0A4B7143898B71C37A5D
:100B6000CB71C3680B72C3681B0A4B72C3898B724B
:100B7000C37BCB72044600690D4605F0EBF902AB6E
:100B8000064643F8040D1868E860216905F1100075
:100B9000324601F0E5FA06F1100002B070BD70B502
:100BA000054604300E46FFF7C9FF0446311905F12A
:100BB0001800FFF7B1FC204470BD70B50446043046
:100BC0000D46FFF7BBFF237E2B542B18627E5A7015
:100BD000A27E9A70C61CA91904F12000FFF79CFCA4
:100BE0000644A91904F14000FFF796FC0644A91930
:100BF00004F16000FFF790FC304470BD37B50A780F
:100C000042600346487842EA00225A60887842EA05
:100C100000425A60C87842EA00625A600A799A60D3
:100C2000487942EA00229A60887942EA00429A6052
:100C3000C87942EA00629A600A7ADA60487A42EA3F
:100C40000022DA60887A42EA0042DA60C87A42EA30
:100C50000062DA60C8680190019C01F1100204F1A1
:100C60001000551A854204D212F8015B02F8025CAA
:100C7000F7E70C4400220F31E273196103B030BD75
:100C800070B5054604300E46FFF7B8FF044631192B
:100C900005F11800FFF7AAFC204470BD70B50446AA
:100CA00004300D46FFF7AAFF2B5C23762B18C61CD9
:100CB0005A7862769B78A376A91904F12000FFF791
:100CC00095FC0644A91904F14000FFF78FFC064487
:100CD000A91904F16000FFF789FC304470BDF7B535
:100CE0000E780379B34204460D4604D2C068B100C1
:100CF00005F016F9E06026712A1D00212379481CB1
:100D0000C9B28B42C5EB020702F1040214D912F8F2
:100D1000023C12F8036C1B0443EA062312F8046C2D
:100D2000334312F8016C43EA0663A360E368A668E4
:100D300043F821600146E1E7EE5D237CB34204D233
:100D4000A069B10005F0ECF8A0613B1D26742B44AE
:100D50000022217C501CD2B29142C5EB030703F163
:100D6000040314D913F8021C13F8036C090441EAB4
:100D7000062113F8046C314313F8016C41EA066153
:100D80006161A169666941F822600246E1E7EE5DB2
:100D9000237FB34204D2606AB10005F0C1F86062FB
:100DA0003B1D26770022217FD6B2B1421CD9E858DC
:100DB00001900199181D014403468B4206D2EF1899
:100DC00015F803C007F801CC0133F6E76B180027CC
:100DD000013803F8017C284420620B46616A206ACE
:100DE00041F826000132DEE7184603B0F0BD0346A5
:100DF00010B5C06804680A4624689968A04710BD09
:100E0000054B036000220023C0E90223C0E904234C
:100E1000C0E90623704700BF4860000010B50368B2
:100E2000017A1C7843681A78437A1A40837A0C4214
:100E300003F0030318BF43F004030AB143F00803AF
:100E40009A10013B82720D2B14D8DFE803F0070AD9
:100E50000D0A1310070710130A0D0A07C3680133A0
:100E600007E0C368013B04E0C368023301E0C368E4
:100E7000023BC36010BDFFFF08B5034BD3F88400ED
:100E8000FFF7CCFF08BD00BFA097FF1F08B5034BBD
:100E9000D3F88000FFF7C2FF08BD00BFA097FF1F77
:100EA00008B5024BD86FFFF7B9FF08BDA097FF1F29
:100EB00008B5024B986FFFF7B1FF08BDA097FF1F61
:100EC00008B5024B586FFFF7A9FF08BDA097FF1F99
:100ED00008B5024B186FFFF7A1FF08BDA097FF1FD1
:100EE00008B5024BD86EFFF799FF08BDA097FF1F0A
:100EF00008B5024B986EFFF791FF08BDA097FF1F42
:100F000008B5024B586EFFF789FF08BDA097FF1F79
:100F100008B5024B186EFFF781FF08BDA097FF1FB1
:100F200008B5024BD86DFFF779FF08BDA097FF1FEA
:100F300008B5024B986DFFF771FF08BDA097FF1F22
:100F400008B5024B586DFFF769FF08BDA097FF1F5A
:100F500008B5024B186DFFF761FF08BDA097FF1F92
:100F600008B5024BD86CFFF759FF08BDA097FF1FCB
:100F700008B5024B986CFFF751FF08BDA097FF1F03
:100F800008B5024B586CFFF749FF08BDA097FF1F3B
:100F900008B5024B186CFFF741FF08BDA097FF1F73
:100FA00008B5024BD86BFFF739FF08BDA097FF1FAC
:100FB00008B5024B986BFFF731FF08BDA097FF1FE4
:100FC00008B5024B586BFFF729FF08BDA097FF1F1C
:100FD00008B5024B186BFFF721FF08BDA097FF1F54
:100FE00008B5024BD86AFFF719FF08BDA097FF1F8D
:100FF00008B5024B986AFFF711FF08BDA097FF1FC5
:1010000008B5024B586AFFF709FF08BDA097FF1FFC
:1010100008B5024B186AFFF701FF08BDA097FF1F34
:1010200008B5024BD869FFF7F9FE08BDA097FF1F6E
:1010300008B5024B9869FFF7F1FE08BDA097FF1FA6
:1010400008B5024B5869FFF7E9FE08BDA097FF1FDE
:1010500008B5024B1869FFF7E1FE08BDA097FF1F16
:1010600008B5024BD868FFF7D9FE08BDA097FF1F4F
:1010700008B5024B9868FFF7D1FE08BDA097FF1F87
:1010800008B5024B5868FFF7C9FE08BDA097FF1FBF
:1010900008B5024B1868FFF7C1FE08BDA097FF1FF7
:1010A00008B5212800F2D580DFE810F022002700E3
:1010B0002C00310036003C00410046004B0050003F
:1010C00055005A005F00640069006E0073007800EC
:1010D0007D00820087008C00910096009B00A0009C
:1010E000A500AA00AF00B400B900BE00C300CD0047
:1010F000594B002019605949A0E0574B0120596015
:1011000057499BE0544B02209960564996E0524B58
:101110000320D960544991E04F4B042019610246E5
:1011200052498CE04C4B05205961514986E04A4BAD
:10113000062099614F4981E0474B0720D9614E490C
:101140007CE0454B082019624C4977E0424B09206E
:1011500059624B4972E0404B0A20996249496DE05F
:101160003D4B0B20D962484968E03B4B0C2019638A
:10117000464963E0384B0D20596345495EE0364BE4
:101180000E209963434959E0334B0F20D9634249FC
:1011900054E0314B1020196440494FE02E4B112090
:1011A00059643F494AE02C4B122099643D4945E07F
:1011B000294B1320D9643C4940E0274B1420196582
:1011C0003A493BE0244B15205965394936E0224B1A
:1011D00016209965374931E01F4B1720D9653649EC
:1011E0002CE01D4B18201966344927E01A4B1920B2
:1011F0005966334922E0184B1A20996631491DE09F
:10120000154B1B20D966304918E0134B1C20196779
:101210002E4913E0104B1D2059672D490EE00E4B4F
:101220001E2099672B4909E00B4B1F20D9672A49DB
:1012300004E0094BC3F8801028492020042201F063
:10124000A1F9012008BD044B2120C3F884102449D2
:10125000F4E7002008BD00BFA097FF1F9110000019
:10126000811000007110000061100000511000009A
:10127000411000003110000021100000111000008A
:1012800001100000F10F0000E10F0000D10F00007D
:10129000C10F0000B10F0000A10F0000910F00006E
:1012A000810F0000710F0000610F0000510F00005E
:1012B000410F0000310F0000210F0000110F00004E
:1012C000010F0000F10E0000E10E0000D10E000041
:1012D000C10E0000B10E0000A10E00008D0E000036
:1012E000790E000070B5044615460E4608460221E8
:1012F00001F0D6F92846022101F0D2F9174A52F836
:10130000363003F5007121600121217252F8352039
:10131000617202F500700021E16060604BF680317F
:1013200001397FF4FDAF93F8003292F8002203F008
:101330000103D20744BF43F00203DBB2A37221468C
:101340003046FFF7ADFE214620742846FFF7A8FE81
:10135000237C18442074204670BD00BFE463000065
:1013600010B5174C237C012B04D872B62046FFF72A
:1013700055FD00E072B6E16862B6124C124804F006
:101380006FFB237C012B04D872B62046FFF746FD85
:1013900000E072B6E16862B60C4804F061FB0A48EE
:1013A00004F096FB0146084804F02EFC074804F0C0
:1013B0008FFBBDE810400146044804F025BC00BF87
:1013C0006889FF1F2893FF1F1889FF1FE892FF1FDE
:1013D00010B50848084C002200230021C0E9022370
:1013E000C4E9022304F010FC20460021BDE81040AF
:1013F00004F00ABC1889FF1FE892FF1F0B4B70B561
:101400001D680E6949694FF47A72B5FBF2F31E4408
:1014100002FB1353064A066002FB0313014604460F
:1014200041F8043F04F094F8204670BD7894FF1F03
:1014300040420F001FB5084B019300230293039312
:1014400003680A211B6801AA04469847034B1B68DE
:10145000E36004B010BD00BFD05F00007894FF1FB0
:10146000F0B587B02C4B009300222C4BADF8042034
:101470000446029303930493059200F11406054673
:10148000D5F81838DBB158689A68ADF804201A68A6
:10149000036802929B689847D5F8183803905868FB
:1014A0000368DB6898474FF4806322680593D5F89A
:1014B000183804901768196920466A46B8470435F9
:1014C000B542DDD12546D5F82C08E0B14368ADF82A
:1014D00004308368029303689B6898470390D5F8AB
:1014E0002C080368DB6898474FF4806304900593E9
:1014F000D5F82C0823681F6803685B6898476A461C
:1015000001462046B8470435B542DCD1012384F8B2
:10151000543807B0F0BD00BFE85F0000A6630000CC
:10152000F0B5904ED0F85C38356842F6F822EB1AE8
:10153000934284BF002380F85438D0F8403885B0F7
:10154000044633B1D0F860389D4202D90023C4F874
:10155000403860680368DB6898470028C0F2EF8075
:10156000D4F85028D4F840380244072BC4F8502847
:101570000CD1D4F84C385A1C2344C4F84C281876A3
:10158000D4F84438013BC4F844385CE093B9FF28F0
:1015900007D10123C4F8403805F11403C4F86038BA
:1015A000D7E73268521B052AD3D984F854386FF034
:1015B0000100D4E0012B0ED1FE2801D10223C6E7A1
:1015C0000023C4F8403894F85438002BC1D1204689
:1015D000FFF730FFBDE7022B06D10023C4F84C38DB
:1015E000C4F8440803231CE0032B07D1D4F8443883
:1015F00003EB0020C4F844080423A8E7042B0BD114
:10160000594B1340002B03DA013B63F0FF03013316
:10161000FF2B9BD105239AE7052B07D1C4F8480877
:101620000623C4F84038C4F8500892E7062B0ED1C0
:10163000D4F8483803EB00200723C4F84038D4F826
:101640004438C4F84808002B83D108237FE7082BCF
:101650007FF47FAF0023C4F84038434B1340002B86
:1016600003DA013B63F0FF030133FF2B7FF471AF1B
:10167000D4F8483863B92046FFF7DCFE2046FFF770
:10168000EFFEC4F85858C4F85C584FF0FF3066E0DD
:101690000A2B35D1354B019300230293039337680E
:1016A000E36804F1180101A8FF1AFEF7EFFE4FF4FA
:1016B0007A7302990398B7FBF3F202EB010E2C49FF
:1016C000CDF808E003FB127701FB070730680397AA
:1016D000B0FBF3F203FB12036FEA020C254A5943F5
:1016E000521AE6443A44C4F810E0626104F1100072
:1016F00004F1140103F02CFF3368C4F85C3828E7C8
:10170000062B09D104F6680004F11801FFF7E7FA87
:10171000012384F864381CE70B2B03D1002384F8E1
:10172000543816E704EB8303D3F89C0600283FF4F3
:1017300010AF036804F118011B68984709E794F893
:10174000540860B1D4F8583840F6C412EB1A9342EA
:1017500004D92046FFF76EFEC4F85858002005B0A3
:10176000F0BD00BF7894FF1FFF000080D05F000035
:1017700040420F0000CA9A3B1D4B2DE9F341D3E9CB
:1017800000011C4BDFF880801B4ED3E9002303F0DF
:10179000BDF80022194B03F06BFA0022184B03F03E
:1017A00091FB11A3D3E9002303F062FA04460D462E
:1017B00068464146FFF722FE9DE8030006F10C0350
:1017C000002283E80300002331460E48C6E90A23BD
:1017D000C6E90C23C6E90845FFF709FB4046FFF7B9
:1017E0009FFE02B0BDE8F08100000000018DDC3FEB
:1017F0001889FF1FE892FF1FB893FF1F0000E03F0A
:1018000000004E406893FF1F8C89FF1FAFF30080DC
:101810001FB5064B019303688DF8081003921B68EF
:10182000072101AA984705B05DF804FB006000009D
:10183000354A00234FF4614110B5C2F84038C2F870
:101840004438C2F84C38C2F848389160144604EB6A
:101850008302D2F82C2842B92B492C4A01EB830190
:101860006433C1F82C28536002E00133052BEED11C
:10187000002304EB8302D2F82C2842B92249244ADF
:1018800001EB83016433C1F82C28536002E001337B
:10189000052BEED1002304EB83021B49D2F8182854
:1018A00042B91C4A03F20620693341F820209360B4
:1018B000D16002E00133052BEDD1002304EB83025C
:1018C0001149D2F8182842B9134A03F206206933A5
:1018D00041F820209360D16002E00133052BEDD167
:1018E00094F85438084813B9FFF71AFEF8E70121B5
:1018F0000A4AFFF78DFF0A4803F002FF0520BDE802
:10190000104000F0EDBF00BF8C89FF1F7C93FF1FCC
:10191000A888FF1F6893FF1FA093FF1F04630000A8
:101920008897FF1F63292DE9F04104460D4603DD2A
:1019300090F85468002E48D0136810461B6804F2D3
:101940001F419847FF2283B284F81824FE22C0B2B8
:1019500084F819241A0A84F81B240244D24384F818
:101960001D5445F3072584F81C2484F81A0484F8D0
:101970001E5405220021981D904205DBA01801325B
:1019800090F818040144F6E703F108070733BFB2E3
:1019900014FA83F3C943B7F5806F83F818140DD890
:1019A00004F583683E460025BD420EDA606818F8EB
:1019B000051003681B6898470135F5E720460321A9
:1019C000034AFFF725FF4FF0FF363046BDE8F081B0
:1019D00024630000F8B55748FFF712FA5648FFF79E
:1019E0000FFA5648FFF70CFA17211122102354481A
:1019F00004F020F80C2315210D22524804F01AF8A7
:101A0000032102225048FFF76DFC062107224F48B0
:101A1000FFF768FC4E4B4F4A1A604F4A5A604FF42A
:101A200061429A604D49C3F86818002283F854282F
:101A300083F86C28C3F8742883F87828C3F88028C2
:101A400083F88428C3F88C28C3F81828C3F81C2806
:101A5000C3F82028C3F82428C3F82828C3F82C2862
:101A6000C3F83028C3F83428C3F83828C3F83C2812
:101A7000981801320021B2F5806F0176F8D10A463C
:101A8000991801320025B2F5806F81F81854F7D10A
:101A9000334C344B2360344B236104F11800FFF7BF
:101AA000AFF904F13800FFF7ABF9304BA365304BC9
:101AB000A360304B304A1A60304ADA6001210022BC
:101AC000E1651A612E4C5A619A612E4ADA612E4FF5
:101AD0002E4A2F4E19629A6067602E4BA560E56012
:101AE0002561666104F12000236025766576A57680
:101AF000FFF786F904F14000FFF782F904F1600076
:101B0000FFF77EF9244B254A1D6183E81400244C1D
:101B1000244BA56084E88800E5602561666104F1D6
:101B20001800FFF76DF9204B204A1D6183E814006F
:101B3000F8BD00BF4893FF1F2892FF1FC892FF1FE8
:101B40001889FF1FE892FF1F6889FF1F2893FF1F56
:101B50008C89FF1FC06000006095FF1F18600000A7
:101B6000A888FF1FD86000007860000039080000D6
:101B70005D6300007C93FF1FF06000009060000038
:101B80004892FF1F190800003060000065630000E4
:101B9000A6630000A8600000A093FF1F6963000017
:101BA000B893FF1F606000006893FF1F716300001F
:101BB00038B5084C03460D462046194603F02DFF64
:101BC0002046294603F0ECFC2046BDE8384003F0EF
:101BD00027BF00BF8897FF1F70B50A4C03460D460C
:101BE00020461946164603F018FF2946204603F002
:101BF000D7FC2046314603F0D3FC2046BDE87040B8
:101C000003F00EBF8897FF1F08B5012120221E2078
:101C1000FFF7E2FF052000F063FE002118221E20DE
:101C2000FFF7DAFF052000F05BFE022101221E20F3
:101C3000FFF7D2FF052000F053FE012008BDFFFF93
:101C400070B50D4C05460E462046294603F0E5FECC
:101C50003146204603F0A4FC204603F0E1FE1420A8
:101C600000F03EFE29460122204603F0D1FE204628
:101C700003F0BEFCC0B270BD8897FF1F08B55320AB
:101C80000021FFF7DDFFE52819D12D21082253207F
:101C9000FFF7A2FF052000F023FE31210922532087
:101CA000FFF79AFF052000F01BFE2C21092253208C
:101CB000FFF792FF052000F013FE012008BD002071
:101CC00008BD10B568200021FFF7BAFF00F07E04C0
:101CD000682C21D120463E218022FFF77DFF052080
:101CE00000F0FEFD204616211B22FFF775FF0520A0
:101CF00000F0F6FD204615211322FFF76DFF0520A9
:101D000000F0EEFD20463E210322FFF765FF0A208A
:101D100000F0E6FD012010BD002010BD10B5FFF75A
:101D2000ADFF104C2076FFF7CCFF6076FFF76CFF1D
:101D3000237EA07623B90C480C4A0321FFF768FDE7
:101D4000637E23B908480A4A0321FFF761FDA37E99
:101D500023B90548074A0321FFF75AFD064B002225
:101D60001A7010BD4892FF1F8C89FF1F7963000015
:101D700092630000A76300006487FF1F70B5234DC6
:101D80000023532032212B70FFF712FF20485321EC
:101D9000062203F03DFE1E481E4C03F01FFC40B11E
:101DA0001B482E7803F024FC2B78A05501332B70B0
:101DB000F1E723786078184D43EA002000B203F081
:101DC00023FA164903F028FB02F0FEFEA378C5E9CA
:101DD0000201E07843EA002000B203F015FA0F494F
:101DE00003F01AFB02F0F0FE2379C5E904016079E3
:101DF00043EA002000B203F007FA084903F00CFBA5
:101E000002F0E2FEC5E9060170BD00BF5889FF1F60
:101E10008897FF1F7D89FF1F4893FF1FCDCCCC41C2
:101E200070B5234D002368201D212B70FFF7C0FEE5
:101E300020486821062203F0EBFD1E481E4C03F0EB
:101E4000CDFB40B11B482E7803F0D2FB2B78A05578
:101E500001332B70F1E763782078184D43EA0020B6
:101E600000B203F0D1F9164903F022FA02F0ACFEF9
:101E7000E378C5E90201A07843EA002000B203F04C
:101E8000C3F90F4903F014FA02F09EFE6379C5E925
:101E90000401207943EA002000B203F0B5F90849B3
:101EA00003F006FA02F090FEC5E9060170BD00BF1E
:101EB0004093FF1F8897FF1F8389FF1F2892FF1FF2
:101EC000D9239F3A70B5264D00231E2003212B7085
:101ED000FFF76EFE23481E21062203F099FD2148DC
:101EE000214C03F07BFB40B11E482E7803F080FBB1
:101EF0002B78A05501332B70F1E7637894F900003B
:101F00001A4D43EA002003F07FF9194903F0D0F994
:101F100002F05AFE6379C5E9020194F9040043EA2C
:101F2000002003F071F9124903F0C2F902F04CFEEF
:101F3000E378C5E9040194F9020043EA002003F0C4
:101F400063F90B4903F0B4F902F03EFE0122C5E942
:101F500006011E200221BDE87040FFF73DBE00BF14
:101F60007C89FF1F8897FF1F0889FF1FC892FF1FEA
:101F70001F856B3F37B52449244C6846FFF73EFA6E
:101F80009DE8030004F10C0383E80300204B636128
:101F9000237E73B1FFF7F2FE1E49D1E90223C4E9A3
:101FA0000A23D1E90423C4E90C23D1E90623C4E9B7
:101FB0000E23637E154D73B1FFF732FF1649D1E949
:101FC0000223C5E91223D1E90423C5E91423D1E989
:101FD0000623C5E91623A37E0C4D73B1FFF772FFEC
:101FE0000E49D1E90223C5E91A23D1E90423C5E941
:101FF0001C23D1E90623C5E91E2304490848FEF73E
:10200000F6FE03B030BD00BF8C89FF1F4892FF1F52
:10201000BF6300004893FF1F2892FF1FC892FF1F55
:10202000A093FF1FFFFFFFFF2DE9F0413C4B3D4C0C
:10203000196822688A1A632A984604D9FFF790F92A
:10204000D8F800302360384BD8F800201B68D31A2A
:10205000B3F5C87F02D3FFF7BBF932E0334B002260
:10206000D3E90001324B02F003FE29A3D3E9002398
:1020700002F028FF2F4B04460D460022D3E9000151
:102080002B4B02F0F5FD24A3D3E9002302F0F0FD71
:102090001FA3D3E9002302F015FF06460F46324680
:1020A0003B462046294602F02FFC234B3246C3E92B
:1020B00002013B462046294602F028FC1F4BC3E99B
:1020C00002011F4CD8F800202368D31A632B04D9CF
:1020D000FFF752FB124B1B6823601A4BD8F8001015
:1020E0001A688A1A632A1C460AD9174B1B7813B13F
:1020F000FFF714FE01E0FFF73DFFD8F80030236042
:102100001248FFF70DFABDE8F08100BFAFF3008081
:1021100000000000018DDC3F000000400AD7C33FF3
:102120007894FF1F6489FF1F5C89FF1F2092FF1FA7
:1021300000004E401089FF1F1889FF1FE892FF1F03
:102140004493FF1F6089FF1F6487FF1F8C89FF1F57
:1021500008B5FFF76DFBFFF767FF01F0A1F9FAE79C
:10216000844641EA000313F003036DD1403A41D3A2
:1021700051F8043B40F8043B51F8043B40F8043B61
:1021800051F8043B40F8043B51F8043B40F8043B51
:1021900051F8043B40F8043B51F8043B40F8043B41
:1021A00051F8043B40F8043B51F8043B40F8043B31
:1021B00051F8043B40F8043B51F8043B40F8043B21
:1021C00051F8043B40F8043B51F8043B40F8043B11
:1021D00051F8043B40F8043B51F8043B40F8043B01
:1021E00051F8043B40F8043B51F8043B40F8043BF1
:1021F000403ABDD2303211D351F8043B40F8043B91
:1022000051F8043B40F8043B51F8043B40F8043BD0
:1022100051F8043B40F8043B103AEDD20C3205D3A0
:1022200051F8043B40F8043B043AF9D2043208D098
:10223000D2071CBF11F8013B00F8013B01D30B880A
:1022400003806046704700BF082A13D38B078DD0E8
:1022500010F003038AD0C3F10403D21ADB071CBFBA
:1022600011F8013B00F8013B80D331F8023B20F824
:10227000023B7BE7043AD9D3013A11F8013B00F85D
:10228000013BF9D20B7803704B7843708B788370E5
:1022900060467047024B1A6801321A60704700BFEF
:1022A0007894FF1F08B50B4C2368580301D500F044
:1022B00045FC2368590501D501F050FD23681A0536
:1022C00001D502F009F82368DB04ECD502F05AFAD4
:1022D000E9E700BF3480044008B5FFF7E3FFFFFFE4
:1022E000014B10221A807047002005407047FFFF05
:1022F000024A136818441060184670477487FF1F1D
:10230000EFF313839BB9EFF3108098B9EFF30583D4
:1023100023B10F2B04D9084A985C01E04FF4807078
:10232000EFF311833BB1834238BF184670474FF03B
:10233000FF30704718467047F0E300E01F4B10B5C0
:102340001C681C60E00304D51D4B1A680AB11B68A9
:102350009847A10304D51A4B5A680AB15B6898479D
:10236000E20704D5164B1A6C0AB11B6C9847A307F9
:1023700004D5134B5A6C0AB15B6C9847200704D5FF
:102380000F4B9A6C0AB19B6C9847610704D50C4BB4
:10239000DA6C0AB1DB6C9847220304D5084B5A6EFD
:1023A0000AB15B6E9847630306D5054BD3F88020CE
:1023B00012B1D3F88030984710BD00BFA0A00440F0
:1023C000F093FF1F2C4B10B51C681C60200704D530
:1023D0002A4B5A6A0AB15B6A9847E10604D5274B33
:1023E0009A6A0AB19B6A9847620604D5234BDA6A57
:1023F0000AB1DB6A9847230604D5204B1A6B0AB151
:102400001B6B9847A00604D51C4B5A6B0AB15B6B3B
:102410009847E10704D5194BDA6B0AB1DB6B984793
:10242000A20704D5154B9A6D0AB19B6D98476307B7
:1024300004D5124BDA6D0AB1DB6D9847A00504D5BF
:102440000E4BDA6E0AB1DB6E9847E10504D50B4BF3
:102450001A6F0AB11B6F9847620504D5074B5A6F74
:102460000AB15B6F9847230504D5044B9A6F0AB1F4
:102470009B6F984710BD00BFA0B00440F093FF1FB2
:102480001E4B10B51C681C60E00704D51C4B9A68F5
:102490000AB19B689847210604D5194B5A690AB1BD
:1024A0005B699847E20604D5154B9A690AB19B69A6
:1024B0009847630704D5124BDA690AB1DB6998477C
:1024C000200704D50E4B1A6A0AB11B6A9847A10768
:1024D00004D50B4B9A6B0AB19B6B9847A20604D5A7
:1024E000074B1A6D0AB11B6D9847630604D5044B60
:1024F0005A6D0AB15B6D984710BD00BFA0C0044083
:10250000F093FF1F114B10B51C681C60E00404D54C
:102510000F4BDA680AB1DB689847A10404D50C4B6D
:102520001A690AB11B699847A20604D5084B1A6EAE
:102530000AB11B6E9847E30606D5054BD3F88420F5
:1025400012B1D3F88430984710BD00BFA09004406A
:10255000F093FF1F094B10B51C681C60A20704D53F
:10256000074B9A6E0AB19B6E9847E30704D5044B5C
:10257000DA6F0AB1DB6F984710BD00BFA0D00440EE
:10258000F093FF1F212830B531D8042A2FD8DFE877
:1025900002F00709050B03000B2306E00A2304E001
:1025A000082302E00C2300E00923114A114D02EB3D
:1025B000C0025468104AC2F89C51104DC2F8A05194
:1025C0000F4DC2F8A4510F4DC2F8A8510E4DC2F8DC
:1025D000AC5172B622680D4D22F47022226042F096
:1025E000807242EA034345F82010236062B630BD92
:1025F000E4630000052500000082FF1F3D2300006A
:10260000C52300008124000055250000F093FF1F22
:10261000094B03EBC0035A6872B6136823F0877343
:1026200023F4803343F080731360044B002243F89B
:10263000202062B6704700BFE4630000F093FF1FE4
:10264000044B054900221A600A60044A10601022F7
:102650001A60704714D0034004D0034000D00340F8
:10266000212810B518D80D4A52F8303093F880421E
:102670003CB1012211B183F8802010BD83F8002104
:1026800010BD02EBC00043681A6811B142F00302AA
:1026900001E022F002021A6010BD00BFE4630000F6
:1026A000212816D80B4A02EBC00301295B6852F8B7
:1026B000302004D182F880124FF4A27208E000208A
:1026C00082F8800211B94FF4807201E040F20312E7
:1026D0001A607047E4630000282838B5604A044651
:1026E0000B4611D112780B2A04D8C2F10C0201FA60
:1026F00002F304E00C2A1CBF0C3A41FA02F318461C
:10270000BDE8384001F0CEB811780125002B05FA5C
:1027100001F2D8BF002102DD934205D32946FFF71D
:102720009FFF2046294697E00338C2B2012A01D80C
:102730004C4A06E0202C01D0192C01D14A4A00E075
:102740004A4A126802FB0332CA401D287BD8DFE8E0
:1027500000F0575F4E337A7A212A7A7A7A7A7A7A37
:102760007A7A7A3C450F187A707A7A7A7A7A7A6726
:102770003F4B1A6003F5973340F2444203F5FA7376
:102780005FE03C4B1A6003F5973340F2444203F597
:10279000F87356E0384B1A6003F5973340F2444221
:1027A00003F5F6734DE0354B1A6003F5973340F2AD
:1027B000444203F5F47344E0314B1A6003F59F3350
:1027C00040F2444203F5F0733BE02E4B1A6003F5F0
:1027D0009F3340F2444203F5EE7332E02A4B1A6015
:1027E00003F59F3340F2444203F5EC7329E0274B95
:1027F0001A6003F59F3340F2444203F5EA7320E088
:10280000234B1A6003F580334FF45172203318E0E4
:10281000204B1A6003F580334FF451721C3310E0E3
:102820001D4B1A60A3F5DB234FF45172A3F5F96336
:1028300007E01A4B1A60A3F5DB234FF45172A3F2A1
:10284000CC731A6038BD7F2B2046D4BF00210121F4
:10285000FFF706FF20460121BDE83840FFF720BF03
:102860007887FF1F0890034008800B4008800340D2
:1028700010800340188003402080034028800340DC
:10288000308003403880034040800340488003404C
:10289000109003401890034010800B4018800B40AC
:1028A00072B60C4B0C491A680C4B1B68096862B66F
:1028B000490102D5322A88BF0133C2F58C32482142
:1028C00002F23F12B2FBF1F24FF47A7000FB0320E8
:1028D000704700BF18E000E004ED00E07894FF1FAF
:1028E00038B50446FFF7DCFF054624B938BD013C86
:1028F0000AD005F57A75FFF7D3FF401BB0F57A7F54
:10290000F5D200F0CDFDF6E738BDFFFF1F4B4FF4C9
:10291000000210B51A604FF080721A604FF000721A
:102920001A604FF080621A604FF000621A60184B14
:10293000184A194C002048F6FF7118605960282386
:1029400013609360136193611362936213639363E3
:102950000922226004F58054043420606160A36081
:10296000236144F8042C04F5FE2420600B48016028
:102970000B490B608B600B4B1A6000F037FFFA209D
:10298000FFF7AEFFBDE8104000F0D6BB08E100E065
:10299000048003400C8003400080034008800B400B
:1029A0000C800B4000800B40F0B50C4B0C4C1A789F
:1029B00042F0020504EBC50682F00102706009488E
:1029C0001A700678002E0CBF8827C82786F00106EB
:1029D00047EA0141067044F83510F0BDE494FF1F4A
:1029E0000080FF1F5C95FF1F431E032B10B510D8FE
:1029F00072B6094A52F8230048B1416842F82310E0
:102A0000064A018832F81340611A22F8131062B6A0
:102A100010BD002010BD00BFD494FF1F3098FF1FD1
:102A2000013803280AD872B6054B53F8203000202D
:102A300013B101305B68FBE762B670470020704756
:102A40002895FF1F10B572B60123174A1A4412F8D1
:102A5000012C12071CD59900144A52F831402CB9A8
:102A600002EB431308305860114B09E041F00101BB
:102A700052F8314064B902EBC103083058600D4B85
:102A800042F831300C4B1A78013A1A7062B610BD18
:102A90000133052BD9D162B6074B00221A70BDE86D
:102AA000104000F0C5BB00BF206600000080FF1F83
:102AB00088004000C80040005295FF1F431E032BB2
:102AC00030B532D8194A400140F01000104472B6B7
:102AD000174CE25C032A09D8DFE802F01602180559
:102AE0000830022213E00830042210E01148124A94
:102AF00050F8234014B940F8231002E052F82300A4
:102B0000416042F823100FE0032200E00522E25466
:102B100010F0080F01F108030A8843600CBF8823F6
:102B2000C82343EA0243036062B630BD0080FF1F42
:102B30009094FF1F2895FF1F3895FF1F2DE9F84F30
:102B4000AB4F3C78E4B214F0040F3D4619D0A94BCA
:102B50001B78A3B1A84A117801F0FF0321B1013B12
:102B6000DBB2137003B900BEA44A117801F0FF0371
:102B700029B1013BDBB213700BB900F06DFC0423EB
:102B80003B7004F0080303F0FF02002B00F06782A3
:102B90009B4B9C4C1A78D2B215094FEA920840F030
:102BA000E48104EBC803596854F83830C3F3830355
:102BB000013B0C2B00F2D681DFE813F09501950163
:102BC000D401D401D401D401D401D401B001D40181
:102BD000D401D4010D008C4D0A684B688B486B60A2
:102BE00001218B4B44F838302A60DFF850820170A5
:102BF00092B240F2816000238242C8F80030236123
:102C0000A36117D8B2F5D06F80F01E81B2F5817F35
:102C100000F0CF8006D8802A00F0BA80822A00F027
:102C2000BB8031E140F202339A4200F0D180B2F52C
:102C3000A06F1CE042F22100824200F051810ED8C8
:102C4000B2F5086F00F09E80B2F5106F40F01C8165
:102C5000684B6C4EAA781A7006F180090AE042F2BD
:102C600021218A4200F0088142F221339A4200F089
:102C70000F8109E1336A1B0603D5706A083800F03A
:102C8000D7FA08364E45F5D10026B146DFF8B0A197
:102C900056F80A0028B1D0F804B000F0C9FA584636
:102CA000F8E74AF806005B4BDFF898A1F05056F8B9
:102CB0000A0028B1D0F804B000F0BAFA5846F8E794
:102CC000554B4AF80600F050544B23F81900544B6A
:102CD00019F80320023A032A08D8DFE802F00204B8
:102CE0000204002200E0012203F8092009F1010991
:102CF000B9F1040F06F10406C8D14A4B00221A703C
:102D000001269A46484A494B3244334412F8012C72
:102D10009B0012F0080F1A704FEA860925D000F0C8
:102D200069FA38B104EB461308305860404B44F858
:102D3000393006E09AF8003044F8390001338AF857
:102D4000003000F057FA49F0010338B104EBC30238
:102D5000083050602E4A44F8332006E044F833002F
:102D60009AF8003001338AF8003049F00202013647
:102D700049F003090023052E44F8323044F8393075
:102D8000C0D186E01B4B2B4C1B7823700B4683E095
:102D9000284C237063707EE0AA88042A74D8254CDE
:102DA000920023706370244B9B5C9E0773D5217047
:102DB00071E0AA8802F07F02042A65DC6B88002B90
:102DC00062D191001C4A0A44117821F0020159E0B5
:102DD000AA8802F07F02042A56DC6B88002B53D1AC
:102DE0009100154A0A44117841F002014AE000BFFF
:102DF000802007405B95FF1FE594FF1F7095FF1F24
:102E0000902007400080FF1F4895FF1F5C95FF1F23
:102E1000C80040008094FF1F3895FF1F3098FF1FA7
:102E20009094FF1F5295FF1F2066000030C80110CC
:102E3000880040005395FF1FC02007407C94FF1F6F
:102E4000D494FF1F2895FF1F6A88A9889F4B53F8C9
:102E5000084CA3F10C00BCB133F80C6C964209D1BC
:102E600033F80A6C8E4205D1120A032A0CBF23786C
:102E7000038911E00C33EAE7954A1168954A11601D
:102E8000A978954A117004E0944B0F221A7027E03C
:102E900000231C4600E00223EE88B34238BF1E46E2
:102EA000402E34BF3546402520462946FFF77CFD9D
:102EB000761B2C4403D1402D12D1354603E0402E21
:102EC00034BF3546402520462946FFF76DFD761B69
:102ED0002C4401D1402D03D1814AC8F8004016800E
:102EE0000122804B3DE0804B1A8842F221039A4236
:102EF00010D100237D4AC85C98540133072BF9D1C7
:102F00001368862B02D17A4B0F221A7000200146DB
:102F1000FFF74AFD774B44F8383023E0764E3568AA
:102F2000B5B1DFF8BC81B8F80090B9F1400F34BFFB
:102F30004C46402428462146FFF736FDC4EB0903E2
:102F40009BB2A8F800300BB9402C00D12B1933608C
:102F5000654B1A88B2F5A06F04D100225A709A7896
:102F6000664B1A7001225F4B6CE004EBC806013D12
:102F7000736802F00802A3F10800EDB202F0FF014D
:102F8000002A36D000F054F95D485E4B50F82520F9
:102F9000EAB1516840F8251002F108017160595DED
:102FA00003290BD8DFE801F002040608032104E03E
:102FB000022102E0052100E00421595516F0080F16
:102FC00012880CBF8823C82343EA024342E05A5DBB
:102FD000032A07D8DFE802F040400204002206E09E
:102FE000012204E016F0080F0CBF022203225A55FA
:102FF00032E054F83820120C23F8082C22B3DFF802
:1030000034E123F8061C43F8041C5EF825303E49E1
:1030100013B94EF8250002E051F8253058603B4BBB
:1030200041F8250033F815100A4423F8152000F064
:10303000E1F810B10830706006E0354B44F8380014
:103040001A7801321A7007E02A4B324A16F0080F3C
:1030500008BF134644F8383008233B7070E5E0079A
:103060001FD520492B482C4C02230B702B4B1A7078
:103070002B4B186098602B48D8601A619A615C608D
:10308000164B0D2018702848FF2303702B70027414
:10309000264A1370264B9F221A7001230B70BDE83D
:1030A000F88F210604D50D4B0D221A7080232B704A
:1030B000A20705D51C4B1A78D2B21A7002232B70C6
:1030C000E30644BF10232B70BDE8F88F3066000084
:1030D0007894FF1F4098FF1F8095FF1FC020074076
:1030E0005095FF1F942007404895FF1F3898FF1FF9
:1030F000E594FF1FC80040007C94FF1F9820074004
:103100002895FF1F9094FF1F8094FF1F3098FF1F8A
:103110005295FF1F880040009494FF1FE494FF1F06
:103120000080FF1FE894FF1F882007408C20074085
:1031300084200740D494FF1F08B501F08BFB0022C8
:103140001A4B0021D15098180832882A4160F7D1D3
:10315000174A106840F48020106002F52832683267
:10316000C3F307201070C3F307401B0E10751376CE
:10317000FF2302F81C3C02F8143C02F88C3C0123AB
:1031800002F8083C82F8641002F8183C094B7022DF
:103190006FF450711A700B444FF400721A6003F10F
:1031A000C04303F5C82310221A7008BD0080FF1F1A
:1031B0003480044049E400E000F09EB800F05AB8C2
:1031C00000F07EB800F01AB9084600F00BB90846C6
:1031D000114600F09FB87047044B00221A714FF45B
:1031E0007A711A73024A99601A6070476095FF1FDE
:1031F0000065000072B60C4A1168B1FA81F30B2B1E
:1032000002D962B6002070474FF00040D84021EA52
:103210000001116062B6054948225343C8180022D4
:10322000CA504260704700BF7C87FF1F0084FF1FA9
:103230000C4B4822C31AB3FBF2F30B2B11D80A4AEA
:10324000127822B1094A12780AB1FFF7FBBB72B6B5
:10325000074A4FF0004121FA03F311681943116046
:1032600062B670470084FF1F5295FF1F5B95FF1FDA
:103270007C87FF1F10B5104C23686BB12068428813
:10328000531C0244147A0288934212D3FFF7D0FFF2
:10329000094B00221A600DE0084B1B7813B94FF060
:1032A000FF3010BD0320FFF79FFB20600028E5D111
:1032B000F5E74380204610BD7C95FF1F5B95FF1FFF
:1032C00010B50B4C236813B123686BB902E0094BAE
:1032D0001B7813B94FF0FF3010BD0320FFF784FBBC
:1032E00020600028F0D1F5E75A881344187A10BD01
:1032F0007C95FF1F5B95FF1F044B9888044B1B6850
:103300001BB11A885B88D31A184470473098FF1F86
:103310007C95FF1F2DE9F8432D4E012307460C46EF
:103320003370002C4FD02B4D2B68A9462BBB48F691
:103330000148294B1B7803F0FF020BB9327015E0EE
:103340000420FFF76DFB072808D801233370FFF72F
:1033500051FFC9F8000080B91D4B1870B8F1010881
:103360001E4B01D01A782AB101221A704FF0FF309B
:10337000BDE8F88300F094F8DBE72968174A48882D
:1033800000231370C0F14002944238BF224600F17E
:10339000080C10448C444880A41A934204D0F85C72
:1033A0000CF803000133F8E71F444B883F2B06D984
:1033B00040230B800420FFF781FB00232B60084B88
:1033C00005221A70ADE734702046BDE8F88300BFCF
:1033D0007195FF1F7495FF1F5B95FF1F7895FF1F69
:1033E0007095FF1F07B502AB012103F8010D1846C8
:1033F000FFF790FF03B05DF804FBFFFF2DE9F041FC
:10340000114B1B78F3B1114E114B3468114D01274C
:103410001F7098464CB1002763882F7004202380CA
:103420002146FFF74BFB376009E0FFF7E3FE01465B
:1034300020B104202C70FFF741FB00E02F70002327
:1034400088F80030BDE8F0815B95FF1F7495FF1F81
:103450007195FF1F7095FF1F38B50E4B1B7803F059
:10346000FF05ABB90C4C216831B14B880B800420AF
:10347000FFF724FB256038BDFFF7BCFE014620B1F5
:103480000420BDE83840FFF719BB044B01221A7035
:1034900038BD00BF7195FF1F7495FF1F7095FF1F0A
:1034A00010B50E4C2378BBB901232370FFF724FF1E
:1034B00008B1FFF790FE00F0DBFB08B100F083F8E5
:1034C00000F094FE08B100F000F901F0F7F808B13F
:1034D00000F07DF90023237010BD00BF8195FF1F10
:1034E00008B50368C9B21B68984708BD08B50368EA
:1034F000C9B21B68984708BD08B50368C9B21B6804
:10350000984708BD08B50368C9B21B68984708BD4D
:10351000034800EB5100B0FBF1F000F0DDB900BF53
:103520000044950810B5064800EB51001446B0FB66
:10353000F1F000F0D1F92046BDE8104000F012BAD9
:103540000044950800F038BA084600F069BA08B59A
:10355000084600F081FA003018BF012008BD08B508
:10356000084600F09BFA003018BF012008BD00F0AB
:103570007FBB00F0B7BB00F08BBB00F05DBB00F081
:10358000C9BB00F063BB08B5084600F0ADFA0120E6
:1035900008BD08B5084600F0A7FA012008BD10B51F
:1035A00008461446114600F0E9FA204610BD38B529
:1035B00008460D4602F0CEFC04462146284600F09F
:1035C000DDFA204638BD7047044B00221A714FF4D3
:1035D0007A711A73024A99601A6070478495FF1FC6
:1035E0002065000008B50368C9B21B68984708BD8C
:1035F00008B50368C9B21B68984708BD08B50368D9
:10360000C9B21B68984708BD08B50368C9B21B68F2
:10361000984708BD034800EB5100B0FBF1F000F003
:1036200021BC00BF0044950810B5064800EB5100CE
:103630001446B0FBF1F000F015FC2046BDE8104048
:1036400000F056BC0044950800F07CBC084600F031
:10365000ADBC08B5084600F0C5FC003018BF01201D
:1036600008BD08B5084600F0DFFC003018BF012097
:1036700008BD00F0BBBD00F0F3BD00F0C7BD00F019
:1036800099BD00F005BE00F09FBD08B5084600F0EA
:10369000E9FC012008BD08B5084600F0E3FC012064
:1036A00008BD10B508461446114600F025FD204619
:1036B00010BD38B508460D4602F04CFC04462146C4
:1036C000284600F019FD204638BD7047044B002203
:1036D0001A714FF47A711A73024A99601A6070472E
:1036E0009495FF1F7865000008B50368C9B21B6890
:1036F000984708BD08B50368C9B21B68984708BD5C
:1037000008B50368C9B21B68984708BD08B50368C7
:10371000C9B21B68984708BD034800EB5100B0FBD5
:10372000F1F000F05DBE00BF00A24A0410B50648EB
:1037300000EB51001446B0FBF1F000F051FE2046C2
:10374000BDE8104000F08EBE00A24A0400F0B4BEF6
:10375000084600F0E5BE08B5084600F0FDFE003062
:1037600018BF012008BD08B5084600F017FF00305B
:1037700018BF012008BD00F0A1BF00F0D9BF00F0C4
:10378000ADBF00F07FBF00F0EBBF00F085BF08B514
:10379000084600F021FF012008BD08B5084600F0EA
:1037A0001BFF012008BD10B508461446114600F065
:1037B0005DFF204610BD38B508460D4602F0CAFB35
:1037C00004462146284600F051FF204638BD704788
:1037D000044B00221A714FF47A711A73024A9960ED
:1037E0001A607047A495FF1FD065000010B5204BEC
:1037F0002048214960221A70E1225A701F4B204A4A
:103800001C78204B082C01D1012402E00A2C03D1A2
:1038100019240460132005E00C2C0CBF15243D2452
:1038200004601220086014601860174B17491B7859
:10383000174A03B101230B601360164B164A19781F
:10384000164B012901D880210BE0042901D88421DD
:1038500007E0082901D8852103E0102994BF8621BB
:103860008721116019600E4B01221A7010BD00BF34
:103870000040074008B003400CB003408087FF1FA2
:1038800008B00B400CB00B40B595FF1F20B00340B3
:1038900020B00B408187FF1F24B0034024B00B40B1
:1038A000B495FF1F084B1A6842F480521A60074B08
:1038B0001A78074B0AB1802200E0C0221A70054B2B
:1038C00080F30C00188070472C800440B595FF1FD2
:1038D00021C00C4000C00C40194B1A6842F48062B1
:1038E0001A60184A00231370174A1370174A13708E
:1038F000174A1370174A1370174B40F213321A60AD
:103900004FF451725A60154BC0F344321A70C0F331
:1039100047125A700221042200F01F0098729A7018
:10392000D9745A7588221A743C22DA700C4B4022E2
:103930006FF44A711A700B444FF400521A607047CA
:10394000348004403E96FF1FBD95FF1F4496FF1F25
:103950003F96FF1FBC95FF1F40A0044000A00640FB
:103960002DE400E0134A937800F0030103F0EC0328
:103970000B43410748BF43F01003937000F00F035F
:10398000042B0C4903D18B7943F040038B7153799D
:10399000C20603F0EF03074A48BF43F01003537118
:1039A0009379810603F0EF0348BF43F0100393714E
:1039B000704700BF00A0064008B5114B1B685B05AF
:1039C00000D408BD0F4B1A7802F0FF0312B1FFF7C5
:1039D00067FDF7E70C4A4FF4005111600B4A0C49A0
:1039E000D37040F203120A604A600A4A13700A4A0E
:1039F00013700A4B1B680BB101221A7008BD00BF7F
:103A000034800440BC95FF1F84E100E000A0064024
:103A100040A004403E96FF1FBD95FF1FB895FF1FB5
:103A200038B50446094B1B7803F0FF05002BF9D18C
:103A300020460121FEF734FE20462946FEF710FEFF
:103A4000034B53F83420034B1A6038BDBC95FF1F5D
:103A5000E46300004096FF1F0D4A38B5146814F463
:103A600080624FF0000410D021280A4D0AD80A4A7B
:103A7000012152F830302B60FEF712FE2B681C70CB
:103A8000012038BD2C60204638BD104638BD00BF2F
:103A900034800440B895FF1FE46300000E4B1B68A0
:103AA00013F4806316D012280C4B03D140F202317C
:103AB0000B4A04E0142809D10A4A40F2023111608D
:103AC0005A7B42F001025A73012070475A7B02F080
:103AD000FE025A73002070473480044000A0064064
:103AE0000CA0044014C00440F8B51D4B1B685A05D7
:103AF000064633D51B4B1B680BB101221A701A4BBB
:103B00001C780134402C1F4628BF0024174D2B7809
:103B1000A34218D1FEF7F4FB40280FDC144A1379B6
:103B20001B06F3D52B7813490133402B28BF002304
:103B3000C95CDBB2C9B2D1712B70E7E7FF28E5DDC4
:103B4000FFF7AEFCE2E70B4BF6B21E550A4B012223
:103B50001A70074BE4B2BC223C70DA70F8BD00BFAB
:103B6000348004404096FF1F4496FF1F3F96FF1F7E
:103B700000A00640BE95FF1FBC95FF1F274B1B688A
:103B80005A052DE9F04707468A4644D5244B1B6861
:103B90000BB101221A703D4607EB0A039D4237D252
:103BA000DFF890801F4E98F8004096F8009001349E
:103BB000402C28BF00245FFA89F9A1451DD11A4B7A
:103BC000BC22DA70FEF79CFB40280FDC164A137902
:103BD0001B060FD5337815490133402B28BF00232E
:103BE000C95CDBB2C9B2D171337003E0FF2801DDDB
:103BF000FFF756FC33784B45E4D00C4B15F8012BFE
:103C00001A550B4B0122E4B21A7088F80040C3E742
:103C1000054BBC22DA70BDE8F08700BF3480044059
:103C20004096FF1F3F96FF1F00A00640BE95FF1F56
:103C3000BC95FF1F4496FF1F08B5034B1B7813B1BB
:103C4000FFF72EFCF9E708BDBC95FF1F064A074B9E
:103C50001B781078DBB2C0B283422CBF3F3000F13A
:103C6000FF30C01A704700BF3F96FF1F4496FF1FEA
:103C7000054B1878054B1B78C0B2DBB2984238BFB1
:103C80004030C01A704700BF3E96FF1FBD95FF1F12
:103C900010B5104B10491A780B78D2B2DBB29A42A9
:103CA00014D00133402B28BF00230C48DCB2C05C89
:103CB0000C700B490968C0B251B19A4238BF40320A
:103CC000D31A1A2B04DC00230B7010BD4FF0FF3009
:103CD00010BD00BF3E96FF1FBD95FF1FFE95FF1F45
:103CE000B895FF1F084B1A78084B1B78DBB29A4235
:103CF00007D00133402B28BF0023054AD05CC0B257
:103D000070474FF0FF3070473E96FF1FBD95FF1F75
:103D1000FE95FF1F0C4B1B685B0514D50B4BDA7827
:103D200002F0CB02DA7040225A74DA7842F03402A0
:103D3000DA70074B1A78074BD2B21A70064B1B6821
:103D40000BB100221A7070473480044000A0064076
:103D5000BD95FF1F3E96FF1FB895FF1F30B5374B2F
:103D60001A7912F0300F31D072B69A7D02F0FF004E
:103D700022B9DA7940225A7462B627E062B6304A34
:103D8000304913780978DBB2C9B214462B4AD57989
:103D90005A1C402A28BF00228A42EDB202D02A4B88
:103DA0009D541346421E12F0FF00EFD1DAB222708A
:103DB000264A126852B18B4236BFC1F14001C1EBB5
:103DC00003035B18272BC4BF012313701B4BD97847
:103DD000C9B20C0620D51B7918061DD51C4B1D4AEF
:103DE0001D781378EDB2DBB21046AB420CD0134A0B
:103DF0000133402B1479184C28BF0023E45CE4B253
:103E0000D471127D072AF0D9DBB203700B4B1A79FB
:103E1000120644BF7C22DA704B060ED5074B1A7986
:103E200012F0400F194608D00C4B00221A700C4BB0
:103E30001B6803B11A703C23CB7030BD00A0064054
:103E40003E96FF1FBD95FF1FFE95FF1FB895FF1FF4
:103E50004496FF1F3F96FF1FBE95FF1FBC95FF1F97
:103E60004096FF1F194B1A6842F400621A60184A04
:103E700000231370174A1370174A1370174A1370F0
:103E8000174A1370174B40F213321A604FF45172F5
:103E90005A60154BC0F344321A70C0F347125A707F
:103EA00000F01F000422022198729A70D9745A758A
:103EB00088221A743C22DA700C4B40221A70A3F24A
:103EC0002B334FF400421A60704700BF3480044027
:103ED000B696FF1F4D96FF1FBC96FF1FB796FF1F9C
:103EE0004C96FF1F0CB0044000B006402FE400E0E9
:103EF000134A937800F0030103F0EC030B434107EE
:103F000048BF43F01003937000F00F03042B0C49DB
:103F100003D18B7943F040038B715379C20603F0D0
:103F2000EF03074A48BF43F01003537193798106AA
:103F300003F0EF0348BF43F010039371704700BFD5
:103F400000B0064008B5114B1B681B0500D408BD26
:103F50000F4B1A7802F0FF0312B1FFF7A1FAF7E74F
:103F60000C4A4FF4004111600B4A0C49D37040F2E7
:103F700003120A604A600A4A13700A4A13700A4B15
:103F80001B680BB101221A7008BD00BF34800440C9
:103F90004C96FF1F84E100E000B006400CB00440E6
:103FA000B696FF1F4D96FF1F4896FF1F38B5044673
:103FB000094B1B7803F0FF05002BF9D120460121A6
:103FC000FEF76EFB20462946FEF74AFB034B53F8EB
:103FD0003420034B1A6038BD4C96FF1FE463000089
:103FE000B896FF1F0D4A38B5146814F400624FF0FC
:103FF000000410D021280A4D0AD80A4A012152F89B
:1040000030302B60FEF74CFB2B681C70012038BD54
:104010002C60204638BD104638BD00BF34800440B7
:104020004896FF1FE46300000B4B1B6813F400630A
:1040300010D01728094B09D1094A40F2023111600A
:104040005A7B42F001025A73012070475A7B02F0FA
:10405000FE025A73002070473480044000B00640CE
:1040600008B00440F8B51D4B1B681A05064633D549
:104070001B4B1B680BB101221A701A4B1C780134C0
:10408000282C1F4628BF0024174D2B78A34218D197
:10409000FEF736F940280FDC144A13791B06F3D5D6
:1040A0002B7813490133282B28BF0023C95CDBB2CE
:1040B000C9B2D1712B70E7E7FF28E5DDFFF7F0F912
:1040C000E2E70B4BF6B21E550A4B01221A70074B62
:1040D000E4B2BC223C70DA70F8BD00BF348004400A
:1040E000B896FF1FBC96FF1FB796FF1F00B0064093
:1040F0004E96FF1F4C96FF1F274B1B681A052DE994
:10410000F04707468A4644D5244B1B680BB1012271
:104110001A703D4607EB0A039D4237D2DFF89080C4
:104120001F4E98F8004096F800900134282C28BFC4
:1041300000245FFA89F9A1451DD11A4BBC22DA701F
:10414000FEF7DEF840280FDC164A13791B060FD560
:10415000337815490133282B28BF0023C95CDBB213
:10416000C9B2D171337003E0FF2801DDFFF798F980
:1041700033784B45E4D00C4B15F8012B1A550B4BFB
:104180000122E4B21A7088F80040C3E7054BBC2254
:10419000DA70BDE8F08700BF34800440B896FF1F96
:1041A000B796FF1F00B006404E96FF1F4C96FF1FAC
:1041B000BC96FF1F08B5034B1B7813B1FFF770F9CE
:1041C000F9E708BD4C96FF1F064A074B1B7810788D
:1041D000DBB2C0B283422CBF273000F1FF30C01ADF
:1041E000704700BFB796FF1FBC96FF1F054B18789E
:1041F000054B1B78C0B2DBB2984238BF4030C01AC2
:10420000704700BFB696FF1F4D96FF1F10B5104BAD
:1042100010491A780B78D2B2DBB29A4214D001332B
:10422000402B28BF00230C48DCB2C05C0C700B494B
:104230000968C0B251B19A4238BF4032D31A1A2B22
:1042400004DC00230B7010BD4FF0FF3010BD00BF29
:10425000B696FF1F4D96FF1F7696FF1F4896FF1FCD
:10426000084B1A78084B1B78DBB29A4207D001330F
:10427000402B28BF0023054AD05CC0B270474FF0E6
:10428000FF307047B696FF1F4D96FF1F7696FF1FB3
:104290000C4B1B681B0514D50B4BDA7802F0CB02D4
:1042A000DA7040225A74DA7842F03402DA70074B3E
:1042B0001A78074BD2B21A70064B1B680BB100225A
:1042C0001A7070473480044000B006404D96FF1FBE
:1042D000B696FF1F4896FF1F30B5374B1A7912F07C
:1042E000300F31D072B69A7D02F0FF0022B9DA7930
:1042F00040225A7462B627E062B6304A30491378D9
:104300000978DBB2C9B214462B4AD5795A1C402A27
:1043100028BF00228A42EDB202D02A4B9D54134698
:10432000421E12F0FF00EFD1DAB22270264A126864
:1043300052B18B4236BFC1F14001C1EB03035B18A0
:10434000272BC4BF012313701B4BD978C9B20C06AD
:1043500020D51B7918061DD51C4B1D4A1D781378D6
:10436000EDB2DBB21046AB420CD0134A0133282B1E
:104370001479184C28BF0023E45CE4B2D471127D98
:10438000072AF0D9DBB203700B4B1A79120644BF2F
:104390007C22DA704B060ED5074B1A7912F0400FCB
:1043A000194608D00C4B00221A700C4B1B6803B145
:1043B0001A703C23CB7030BD00B00640B696FF1F8C
:1043C0004D96FF1F7696FF1F4896FF1FBC96FF1F56
:1043D000B796FF1F4E96FF1F4C96FF1FB896FF1F04
:1043E000174B1A6842F480521A60164A0023137061
:1043F000154A1370154A1370154A1370154A137035
:10440000154A40F2133111604FF451715160134A53
:10441000C0F344311170C0F3471100F01F00517018
:104420009072937013742C23D3700D4B40226FF451
:104430004B711A700B444FF400321A60704700BF82
:10444000348004402E97FF1FC596FF1F3497FF1F2F
:104450002F97FF1FC496FF1F08C0044000C00640EE
:1044600031E400E0134A937800F0030103F0EC0319
:104470000B43410748BF43F01003937000F00F0354
:10448000042B0C4903D18B7943F040038B71537992
:10449000C20603F0EF03074A48BF43F0100353710D
:1044A0009379810603F0EF0348BF43F01003937143
:1044B000704700BF00C0064008B5114B1B68DB0405
:1044C00000D408BD0F4B1A7802F0FF0312B1FEF7BB
:1044D000E7FFF7E70C4A4FF4003111600B4A0C4933
:1044E000D37040F203120A604A600A4A13700A4A03
:1044F00013700A4B1B680BB101221A7008BD00BF74
:1045000034800440C496FF1F84E100E000C00640F0
:1045100008C004402E97FF1FC596FF1FC096FF1FBF
:1045200038B50446094B1B7803F0FF05002BF9D181
:1045300020460121FEF7B4F820462946FEF790F800
:10454000034B53F83420034B1A6038BDC496FF1F49
:10455000E46300003097FF1F0D4A38B5146814F467
:1045600080524FF0000410D021280A4D0AD80A4A80
:10457000012152F830302B60FEF792F82B681C7046
:10458000012038BD2C60204638BD104638BD00BF24
:1045900034800440C096FF1FE46300000B4B1B688F
:1045A00013F4805310D00E28094B09D1094A40F268
:1045B000023111605A7B42F001025A7301207047A8
:1045C0005A7B02F0FE025A73002070473480044088
:1045D00000C0064004C00440F8B51D4B1B68DA0457
:1045E000064633D51B4B1B680BB101221A701A4BC0
:1045F0001C780134282C1F4628BF0024174D2B7827
:10460000A34218D1FDF77CFE40280FDC144A137931
:104610001B06F3D52B7813490133282B28BF002321
:10462000C95CDBB2C9B2D1712B70E7E7FF28E5DDC9
:10463000FEF736FFE2E70B4BF6B21E550A4B01229E
:104640001A70074BE4B2AC223C70DA70F8BD00BFC0
:10465000348004403097FF1F3497FF1F2F97FF1FB0
:1046600000C00640C696FF1FC496FF1F38B504461B
:104670004518AC4204D014F8010BFFF7ADFFF8E782
:1046800038BDFFFF08B5034B1B7813B1FEF708FFD9
:10469000F9E708BDC496FF1F064A074B1B78107840
:1046A000DBB2C0B283422CBF273000F1FF30C01A0A
:1046B000704700BF2F97FF1F3497FF1F054B1878D7
:1046C000054B1B78C0B2DBB2984238BF4030C01AED
:1046D000704700BF2E97FF1FC596FF1F10B5104BE8
:1046E00010491A780B78D2B2DBB29A4214D0013357
:1046F000402B28BF00230C48DCB2C05C0C700B4977
:104700000968C0B251B19A4238BF4032D31A1A2B4D
:1047100004DC00230B7010BD4FF0FF3010BD00BF54
:104720002E97FF1FC596FF1FEE96FF1FC096FF1F17
:10473000084B1A78084B1B78DBB29A4207D001333A
:10474000402B28BF0023054AD05CC0B270474FF011
:10475000FF3070472E97FF1FC596FF1FEE96FF1F75
:10476000054B1A78054BD2B21A70054B1B680BB17A
:1047700000221A70704700BFC596FF1F2E97FF1FBB
:10478000C096FF1F10B5294B1A79920620D5284AEA
:10479000D879137827490133402B097828BF0023A3
:1047A0008B42C0B203D02449C854D9B21170234AF5
:1047B000116869B1224A1278D2B2934236BFC2F16F
:1047C0004002C2EB03039B18272BC4BF01230B70CD
:1047D000164AD178C9B20C0616D51379180613D526
:1047E000184B17481C780378DBB29C4202D16C232B
:1047F000D37009E00133282B28BF0023124CE45C5E
:10480000DBB2E4B2D47103704B060ED5074B1A79B4
:1048100012F0400F194608D00C4B00221A700C4BB6
:104820001B6803B11A702C23CB7010BD00C006406A
:104830002E97FF1FC596FF1FEE96FF1FC096FF1F06
:104840002F97FF1F3497FF1FC696FF1FC496FF1FA9
:104850003097FF1F1FB572B6154B70221A70154A9C
:10486000412111700F2102F8011C80221A701A7860
:104870001206FCD5104B186862B6104B984298BFD0
:104880000A2301AC98BF584321460A2200F01AF8C7
:104890000023E15C0A4A29B102EB430001330A2BF1
:1048A0004180F6D101335B00137004B010BD00BF2E
:1048B0000000024007000240080002407F96980076
:1048C0000A88FF1F10B50023B0FBF2F402FB1400AE
:1048D000092894BF30303730C0B2C85420460CB1DC
:1048E0000133F1E7CA18547022469A4206DA885C0E
:1048F000CC5C8C54C8540132013BF6E7084610BD2D
:1049000081F0004102E000BF83F0004330B54FEA80
:1049100041044FEA430594EA050F08BF90EA020FED
:104920001FBF54EA000C55EA020C7FEA645C7FEA80
:10493000655C00F0E2804FEA5454D4EB5555B8BFA3
:104940006D420CDD2C4480EA020281EA030382EA14
:10495000000083EA010180EA020281EA0303362DA6
:1049600088BF30BD11F0004F4FEA01314FF4801C79
:104970004CEA113102D0404261EB410113F0004F8B
:104980004FEA03334CEA133302D0524263EB430342
:1049900094EA050F00F0A780A4F10104D5F1200EE0
:1049A0000DDB02FA0EFC22FA05F2801841F100013B
:1049B00003FA0EF2801843FA05F359410EE0A5F10F
:1049C00020050EF1200E012A03FA0EFC28BF4CF040
:1049D000020C43FA05F3C01851EBE37101F00045F6
:1049E00007D54FF0000EDCF1000C7EEB00006EEB03
:1049F0000101B1F5801F1BD3B1F5001F0CD349088D
:104A00005FEA30004FEA3C0C04F101044FEA4452E3
:104A100012F5800F80F09A80BCF1004F08BF5FEA6A
:104A2000500C50F1000041EB045141EA050130BD4A
:104A30005FEA4C0C404141EB010111F4801FA4F1ED
:104A40000104E9D191F0000F04BF01460020B1FA42
:104A500081F308BF2033A3F10B03B3F120020CDA7A
:104A60000C3208DD02F1140CC2F10C0201FA0CF058
:104A700021FA02F10CE002F11402D8BFC2F1200CBD
:104A800001FA02F120FA0CFCDCBF41EA0C01904073
:104A9000E41AA2BF01EB0451294330BD6FEA0404BC
:104AA0001F3C1CDA0C340EDC04F11404C4F12002A7
:104AB00020FA04F001FA02F340EA030021FA04F3B9
:104AC00045EA030130BDC4F10C04C4F1200220FA10
:104AD00002F001FA04F340EA0300294630BD21FA4E
:104AE00004F0294630BD94F0000F83F4801306BF14
:104AF00081F480110134013D4EE77FEA645C18BF08
:104B00007FEA655C29D094EA050F08BF90EA020F9E
:104B100005D054EA000C04BF1946104630BD91EA96
:104B2000030F1EBF0021002030BD5FEA545C05D199
:104B30004000494128BF41F0004130BD14F58004D8
:104B40003CBF01F5801130BD01F0004545F0FE414C
:104B500041F470014FF0000030BD7FEA645C1ABF81
:104B6000194610467FEA655C1CBF0B46024650EAB8
:104B7000013406BF52EA033591EA030F41F40021E4
:104B800030BD00BF90F0000F04BF0021704730B56A
:104B90004FF4806404F132044FF000054FF000013F
:104BA00050E700BF90F0000F04BF0021704730B500
:104BB0004FF4806404F1320410F0004548BF4042D5
:104BC0004FF000013EE700BF42004FEAE2014FEA2A
:104BD00031014FEA02701FBF12F07F4393F07F4F05
:104BE00081F06051704792F0000F14BF93F07F4F37
:104BF000704730B54FF4607401F0004521F000417A
:104C000020E700BF50EA010208BF704730B54FF0FF
:104C100000050AE050EA010208BF704730B511F004
:104C2000004502D5404261EB41014FF4806404F13C
:104C300032045FEA915C3FF4DCAE4FF003025FEABE
:104C4000DC0C18BF03325FEADC0C18BF033202EB46
:104C5000DC02C2F1200300FA03FC20FA02F001FAA0
:104C600003FE40EA0E0021FA02F11444C1E600BF3F
:104C700070B54FF0FF0C4CF4E06C1CEA11541DBFF2
:104C80001CEA135594EA0C0F95EA0C0F00F0DEF8BD
:104C90002C4481EA030621EA4C5123EA4C5350EAA2
:104CA000013518BF52EA033541F4801143F48013F3
:104CB00038D0A0FB02CE4FF00005E1FB02E506F084
:104CC0000042E0FB03E54FF00006E1FB03569CF0D9
:104CD000000F18BF4EF0010EA4F1FF04B6F5007FDF
:104CE00064F5407404D25FEA4E0E6D4146EB060651
:104CF00042EAC62141EA55514FEAC52040EA5E50DA
:104D00004FEACE2EB4F1FD0C88BFBCF5E06F1ED883
:104D1000BEF1004F08BF5FEA500E50F1000041EBBA
:104D2000045170BD06F0004646EA010140EA020067
:104D300081EA0301B4EB5C04C2BFD4EB0C0541EA89
:104D4000045170BD41F480114FF0000E013C00F39E
:104D5000AB8014F1360FDEBF002001F0004170BDC2
:104D6000C4F10004203C35DA0C341BDC04F11404DB
:104D7000C4F1200500FA05F320FA04F001FA05F267
:104D800040EA020001F0004221F0004110EBD37034
:104D900021FA04F642EB06015EEA430E08BF20EA60
:104DA000D37070BDC4F10C04C4F1200500FA04F303
:104DB00020FA05F001FA04F240EA020001F0004195
:104DC00010EBD37041F100015EEA430E08BF20EA08
:104DD000D37070BDC4F1200500FA05F24EEA020E50
:104DE00020FA04F301FA05F243EA020321FA04F07F
:104DF00001F0004121FA04F220EA020000EBD37036
:104E00005EEA430E08BF20EAD37070BD94F0000F35
:104E10000FD101F00046400041EB010111F4801F69
:104E200008BF013CF7D041EA060195F0000F18BF1A
:104E3000704703F00046520043EB030313F4801F56
:104E400008BF013DF7D043EA0603704794EA0C0F10
:104E50000CEA135518BF95EA0C0F0CD050EA410626
:104E600018BF52EA4306D1D181EA030101F00041A3
:104E70004FF0000070BD50EA410606BF10461946CB
:104E800052EA430619D094EA0C0F02D150EA0136D7
:104E900013D195EA0C0F05D152EA03361CBF104618
:104EA00019460AD181EA030101F0004141F0FE41B7
:104EB00041F470014FF0000070BD41F0FE4141F43B
:104EC000780170BD70B54FF0FF0C4CF4E06C1CEA3B
:104ED00011541DBF1CEA135594EA0C0F95EA0C0FF0
:104EE00000F0A7F8A4EB050481EA030E52EA0335AB
:104EF0004FEA013100F088804FEA03334FF08055CC
:104F000045EA131343EA12634FEA022245EA1115F8
:104F100045EA10654FEA00260EF000419D4208BFA9
:104F2000964244F1FD0404F5407402D25B084FEA56
:104F30003202B61A65EB03055B084FEA32024FF402
:104F400080104FF4002CB6EB020E75EB030E22BF5F
:104F5000B61A754640EA0C005B084FEA3202B6EB1F
:104F6000020E75EB030E22BFB61A754640EA5C00CE
:104F70005B084FEA3202B6EB020E75EB030E22BF5E
:104F8000B61A754640EA9C005B084FEA3202B6EB5F
:104F9000020E75EB030E22BFB61A754640EADC001E
:104FA00055EA060E18D04FEA051545EA16754FEA80
:104FB00006164FEAC30343EA52734FEAC2025FEA9E
:104FC0001C1CC0D111F4801F0BD141EA00014FF02D
:104FD00000004FF0004CB6E711F4801F04BF0143FE
:104FE0000020B4F1FD0C88BFBCF5E06F3FF6AFAE1A
:104FF000B5EB030C04BFB6EB020C5FEA500C50F1AA
:10500000000041EB045170BD0EF0004E4EEA11312C
:1050100014EB5C04C2BFD4EB0C0541EA045170BD33
:1050200041F480114FF0000E013C90E645EA060E77
:105030008DE60CEA135594EA0C0F08BF95EA0C0FA5
:105040003FF43BAF94EA0C0F0AD150EA01347FF4ED
:1050500034AF95EA0C0F7FF425AF104619462CE7C4
:1050600095EA0C0F06D152EA03353FF4FDAE104627
:10507000194622E750EA410618BF52EA43067FF478
:10508000C5AE50EA41047FF40DAF52EA43057FF408
:10509000EBAE12E780F0004002E000BF81F000417B
:1050A00042001FBF5FEA410392EA030F7FEA226CCE
:1050B0007FEA236C6AD04FEA1262D2EB1363C1BF5E
:1050C000D218414048404140B8BF5B42192B88BFCD
:1050D000704710F0004F40F4000020F07F4018BFF0
:1050E000404211F0004F41F4000121F07F4118BF10
:1050F000494292EA030F3FD0A2F1010241FA03FCB8
:1051000010EB0C00C3F1200301FA03F100F000439F
:1051100002D5494260EB4000B0F5000F13D3B0F167
:10512000807F06D340084FEA310102F10102FE2AD6
:1051300051D2B1F1004F40EBC25008BF20F0010046
:1051400040EA03007047490040EB000010F4000FF4
:10515000A2F10102EDD1B0FA80FCACF1080CB2EB87
:105160000C0200FA0CF0AABF00EBC25052421843E6
:10517000BCBFD0401843704792F0000F81F400018B
:1051800006BF80F400000132013BB5E74FEA41035E
:105190007FEA226C18BF7FEA236C21D092EA030FCA
:1051A00004D092F0000F08BF0846704790EA010F44
:1051B0001CBF0020704712F07F4F04D1400028BF71
:1051C00040F00040704712F100723CBF00F5000053
:1051D000704700F0004343F0FE4040F40000704789
:1051E0007FEA226216BF08467FEA23630146420235
:1051F00006BF5FEA412390EA010F40F48000704748
:105200004FF0000304E000BF10F0004348BF4042ED
:105210005FEA000C08BF704743F0964301464FF029
:1052200000001CE050EA010208BF70474FF0000385
:105230000AE000BF50EA010208BF704711F00043C6
:1052400002D5404261EB41015FEA010C02BF844696
:105250000146002043F0B64308BFA3F18053A3F5F5
:105260000003BCFA8CF2083AA3EBC25310DB01FA3C
:1052700002FC634400FA02FCC2F12002BCF1004FC0
:1052800020FA02F243EB020008BF20F00100704751
:1052900002F1200201FA02FCC2F1200250EA4C00A5
:1052A00021FA02F243EB020008BF20EADC707047EB
:1052B0004FF0FF0C1CEAD0521EBF1CEAD15392EAF9
:1052C0000C0F93EA0C0F6FD01A4480EA010C4002D5
:1052D00018BF5FEA41211ED04FF0006343EA50102F
:1052E00043EA5111A0FB01310CF00040B1F5000F71
:1052F0003EBF490041EAD3715B0040EA010062F120
:105300007F02FD2A1DD8B3F1004F40EBC25008BF09
:1053100020F00100704790F0000F0CF0004C08BF27
:1053200049024CEA502040EA51207F3AC2BFD2F1F4
:10533000FF0340EAC250704740F400004FF0000302
:10534000013A5DDC12F1190FDCBF00F0004070473C
:10535000C2F10002410021FA02F1C2F1200200FA7A
:1053600002FC5FEA310040F1000053EA4C0308BF41
:1053700020EADC70704792F0000F00F0004C02BF92
:10538000400010F4000F013AF9D040EA0C0093F00D
:10539000000F01F0004C02BF490011F4000F013B67
:1053A000F9D041EA0C018FE70CEAD15392EA0C0FD5
:1053B00018BF93EA0C0F0AD030F0004C18BF31F040
:1053C000004CD8D180EA010000F00040704790F016
:1053D000000F17BF90F0004F084691F0000F91F0BA
:1053E000004F14D092EA0C0F01D142020FD193EA80
:1053F0000C0F03D14B0218BF084608D180EA010008
:1054000000F0004040F0FE4040F40000704740F0E3
:10541000FE4040F4400070474FF0FF0C1CEAD052B1
:105420001EBF1CEAD15392EA0C0F93EA0C0F69D00D
:10543000A2EB030280EA010C49024FEA402037D078
:105440004FF0805343EA111143EA10130CF000406F
:105450008B4238BF5B0042F17D024FF4000C8B425F
:1054600024BF5B1A40EA0C00B3EB510F24BFA3EB3F
:10547000510340EA5C00B3EB910F24BFA3EB91030F
:1054800040EA9C00B3EBD10F24BFA3EBD10340EA69
:10549000DC001B0118BF5FEA1C1CE0D1FD2A3FF6AF
:1054A00050AF8B4240EBC25008BF20F00100704764
:1054B0000CF0004C4CEA50207F32C2BFD2F1FF0307
:1054C00040EAC250704740F400004FF00003013A38
:1054D00037E792F0000F00F0004C02BF400010F4DC
:1054E000000F013AF9D040EA0C0093F0000F01F0F0
:1054F000004C02BF490011F4000F013BF9D041EA12
:105500000C0195E70CEAD15392EA0C0F08D1420244
:105510007FF47DAF93EA0C0F7FF470AF084676E717
:1055200093EA0C0F04D14B023FF44CAF08466EE7F0
:1055300030F0004C18BF31F0004CCAD130F00042BE
:105540007FF45CAF31F000437FF43CAF5FE700BF16
:1055500030B5054A0C680568B4FBF2F31D4402FB44
:10556000134305600B6030BD00CA9A3B044BD878EA
:10557000044B1A68C0B2904218BF1860704700BF51
:10558000006006402088FF1F08B5FFF7EFFF830784
:10559000FBD5024B0222DA7008BD00BF0060064056
:1055A000094B1B7813B9094B1B782BB1084A1378A8
:1055B000202B03D90123037100207047581C107061
:1055C000044A0120D15470479A97FF1F5D97FF1F2F
:1055D0009B97FF1F3C97FF1F7047FFFF024B1878F8
:1055E000024B1B78C01A70479997FF1F9897FF1FAF
:1055F000064A074913780978994204D9591C117051
:10560000044AD05C70474FF0FF3070479897FF1FF7
:105610009997FF1F5E97FF1F054B064A1B7812786C
:105620009A4286BF044AD05C4FF0FF30704700BFFB
:105630009897FF1F9997FF1F5E97FF1F70B50E4B3E
:105640001B78144613B90D4B1B7893B10C4A15788F
:10565000C5F121039C42164602D9012202711C4663
:105660000848224628442544FCF77AFD3570204638
:1056700070BD184670BD00BF9A97FF1F5D97FF1F52
:105680009B97FF1F3C97FF1F10B5114BDB7803F072
:10569000200303F0FF045BB91220FCF7B9FF0D4BA8
:1056A0001B68A3B10C4A14700C4A1078984710BDBF
:1056B0000B4A13780133DBB2012B137002D8094B6C
:1056C0001B7823B91220BDE81040FCF7A1BF10BD24
:1056D000006006403897FF1F9897FF1F9997FF1F9C
:1056E0008497FF1F5D97FF1F002202714FF47A71AC
:1056F0000273024A81600260704700BF806600004A
:105700000C4B00221A700C4B196841F040011960D3
:105710000A4B0B499A704FF419720A6041F8042C35
:1057200028225A7003229A7120225A7180229A707C
:10573000704700BF5D97FF1F348004400060064043
:105740000CA0044010B53649CB78DBB213F0100F33
:1057500003F0400201D12AB92CE01020C870002AC1
:10576000F9D110BD03F0040303F0FF012D4AC3B1CA
:10577000002313702C4A13702C4B1B68144603B182
:10578000984723782A4A1BB92749137001200870CB
:10579000234BD021997012781A71264B01221A706E
:1057A00039E001231370244B19701D4BC0229A70ED
:1057B0001B7930E01A4CA27802F0100202F0FF01CF
:1057C000AAB113F001030ED11A4917480A780078DC
:1057D000904203D9531C0B70154B9B5C2371104BEB
:1057E000D0229A7017E0C023A370237913E0134BE3
:1057F0000322197012201249FCF7C4FE0E4A2179C7
:1058000013781F2BC9B206D80648007818B1581C67
:1058100010700C4AD154024B0222DA7010BD00BF46
:10582000006006403597FF1F9B97FF1F8097FF1F63
:105830003C97FF1F9C97FF1F9997FF1F8497FF1F9F
:10584000895600005E97FF1F044B054A49001970F6
:1058500001231370034A1370704700BF3C97FF1F6A
:105860009A97FF1F9B97FF1FF8B52B4B1222DA70F8
:105870009A7892060F4601D5B42218E0274B1C688F
:105880001D46FFF773FE00F0200000F0FF0350B14B
:105890002B681B1B0F2BF4D91F4B00229A70802200
:1058A0009A700420F8BD1E4A13701B4BB0229A70E8
:1058B000FFF75CFE8306FBD500251A4B1B78ECB284
:1058C000A3421FD9184B1A5D134B1A71FFF74EFEF6
:1058D000860701D48006F9D40F4E0223F370FFF738
:1058E00045FEC10601D4820603D48023B370042090
:1058F00009E0C30705F10105DFD5002C0CBF02202C
:10590000032001E0002017B1034B80229A70074B5F
:1059100000221A70F8BD00BF006006407894FF1F97
:105920005D97FF1F9B97FF1F3C97FF1F9A97FF1FD5
:105930002DE9F8431446304A1F46002313702F4ABE
:1059400013702F4B0D461221D970997811F0200F4A
:10595000904601D0B4220BE0FFF708FE00F02000D3
:1059600000F0FF020028F7D1264B1A70244BB0221A
:105970009A706B0043F00103214DDBB22B71FFF7EE
:1059800003FEFFF7F3FD10F0110004D08023AB708D
:105990000020BDE8F88334B9002F0CBFA02380237A
:1059A000AB70BDE8F883012C0CBFA823A023AB701B
:1059B0002B79DFF858902646012E114D0BD0013E71
:1059C000FFF7E2FDF6B2012E04BFA823AB702B79DE
:1059D00009F8013FF0E7FFF7D7FD661EB023AB7073
:1059E000F6B2094B2A799A550FB18023AB7088F82B
:1059F00000402046BDE8F8839897FF1F9997FF1F46
:105A0000006006405D97FF1F5E97FF1F5D97FF1FB9
:105A1000C9B2D2B20123FFF78BBFC9B2FFF714BFDF
:105A20000121FFF721BFFFFF0148FFF75DBE00BF67
:105A30008897FF1FF8B5044616460F46C8B20121E5
:105A40001D46FCF72DFEF0B20121FCF729FEE8B25D
:105A50000121FCF725FE27616661A5612046F8BD9E
:105A60002DE9F0410646006B174B081A1F6888465F
:105A7000FFF798F8154B044618680D46FFF792F8A3
:105A800002460B4620462946FFF71CFA0446706B77
:105A9000381A0D46FFF776F809A3D3E90023FFF77C
:105AA00011FA02460B4620462946FFF70BFAC6F8C4
:105AB0003080C6E900017763BDE8F081AFF3008074
:105AC00000000000004CED407894FF1F7087FF1F1E
:105AD0002DE9F84F8246DAE90023D0E90201FEF70A
